{
  "address": "0xce286a59F4177E712da1EFC7915e37b7BA73560D",
  "abi": [
    {
      "inputs": [],
      "stateMutability": "payable",
      "type": "constructor"
    },
    {
      "anonymous": false,
      "inputs": [
        {
          "indexed": true,
          "internalType": "address",
          "name": "owner",
          "type": "address"
        },
        {
          "indexed": true,
          "internalType": "address",
          "name": "spender",
          "type": "address"
        },
        {
          "indexed": false,
          "internalType": "uint256",
          "name": "value",
          "type": "uint256"
        }
      ],
      "name": "Approval",
      "type": "event"
    },
    {
      "anonymous": false,
      "inputs": [
        {
          "indexed": false,
          "internalType": "uint256",
          "name": "minTokensBeforeSwap",
          "type": "uint256"
        }
      ],
      "name": "MinTokensBeforeSwapUpdated",
      "type": "event"
    },
    {
      "anonymous": false,
      "inputs": [
        {
          "indexed": true,
          "internalType": "address",
          "name": "previousOwner",
          "type": "address"
        },
        {
          "indexed": true,
          "internalType": "address",
          "name": "newOwner",
          "type": "address"
        }
      ],
      "name": "OwnershipTransferred",
      "type": "event"
    },
    {
      "anonymous": false,
      "inputs": [
        {
          "indexed": false,
          "internalType": "uint256",
          "name": "tokensSwapped",
          "type": "uint256"
        },
        {
          "indexed": false,
          "internalType": "uint256",
          "name": "ethReceived",
          "type": "uint256"
        },
        {
          "indexed": false,
          "internalType": "uint256",
          "name": "tokensIntoLiqudity",
          "type": "uint256"
        }
      ],
      "name": "SwapAndLiquify",
      "type": "event"
    },
    {
      "anonymous": false,
      "inputs": [
        {
          "indexed": false,
          "internalType": "bool",
          "name": "enabled",
          "type": "bool"
        }
      ],
      "name": "SwapAndLiquifyEnabledUpdated",
      "type": "event"
    },
    {
      "anonymous": false,
      "inputs": [
        {
          "indexed": true,
          "internalType": "address",
          "name": "from",
          "type": "address"
        },
        {
          "indexed": true,
          "internalType": "address",
          "name": "to",
          "type": "address"
        },
        {
          "indexed": false,
          "internalType": "uint256",
          "name": "value",
          "type": "uint256"
        }
      ],
      "name": "Transfer",
      "type": "event"
    },
    {
      "inputs": [],
      "name": "_devFee",
      "outputs": [
        {
          "internalType": "uint256",
          "name": "",
          "type": "uint256"
        }
      ],
      "stateMutability": "view",
      "type": "function"
    },
    {
      "inputs": [],
      "name": "_devWalletAddress",
      "outputs": [
        {
          "internalType": "address",
          "name": "",
          "type": "address"
        }
      ],
      "stateMutability": "view",
      "type": "function"
    },
    {
      "inputs": [],
      "name": "_liquidityFee",
      "outputs": [
        {
          "internalType": "uint256",
          "name": "",
          "type": "uint256"
        }
      ],
      "stateMutability": "view",
      "type": "function"
    },
    {
      "inputs": [],
      "name": "_lockTime",
      "outputs": [
        {
          "internalType": "uint256",
          "name": "",
          "type": "uint256"
        }
      ],
      "stateMutability": "view",
      "type": "function"
    },
    {
      "inputs": [],
      "name": "_maxTxAmount",
      "outputs": [
        {
          "internalType": "uint256",
          "name": "",
          "type": "uint256"
        }
      ],
      "stateMutability": "view",
      "type": "function"
    },
    {
      "inputs": [],
      "name": "_owner",
      "outputs": [
        {
          "internalType": "address",
          "name": "",
          "type": "address"
        }
      ],
      "stateMutability": "view",
      "type": "function"
    },
    {
      "inputs": [],
      "name": "_taxFee",
      "outputs": [
        {
          "internalType": "uint256",
          "name": "",
          "type": "uint256"
        }
      ],
      "stateMutability": "view",
      "type": "function"
    },
    {
      "inputs": [
        {
          "internalType": "address",
          "name": "owner",
          "type": "address"
        },
        {
          "internalType": "address",
          "name": "spender",
          "type": "address"
        }
      ],
      "name": "allowance",
      "outputs": [
        {
          "internalType": "uint256",
          "name": "",
          "type": "uint256"
        }
      ],
      "stateMutability": "view",
      "type": "function"
    },
    {
      "inputs": [
        {
          "internalType": "address",
          "name": "spender",
          "type": "address"
        },
        {
          "internalType": "uint256",
          "name": "amount",
          "type": "uint256"
        }
      ],
      "name": "approve",
      "outputs": [
        {
          "internalType": "bool",
          "name": "",
          "type": "bool"
        }
      ],
      "stateMutability": "nonpayable",
      "type": "function"
    },
    {
      "inputs": [
        {
          "internalType": "address",
          "name": "account",
          "type": "address"
        }
      ],
      "name": "balanceOf",
      "outputs": [
        {
          "internalType": "uint256",
          "name": "",
          "type": "uint256"
        }
      ],
      "stateMutability": "view",
      "type": "function"
    },
    {
      "inputs": [],
      "name": "decimals",
      "outputs": [
        {
          "internalType": "uint256",
          "name": "",
          "type": "uint256"
        }
      ],
      "stateMutability": "view",
      "type": "function"
    },
    {
      "inputs": [
        {
          "internalType": "address",
          "name": "spender",
          "type": "address"
        },
        {
          "internalType": "uint256",
          "name": "subtractedValue",
          "type": "uint256"
        }
      ],
      "name": "decreaseAllowance",
      "outputs": [
        {
          "internalType": "bool",
          "name": "",
          "type": "bool"
        }
      ],
      "stateMutability": "nonpayable",
      "type": "function"
    },
    {
      "inputs": [
        {
          "internalType": "uint256",
          "name": "tAmount",
          "type": "uint256"
        }
      ],
      "name": "deliver",
      "outputs": [],
      "stateMutability": "nonpayable",
      "type": "function"
    },
    {
      "inputs": [
        {
          "internalType": "address",
          "name": "account",
          "type": "address"
        }
      ],
      "name": "excludeFromFee",
      "outputs": [],
      "stateMutability": "nonpayable",
      "type": "function"
    },
    {
      "inputs": [
        {
          "internalType": "address",
          "name": "account",
          "type": "address"
        }
      ],
      "name": "excludeFromReward",
      "outputs": [],
      "stateMutability": "nonpayable",
      "type": "function"
    },
    {
      "inputs": [
        {
          "internalType": "address",
          "name": "account",
          "type": "address"
        }
      ],
      "name": "includeInFee",
      "outputs": [],
      "stateMutability": "nonpayable",
      "type": "function"
    },
    {
      "inputs": [
        {
          "internalType": "address",
          "name": "account",
          "type": "address"
        }
      ],
      "name": "includeInReward",
      "outputs": [],
      "stateMutability": "nonpayable",
      "type": "function"
    },
    {
      "inputs": [
        {
          "internalType": "address",
          "name": "spender",
          "type": "address"
        },
        {
          "internalType": "uint256",
          "name": "addedValue",
          "type": "uint256"
        }
      ],
      "name": "increaseAllowance",
      "outputs": [
        {
          "internalType": "bool",
          "name": "",
          "type": "bool"
        }
      ],
      "stateMutability": "nonpayable",
      "type": "function"
    },
    {
      "inputs": [
        {
          "internalType": "address",
          "name": "account",
          "type": "address"
        }
      ],
      "name": "isExcludedFromFee",
      "outputs": [
        {
          "internalType": "bool",
          "name": "",
          "type": "bool"
        }
      ],
      "stateMutability": "view",
      "type": "function"
    },
    {
      "inputs": [
        {
          "internalType": "address",
          "name": "account",
          "type": "address"
        }
      ],
      "name": "isExcludedFromReward",
      "outputs": [
        {
          "internalType": "bool",
          "name": "",
          "type": "bool"
        }
      ],
      "stateMutability": "view",
      "type": "function"
    },
    {
      "inputs": [
        {
          "internalType": "uint256",
          "name": "time",
          "type": "uint256"
        }
      ],
      "name": "lock",
      "outputs": [],
      "stateMutability": "nonpayable",
      "type": "function"
    },
    {
      "inputs": [],
      "name": "name",
      "outputs": [
        {
          "internalType": "string",
          "name": "",
          "type": "string"
        }
      ],
      "stateMutability": "view",
      "type": "function"
    },
    {
      "inputs": [],
      "name": "numTokensSellToAddToLiquidity",
      "outputs": [
        {
          "internalType": "uint256",
          "name": "",
          "type": "uint256"
        }
      ],
      "stateMutability": "view",
      "type": "function"
    },
    {
      "inputs": [],
      "name": "owner",
      "outputs": [
        {
          "internalType": "address",
          "name": "",
          "type": "address"
        }
      ],
      "stateMutability": "view",
      "type": "function"
    },
    {
      "inputs": [
        {
          "internalType": "uint256",
          "name": "tAmount",
          "type": "uint256"
        },
        {
          "internalType": "bool",
          "name": "deductTransferFee",
          "type": "bool"
        }
      ],
      "name": "reflectionFromToken",
      "outputs": [
        {
          "internalType": "uint256",
          "name": "",
          "type": "uint256"
        }
      ],
      "stateMutability": "view",
      "type": "function"
    },
    {
      "inputs": [],
      "name": "renounceOwnership",
      "outputs": [],
      "stateMutability": "nonpayable",
      "type": "function"
    },
    {
      "inputs": [],
      "name": "routerAddress",
      "outputs": [
        {
          "internalType": "address",
          "name": "",
          "type": "address"
        }
      ],
      "stateMutability": "view",
      "type": "function"
    },
    {
      "inputs": [
        {
          "internalType": "uint256",
          "name": "devFee",
          "type": "uint256"
        }
      ],
      "name": "setDevFeePercent",
      "outputs": [],
      "stateMutability": "nonpayable",
      "type": "function"
    },
    {
      "inputs": [
        {
          "internalType": "address",
          "name": "_addr",
          "type": "address"
        }
      ],
      "name": "setDevWalletAddress",
      "outputs": [],
      "stateMutability": "nonpayable",
      "type": "function"
    },
    {
      "inputs": [
        {
          "internalType": "uint256",
          "name": "liquidityFee",
          "type": "uint256"
        }
      ],
      "name": "setLiquidityFeePercent",
      "outputs": [],
      "stateMutability": "nonpayable",
      "type": "function"
    },
    {
      "inputs": [
        {
          "internalType": "uint256",
          "name": "maxTxPercent",
          "type": "uint256"
        }
      ],
      "name": "setMaxTxPercent",
      "outputs": [],
      "stateMutability": "nonpayable",
      "type": "function"
    },
    {
      "inputs": [
        {
          "internalType": "uint256",
          "name": "amountToUpdate",
          "type": "uint256"
        }
      ],
      "name": "setNumTokensSellToAddToLiquidity",
      "outputs": [],
      "stateMutability": "nonpayable",
      "type": "function"
    },
    {
      "inputs": [
        {
          "internalType": "address",
          "name": "newRouter",
          "type": "address"
        }
      ],
      "name": "setRouterAddress",
      "outputs": [],
      "stateMutability": "nonpayable",
      "type": "function"
    },
    {
      "inputs": [
        {
          "internalType": "bool",
          "name": "_enabled",
          "type": "bool"
        }
      ],
      "name": "setSwapAndLiquifyEnabled",
      "outputs": [],
      "stateMutability": "nonpayable",
      "type": "function"
    },
    {
      "inputs": [
        {
          "internalType": "uint256",
          "name": "taxFee",
          "type": "uint256"
        }
      ],
      "name": "setTaxFeePercent",
      "outputs": [],
      "stateMutability": "nonpayable",
      "type": "function"
    },
    {
      "inputs": [],
      "name": "swapAndLiquifyEnabled",
      "outputs": [
        {
          "internalType": "bool",
          "name": "",
          "type": "bool"
        }
      ],
      "stateMutability": "view",
      "type": "function"
    },
    {
      "inputs": [],
      "name": "symbol",
      "outputs": [
        {
          "internalType": "string",
          "name": "",
          "type": "string"
        }
      ],
      "stateMutability": "view",
      "type": "function"
    },
    {
      "inputs": [
        {
          "internalType": "uint256",
          "name": "rAmount",
          "type": "uint256"
        }
      ],
      "name": "tokenFromReflection",
      "outputs": [
        {
          "internalType": "uint256",
          "name": "",
          "type": "uint256"
        }
      ],
      "stateMutability": "view",
      "type": "function"
    },
    {
      "inputs": [],
      "name": "totalFees",
      "outputs": [
        {
          "internalType": "uint256",
          "name": "",
          "type": "uint256"
        }
      ],
      "stateMutability": "view",
      "type": "function"
    },
    {
      "inputs": [],
      "name": "totalSupply",
      "outputs": [
        {
          "internalType": "uint256",
          "name": "",
          "type": "uint256"
        }
      ],
      "stateMutability": "view",
      "type": "function"
    },
    {
      "inputs": [
        {
          "internalType": "address",
          "name": "recipient",
          "type": "address"
        },
        {
          "internalType": "uint256",
          "name": "amount",
          "type": "uint256"
        }
      ],
      "name": "transfer",
      "outputs": [
        {
          "internalType": "bool",
          "name": "",
          "type": "bool"
        }
      ],
      "stateMutability": "nonpayable",
      "type": "function"
    },
    {
      "inputs": [
        {
          "internalType": "address",
          "name": "sender",
          "type": "address"
        },
        {
          "internalType": "address",
          "name": "recipient",
          "type": "address"
        },
        {
          "internalType": "uint256",
          "name": "amount",
          "type": "uint256"
        }
      ],
      "name": "transferFrom",
      "outputs": [
        {
          "internalType": "bool",
          "name": "",
          "type": "bool"
        }
      ],
      "stateMutability": "nonpayable",
      "type": "function"
    },
    {
      "inputs": [
        {
          "internalType": "address",
          "name": "newOwner",
          "type": "address"
        }
      ],
      "name": "transferOwnership",
      "outputs": [],
      "stateMutability": "nonpayable",
      "type": "function"
    },
    {
      "inputs": [],
      "name": "uniswapV2Pair",
      "outputs": [
        {
          "internalType": "address",
          "name": "",
          "type": "address"
        }
      ],
      "stateMutability": "view",
      "type": "function"
    },
    {
      "inputs": [],
      "name": "uniswapV2Router",
      "outputs": [
        {
          "internalType": "contract IUniswapV2Router02",
          "name": "",
          "type": "address"
        }
      ],
      "stateMutability": "view",
      "type": "function"
    },
    {
      "inputs": [],
      "name": "unlock",
      "outputs": [],
      "stateMutability": "nonpayable",
      "type": "function"
    },
    {
      "stateMutability": "payable",
      "type": "receive"
    }
  ],
  "transactionHash": "0xec363a3375c1f90c4d6d465c1030d3336ff3af8b11a057c70a307ba7c56c34f6",
  "args": [],
  "numDeployments": 5,
  "solcInputHash": "8c03c8a6c698b114f603bf9c31696065",
  "bytecode": "0x60806040526040518060400160405280600581526020017f46426f6e6b000000000000000000000000000000000000000000000000000000815250600d90816200004a919062000983565b506040518060400160405280600581526020017f46424f4e4b000000000000000000000000000000000000000000000000000000815250600e908162000091919062000983565b506009600f5560036010556003601255600360145573f491e7b69e4244ad4002bc14e878a34207e38c29601760006101000a81548173ffffffffffffffffffffffffffffffffffffffff021916908373ffffffffffffffffffffffffffffffffffffffff1602179055506001601860156101000a81548160ff021916908315150217905550620001266200070160201b60201c565b6000806101000a81548173ffffffffffffffffffffffffffffffffffffffff021916908373ffffffffffffffffffffffffffffffffffffffff16021790555060008054906101000a900473ffffffffffffffffffffffffffffffffffffffff1673ffffffffffffffffffffffffffffffffffffffff16600073ffffffffffffffffffffffffffffffffffffffff167f8be0079c531659141344cd1fd0a4f28419497f9722a3daafe3b4186f6b6457e060405160405180910390a3600f54600a620001f1919062000bed565b6064620001ff919062000c3e565b600a81905550600a5460001962000217919062000cb8565b60001962000226919062000cf0565b600b81905550601054601181905550601254601381905550601454601581905550600f54600a62000258919062000bed565b6103e86005600a546200026c919062000c3e565b62000278919062000d2b565b62000284919062000c3e565b60198190555033600960006101000a81548173ffffffffffffffffffffffffffffffffffffffff021916908373ffffffffffffffffffffffffffffffffffffffff160217905550633b9aca0064174876e8006001600a54620002e7919062000c3e565b620002f3919062000d2b565b620002ff919062000c3e565b601a81905550600b54600360003373ffffffffffffffffffffffffffffffffffffffff1673ffffffffffffffffffffffffffffffffffffffff168152602001908152602001600020819055506000601760009054906101000a900473ffffffffffffffffffffffffffffffffffffffff1690508073ffffffffffffffffffffffffffffffffffffffff1663c45a01556040518163ffffffff1660e01b8152600401602060405180830381865afa158015620003be573d6000803e3d6000fd5b505050506040513d601f19601f82011682018060405250810190620003e4919062000dcd565b73ffffffffffffffffffffffffffffffffffffffff1663c9c65396308373ffffffffffffffffffffffffffffffffffffffff1663ad5c46486040518163ffffffff1660e01b8152600401602060405180830381865afa1580156200044c573d6000803e3d6000fd5b505050506040513d601f19601f8201168201806040525081019062000472919062000dcd565b6040518363ffffffff1660e01b81526004016200049192919062000e10565b6020604051808303816000875af1158015620004b1573d6000803e3d6000fd5b505050506040513d601f19601f82011682018060405250810190620004d7919062000dcd565b601860006101000a81548173ffffffffffffffffffffffffffffffffffffffff021916908373ffffffffffffffffffffffffffffffffffffffff16021790555080601660006101000a81548173ffffffffffffffffffffffffffffffffffffffff021916908373ffffffffffffffffffffffffffffffffffffffff1602179055506001600660003373ffffffffffffffffffffffffffffffffffffffff1673ffffffffffffffffffffffffffffffffffffffff16815260200190815260200160002060006101000a81548160ff0219169083151502179055506001600660003073ffffffffffffffffffffffffffffffffffffffff1673ffffffffffffffffffffffffffffffffffffffff16815260200190815260200160002060006101000a81548160ff021916908315150217905550336000806101000a81548173ffffffffffffffffffffffffffffffffffffffff021916908373ffffffffffffffffffffffffffffffffffffffff1602179055503373ffffffffffffffffffffffffffffffffffffffff166108fc349081150290604051600060405180830381858888f193505050501580156200068f573d6000803e3d6000fd5b503373ffffffffffffffffffffffffffffffffffffffff16600073ffffffffffffffffffffffffffffffffffffffff167fddf252ad1be2c89b69c2b068fc378daa952ba7f163c4a11628f55a4df523b3ef600a54604051620006f2919062000e4e565b60405180910390a35062000e6b565b600033905090565b600081519050919050565b7f4e487b7100000000000000000000000000000000000000000000000000000000600052604160045260246000fd5b7f4e487b7100000000000000000000000000000000000000000000000000000000600052602260045260246000fd5b600060028204905060018216806200078b57607f821691505b602082108103620007a157620007a062000743565b5b50919050565b60008190508160005260206000209050919050565b60006020601f8301049050919050565b600082821b905092915050565b6000600883026200080b7fffffffffffffffffffffffffffffffffffffffffffffffffffffffffffffffff82620007cc565b620008178683620007cc565b95508019841693508086168417925050509392505050565b6000819050919050565b6000819050919050565b6000620008646200085e62000858846200082f565b62000839565b6200082f565b9050919050565b6000819050919050565b620008808362000843565b620008986200088f826200086b565b848454620007d9565b825550505050565b600090565b620008af620008a0565b620008bc81848462000875565b505050565b5b81811015620008e457620008d8600082620008a5565b600181019050620008c2565b5050565b601f8211156200093357620008fd81620007a7565b6200090884620007bc565b8101602085101562000918578190505b620009306200092785620007bc565b830182620008c1565b50505b505050565b600082821c905092915050565b6000620009586000198460080262000938565b1980831691505092915050565b600062000973838362000945565b9150826002028217905092915050565b6200098e8262000709565b67ffffffffffffffff811115620009aa57620009a962000714565b5b620009b6825462000772565b620009c3828285620008e8565b600060209050601f831160018114620009fb5760008415620009e6578287015190505b620009f2858262000965565b86555062000a62565b601f19841662000a0b86620007a7565b60005b8281101562000a355784890151825560018201915060208501945060208101905062000a0e565b8683101562000a55578489015162000a51601f89168262000945565b8355505b6001600288020188555050505b505050505050565b7f4e487b7100000000000000000000000000000000000000000000000000000000600052601160045260246000fd5b60008160011c9050919050565b6000808291508390505b600185111562000af85780860481111562000ad05762000acf62000a6a565b5b600185161562000ae05780820291505b808102905062000af08562000a99565b945062000ab0565b94509492505050565b60008262000b13576001905062000be6565b8162000b23576000905062000be6565b816001811462000b3c576002811462000b475762000b7d565b600191505062000be6565b60ff84111562000b5c5762000b5b62000a6a565b5b8360020a91508482111562000b765762000b7562000a6a565b5b5062000be6565b5060208310610133831016604e8410600b841016171562000bb75782820a90508381111562000bb15762000bb062000a6a565b5b62000be6565b62000bc6848484600162000aa6565b9250905081840481111562000be05762000bdf62000a6a565b5b81810290505b9392505050565b600062000bfa826200082f565b915062000c07836200082f565b925062000c367fffffffffffffffffffffffffffffffffffffffffffffffffffffffffffffffff848462000b01565b905092915050565b600062000c4b826200082f565b915062000c58836200082f565b925082820262000c68816200082f565b9150828204841483151762000c825762000c8162000a6a565b5b5092915050565b7f4e487b7100000000000000000000000000000000000000000000000000000000600052601260045260246000fd5b600062000cc5826200082f565b915062000cd2836200082f565b92508262000ce55762000ce462000c89565b5b828206905092915050565b600062000cfd826200082f565b915062000d0a836200082f565b925082820390508181111562000d255762000d2462000a6a565b5b92915050565b600062000d38826200082f565b915062000d45836200082f565b92508262000d585762000d5762000c89565b5b828204905092915050565b600080fd5b600073ffffffffffffffffffffffffffffffffffffffff82169050919050565b600062000d958262000d68565b9050919050565b62000da78162000d88565b811462000db357600080fd5b50565b60008151905062000dc78162000d9c565b92915050565b60006020828403121562000de65762000de562000d63565b5b600062000df68482850162000db6565b91505092915050565b62000e0a8162000d88565b82525050565b600060408201905062000e27600083018562000dff565b62000e36602083018462000dff565b9392505050565b62000e48816200082f565b82525050565b600060208201905062000e65600083018462000e3d565b92915050565b615c168062000e7b6000396000f3fe6080604052600436106102815760003560e01c80636bc87c3a1161014f578063a9059cbb116100c1578063d543dbeb1161007a578063d543dbeb146109bd578063dd467064146109e6578063dd62ed3e14610a0f578063ea2f0b3714610a4c578063f0f165af14610a75578063f2fde38b14610a9e57610288565b8063a9059cbb146108ab578063aa45026b146108e8578063b2bdfa7b14610913578063b425bac31461093e578063c49b9a8014610969578063d12a76881461099257610288565b806388f820201161011357806388f820201461079b5780638da5cb5b146107d85780638ee88c531461080357806395d89b411461082c578063a457c2d714610857578063a69df4b51461089457610288565b80636bc87c3a146106c657806370a08231146106f1578063715018a61461072e57806379af25a6146107455780637d1db4a51461077057610288565b80633685d419116101f3578063437823ec116101ac578063437823ec146105a45780634549b039146105cd57806349bd5a5e1461060a5780634a74bb021461063557806352390c02146106605780635342acb41461068957610288565b80633685d41914610498578063379e2919146104c157806339509351146104ea5780633b124fe7146105275780633bd5d1731461055257806341cb87fc1461057b57610288565b80631694505e116102455780631694505e1461037257806318160ddd1461039d57806323b872dd146103c85780632d83811914610405578063313ce567146104425780633268cc561461046d57610288565b8063061c82d01461028d57806306fdde03146102b6578063095ea7b3146102e1578063120a06121461031e57806313114a9d1461034757610288565b3661028857005b600080fd5b34801561029957600080fd5b506102b460048036038101906102af919061493f565b610ac7565b005b3480156102c257600080fd5b506102cb610b4d565b6040516102d891906149fc565b60405180910390f35b3480156102ed57600080fd5b5061030860048036038101906103039190614a7c565b610bdf565b6040516103159190614ad7565b60405180910390f35b34801561032a57600080fd5b5061034560048036038101906103409190614af2565b610bfd565b005b34801561035357600080fd5b5061035c610cbd565b6040516103699190614b2e565b60405180910390f35b34801561037e57600080fd5b50610387610cc7565b6040516103949190614ba8565b60405180910390f35b3480156103a957600080fd5b506103b2610ced565b6040516103bf9190614b2e565b60405180910390f35b3480156103d457600080fd5b506103ef60048036038101906103ea9190614bc3565b610cf7565b6040516103fc9190614ad7565b60405180910390f35b34801561041157600080fd5b5061042c6004803603810190610427919061493f565b610dd0565b6040516104399190614b2e565b60405180910390f35b34801561044e57600080fd5b50610457610e3e565b6040516104649190614b2e565b60405180910390f35b34801561047957600080fd5b50610482610e48565b60405161048f9190614c25565b60405180910390f35b3480156104a457600080fd5b506104bf60048036038101906104ba9190614af2565b610e6e565b005b3480156104cd57600080fd5b506104e860048036038101906104e3919061493f565b6111a3565b005b3480156104f657600080fd5b50610511600480360381019061050c9190614a7c565b611229565b60405161051e9190614ad7565b60405180910390f35b34801561053357600080fd5b5061053c6112dc565b6040516105499190614b2e565b60405180910390f35b34801561055e57600080fd5b506105796004803603810190610574919061493f565b6112e2565b005b34801561058757600080fd5b506105a2600480360381019061059d9190614af2565b61145e565b005b3480156105b057600080fd5b506105cb60048036038101906105c69190614af2565b6116be565b005b3480156105d957600080fd5b506105f460048036038101906105ef9190614c6c565b611795565b6040516106019190614b2e565b60405180910390f35b34801561061657600080fd5b5061061f61181b565b60405161062c9190614c25565b60405180910390f35b34801561064157600080fd5b5061064a611841565b6040516106579190614ad7565b60405180910390f35b34801561066c57600080fd5b5061068760048036038101906106829190614af2565b611854565b005b34801561069557600080fd5b506106b060048036038101906106ab9190614af2565b611aef565b6040516106bd9190614ad7565b60405180910390f35b3480156106d257600080fd5b506106db611b45565b6040516106e89190614b2e565b60405180910390f35b3480156106fd57600080fd5b5061071860048036038101906107139190614af2565b611b4b565b6040516107259190614b2e565b60405180910390f35b34801561073a57600080fd5b50610743611c36565b005b34801561075157600080fd5b5061075a611d70565b6040516107679190614b2e565b60405180910390f35b34801561077c57600080fd5b50610785611d76565b6040516107929190614b2e565b60405180910390f35b3480156107a757600080fd5b506107c260048036038101906107bd9190614af2565b611d7c565b6040516107cf9190614ad7565b60405180910390f35b3480156107e457600080fd5b506107ed611dd2565b6040516107fa9190614c25565b60405180910390f35b34801561080f57600080fd5b5061082a6004803603810190610825919061493f565b611dfb565b005b34801561083857600080fd5b50610841611e81565b60405161084e91906149fc565b60405180910390f35b34801561086357600080fd5b5061087e60048036038101906108799190614a7c565b611f13565b60405161088b9190614ad7565b60405180910390f35b3480156108a057600080fd5b506108a9611fe0565b005b3480156108b757600080fd5b506108d260048036038101906108cd9190614a7c565b6121b4565b6040516108df9190614ad7565b60405180910390f35b3480156108f457600080fd5b506108fd6121d2565b60405161090a9190614b2e565b60405180910390f35b34801561091f57600080fd5b506109286121d8565b6040516109359190614c25565b60405180910390f35b34801561094a57600080fd5b506109536121fc565b6040516109609190614c25565b60405180910390f35b34801561097557600080fd5b50610990600480360381019061098b9190614cac565b612222565b005b34801561099e57600080fd5b506109a76122f2565b6040516109b49190614b2e565b60405180910390f35b3480156109c957600080fd5b506109e460048036038101906109df919061493f565b6122f8565b005b3480156109f257600080fd5b50610a0d6004803603810190610a08919061493f565b612397565b005b348015610a1b57600080fd5b50610a366004803603810190610a319190614cd9565b61253a565b604051610a439190614b2e565b60405180910390f35b348015610a5857600080fd5b50610a736004803603810190610a6e9190614af2565b6125c1565b005b348015610a8157600080fd5b50610a9c6004803603810190610a97919061493f565b612698565b005b348015610aaa57600080fd5b50610ac56004803603810190610ac09190614af2565b61271e565b005b610acf6128c6565b73ffffffffffffffffffffffffffffffffffffffff16610aed611dd2565b73ffffffffffffffffffffffffffffffffffffffff1614610b43576040517f08c379a0000000000000000000000000000000000000000000000000000000008152600401610b3a90614d65565b60405180910390fd5b8060108190555050565b6060600d8054610b5c90614db4565b80601f0160208091040260200160405190810160405280929190818152602001828054610b8890614db4565b8015610bd55780601f10610baa57610100808354040283529160200191610bd5565b820191906000526020600020905b815481529060010190602001808311610bb857829003601f168201915b5050505050905090565b6000610bf3610bec6128c6565b84846128ce565b6001905092915050565b610c056128c6565b73ffffffffffffffffffffffffffffffffffffffff16610c23611dd2565b73ffffffffffffffffffffffffffffffffffffffff1614610c79576040517f08c379a0000000000000000000000000000000000000000000000000000000008152600401610c7090614d65565b60405180910390fd5b80600960006101000a81548173ffffffffffffffffffffffffffffffffffffffff021916908373ffffffffffffffffffffffffffffffffffffffff16021790555050565b6000600c54905090565b601660009054906101000a900473ffffffffffffffffffffffffffffffffffffffff1681565b6000600a54905090565b6000610d04848484612a97565b610dc584610d106128c6565b610dc085604051806060016040528060288152602001615b9460289139600560008b73ffffffffffffffffffffffffffffffffffffffff1673ffffffffffffffffffffffffffffffffffffffff1681526020019081526020016000206000610d766128c6565b73ffffffffffffffffffffffffffffffffffffffff1673ffffffffffffffffffffffffffffffffffffffff16815260200190815260200160002054612e049092919063ffffffff16565b6128ce565b600190509392505050565b6000600b54821115610e17576040517f08c379a0000000000000000000000000000000000000000000000000000000008152600401610e0e90614e57565b60405180910390fd5b6000610e21612e59565b9050610e368184612e8490919063ffffffff16565b915050919050565b6000600f54905090565b601760009054906101000a900473ffffffffffffffffffffffffffffffffffffffff1681565b610e766128c6565b73ffffffffffffffffffffffffffffffffffffffff16610e94611dd2565b73ffffffffffffffffffffffffffffffffffffffff1614610eea576040517f08c379a0000000000000000000000000000000000000000000000000000000008152600401610ee190614d65565b60405180910390fd5b600760008273ffffffffffffffffffffffffffffffffffffffff1673ffffffffffffffffffffffffffffffffffffffff16815260200190815260200160002060009054906101000a900460ff16610f76576040517f08c379a0000000000000000000000000000000000000000000000000000000008152600401610f6d90614ec3565b60405180910390fd5b60005b60088054905081101561119f578173ffffffffffffffffffffffffffffffffffffffff1660088281548110610fb157610fb0614ee3565b5b9060005260206000200160009054906101000a900473ffffffffffffffffffffffffffffffffffffffff1673ffffffffffffffffffffffffffffffffffffffff160361118c576008600160088054905061100b9190614f41565b8154811061101c5761101b614ee3565b5b9060005260206000200160009054906101000a900473ffffffffffffffffffffffffffffffffffffffff166008828154811061105b5761105a614ee3565b5b9060005260206000200160006101000a81548173ffffffffffffffffffffffffffffffffffffffff021916908373ffffffffffffffffffffffffffffffffffffffff1602179055506000600460008473ffffffffffffffffffffffffffffffffffffffff1673ffffffffffffffffffffffffffffffffffffffff168152602001908152602001600020819055506000600760008473ffffffffffffffffffffffffffffffffffffffff1673ffffffffffffffffffffffffffffffffffffffff16815260200190815260200160002060006101000a81548160ff021916908315150217905550600880548061115257611151614f75565b5b6001900381819060005260206000200160006101000a81549073ffffffffffffffffffffffffffffffffffffffff0219169055905561119f565b808061119790614fa4565b915050610f79565b5050565b6111ab6128c6565b73ffffffffffffffffffffffffffffffffffffffff166111c9611dd2565b73ffffffffffffffffffffffffffffffffffffffff161461121f576040517f08c379a000000000000000000000000000000000000000000000000000000000815260040161121690614d65565b60405180910390fd5b8060128190555050565b60006112d26112366128c6565b846112cd85600560006112476128c6565b73ffffffffffffffffffffffffffffffffffffffff1673ffffffffffffffffffffffffffffffffffffffff16815260200190815260200160002060008973ffffffffffffffffffffffffffffffffffffffff1673ffffffffffffffffffffffffffffffffffffffff16815260200190815260200160002054612e9a90919063ffffffff16565b6128ce565b6001905092915050565b60105481565b60006112ec6128c6565b9050600760008273ffffffffffffffffffffffffffffffffffffffff1673ffffffffffffffffffffffffffffffffffffffff16815260200190815260200160002060009054906101000a900460ff161561137b576040517f08c379a00000000000000000000000000000000000000000000000000000000081526004016113729061505e565b60405180910390fd5b600061138683612eb0565b50505050505090506113e081600360008573ffffffffffffffffffffffffffffffffffffffff1673ffffffffffffffffffffffffffffffffffffffff16815260200190815260200160002054612f1890919063ffffffff16565b600360008473ffffffffffffffffffffffffffffffffffffffff1673ffffffffffffffffffffffffffffffffffffffff1681526020019081526020016000208190555061143881600b54612f1890919063ffffffff16565b600b8190555061145383600c54612e9a90919063ffffffff16565b600c81905550505050565b6114666128c6565b73ffffffffffffffffffffffffffffffffffffffff16611484611dd2565b73ffffffffffffffffffffffffffffffffffffffff16146114da576040517f08c379a00000000000000000000000000000000000000000000000000000000081526004016114d190614d65565b60405180910390fd5b60008190508073ffffffffffffffffffffffffffffffffffffffff1663c45a01556040518163ffffffff1660e01b8152600401602060405180830381865afa15801561152a573d6000803e3d6000fd5b505050506040513d601f19601f8201168201806040525081019061154e9190615093565b73ffffffffffffffffffffffffffffffffffffffff1663c9c65396308373ffffffffffffffffffffffffffffffffffffffff1663ad5c46486040518163ffffffff1660e01b8152600401602060405180830381865afa1580156115b5573d6000803e3d6000fd5b505050506040513d601f19601f820116820180604052508101906115d99190615093565b6040518363ffffffff1660e01b81526004016115f69291906150c0565b6020604051808303816000875af1158015611615573d6000803e3d6000fd5b505050506040513d601f19601f820116820180604052508101906116399190615093565b601860006101000a81548173ffffffffffffffffffffffffffffffffffffffff021916908373ffffffffffffffffffffffffffffffffffffffff16021790555080601660006101000a81548173ffffffffffffffffffffffffffffffffffffffff021916908373ffffffffffffffffffffffffffffffffffffffff1602179055505050565b6116c66128c6565b73ffffffffffffffffffffffffffffffffffffffff166116e4611dd2565b73ffffffffffffffffffffffffffffffffffffffff161461173a576040517f08c379a000000000000000000000000000000000000000000000000000000000815260040161173190614d65565b60405180910390fd5b6001600660008373ffffffffffffffffffffffffffffffffffffffff1673ffffffffffffffffffffffffffffffffffffffff16815260200190815260200160002060006101000a81548160ff02191690831515021790555050565b6000600a548311156117dc576040517f08c379a00000000000000000000000000000000000000000000000000000000081526004016117d390615135565b60405180910390fd5b816117fd5760006117ec84612eb0565b505050505050905080915050611815565b600061180884612eb0565b5050505050915050809150505b92915050565b601860009054906101000a900473ffffffffffffffffffffffffffffffffffffffff1681565b601860159054906101000a900460ff1681565b61185c6128c6565b73ffffffffffffffffffffffffffffffffffffffff1661187a611dd2565b73ffffffffffffffffffffffffffffffffffffffff16146118d0576040517f08c379a00000000000000000000000000000000000000000000000000000000081526004016118c790614d65565b60405180910390fd5b600760008273ffffffffffffffffffffffffffffffffffffffff1673ffffffffffffffffffffffffffffffffffffffff16815260200190815260200160002060009054906101000a900460ff161561195d576040517f08c379a0000000000000000000000000000000000000000000000000000000008152600401611954906151a1565b60405180910390fd5b6000600360008373ffffffffffffffffffffffffffffffffffffffff1673ffffffffffffffffffffffffffffffffffffffff168152602001908152602001600020541115611a31576119ed600360008373ffffffffffffffffffffffffffffffffffffffff1673ffffffffffffffffffffffffffffffffffffffff16815260200190815260200160002054610dd0565b600460008373ffffffffffffffffffffffffffffffffffffffff1673ffffffffffffffffffffffffffffffffffffffff168152602001908152602001600020819055505b6001600760008373ffffffffffffffffffffffffffffffffffffffff1673ffffffffffffffffffffffffffffffffffffffff16815260200190815260200160002060006101000a81548160ff0219169083151502179055506008819080600181540180825580915050600190039060005260206000200160009091909190916101000a81548173ffffffffffffffffffffffffffffffffffffffff021916908373ffffffffffffffffffffffffffffffffffffffff16021790555050565b6000600660008373ffffffffffffffffffffffffffffffffffffffff1673ffffffffffffffffffffffffffffffffffffffff16815260200190815260200160002060009054906101000a900460ff169050919050565b60145481565b6000600760008373ffffffffffffffffffffffffffffffffffffffff1673ffffffffffffffffffffffffffffffffffffffff16815260200190815260200160002060009054906101000a900460ff1615611be657600460008373ffffffffffffffffffffffffffffffffffffffff1673ffffffffffffffffffffffffffffffffffffffff168152602001908152602001600020549050611c31565b611c2e600360008473ffffffffffffffffffffffffffffffffffffffff1673ffffffffffffffffffffffffffffffffffffffff16815260200190815260200160002054610dd0565b90505b919050565b611c3e6128c6565b73ffffffffffffffffffffffffffffffffffffffff16611c5c611dd2565b73ffffffffffffffffffffffffffffffffffffffff1614611cb2576040517f08c379a0000000000000000000000000000000000000000000000000000000008152600401611ca990614d65565b60405180910390fd5b600073ffffffffffffffffffffffffffffffffffffffff1660008054906101000a900473ffffffffffffffffffffffffffffffffffffffff1673ffffffffffffffffffffffffffffffffffffffff167f8be0079c531659141344cd1fd0a4f28419497f9722a3daafe3b4186f6b6457e060405160405180910390a360008060006101000a81548173ffffffffffffffffffffffffffffffffffffffff021916908373ffffffffffffffffffffffffffffffffffffffff160217905550565b60025481565b60195481565b6000600760008373ffffffffffffffffffffffffffffffffffffffff1673ffffffffffffffffffffffffffffffffffffffff16815260200190815260200160002060009054906101000a900460ff169050919050565b60008060009054906101000a900473ffffffffffffffffffffffffffffffffffffffff16905090565b611e036128c6565b73ffffffffffffffffffffffffffffffffffffffff16611e21611dd2565b73ffffffffffffffffffffffffffffffffffffffff1614611e77576040517f08c379a0000000000000000000000000000000000000000000000000000000008152600401611e6e90614d65565b60405180910390fd5b8060148190555050565b6060600e8054611e9090614db4565b80601f0160208091040260200160405190810160405280929190818152602001828054611ebc90614db4565b8015611f095780601f10611ede57610100808354040283529160200191611f09565b820191906000526020600020905b815481529060010190602001808311611eec57829003601f168201915b5050505050905090565b6000611fd6611f206128c6565b84611fd185604051806060016040528060258152602001615bbc6025913960056000611f4a6128c6565b73ffffffffffffffffffffffffffffffffffffffff1673ffffffffffffffffffffffffffffffffffffffff16815260200190815260200160002060008a73ffffffffffffffffffffffffffffffffffffffff1673ffffffffffffffffffffffffffffffffffffffff16815260200190815260200160002054612e049092919063ffffffff16565b6128ce565b6001905092915050565b3373ffffffffffffffffffffffffffffffffffffffff16600160009054906101000a900473ffffffffffffffffffffffffffffffffffffffff1673ffffffffffffffffffffffffffffffffffffffff1614612070576040517f08c379a000000000000000000000000000000000000000000000000000000000815260040161206790615233565b60405180910390fd5b60025442116120b4576040517f08c379a00000000000000000000000000000000000000000000000000000000081526004016120ab9061529f565b60405180910390fd5b600160009054906101000a900473ffffffffffffffffffffffffffffffffffffffff1673ffffffffffffffffffffffffffffffffffffffff1660008054906101000a900473ffffffffffffffffffffffffffffffffffffffff1673ffffffffffffffffffffffffffffffffffffffff167f8be0079c531659141344cd1fd0a4f28419497f9722a3daafe3b4186f6b6457e060405160405180910390a3600160009054906101000a900473ffffffffffffffffffffffffffffffffffffffff166000806101000a81548173ffffffffffffffffffffffffffffffffffffffff021916908373ffffffffffffffffffffffffffffffffffffffff160217905550565b60006121c86121c16128c6565b8484612a97565b6001905092915050565b60125481565b60008054906101000a900473ffffffffffffffffffffffffffffffffffffffff1681565b600960009054906101000a900473ffffffffffffffffffffffffffffffffffffffff1681565b61222a6128c6565b73ffffffffffffffffffffffffffffffffffffffff16612248611dd2565b73ffffffffffffffffffffffffffffffffffffffff161461229e576040517f08c379a000000000000000000000000000000000000000000000000000000000815260040161229590614d65565b60405180910390fd5b80601860156101000a81548160ff0219169083151502179055507f53726dfcaf90650aa7eb35524f4d3220f07413c8d6cb404cc8c18bf5591bc159816040516122e79190614ad7565b60405180910390a150565b601a5481565b6123006128c6565b73ffffffffffffffffffffffffffffffffffffffff1661231e611dd2565b73ffffffffffffffffffffffffffffffffffffffff1614612374576040517f08c379a000000000000000000000000000000000000000000000000000000000815260040161236b90614d65565b60405180910390fd5b600f54600a61238391906153f2565b8161238e919061543d565b60198190555050565b61239f6128c6565b73ffffffffffffffffffffffffffffffffffffffff166123bd611dd2565b73ffffffffffffffffffffffffffffffffffffffff1614612413576040517f08c379a000000000000000000000000000000000000000000000000000000000815260040161240a90614d65565b60405180910390fd5b60008054906101000a900473ffffffffffffffffffffffffffffffffffffffff16600160006101000a81548173ffffffffffffffffffffffffffffffffffffffff021916908373ffffffffffffffffffffffffffffffffffffffff16021790555060008060006101000a81548173ffffffffffffffffffffffffffffffffffffffff021916908373ffffffffffffffffffffffffffffffffffffffff16021790555080600281905550600073ffffffffffffffffffffffffffffffffffffffff1660008054906101000a900473ffffffffffffffffffffffffffffffffffffffff1673ffffffffffffffffffffffffffffffffffffffff167f8be0079c531659141344cd1fd0a4f28419497f9722a3daafe3b4186f6b6457e060405160405180910390a350565b6000600560008473ffffffffffffffffffffffffffffffffffffffff1673ffffffffffffffffffffffffffffffffffffffff16815260200190815260200160002060008373ffffffffffffffffffffffffffffffffffffffff1673ffffffffffffffffffffffffffffffffffffffff16815260200190815260200160002054905092915050565b6125c96128c6565b73ffffffffffffffffffffffffffffffffffffffff166125e7611dd2565b73ffffffffffffffffffffffffffffffffffffffff161461263d576040517f08c379a000000000000000000000000000000000000000000000000000000000815260040161263490614d65565b60405180910390fd5b6000600660008373ffffffffffffffffffffffffffffffffffffffff1673ffffffffffffffffffffffffffffffffffffffff16815260200190815260200160002060006101000a81548160ff02191690831515021790555050565b6126a06128c6565b73ffffffffffffffffffffffffffffffffffffffff166126be611dd2565b73ffffffffffffffffffffffffffffffffffffffff1614612714576040517f08c379a000000000000000000000000000000000000000000000000000000000815260040161270b90614d65565b60405180910390fd5b80601a8190555050565b6127266128c6565b73ffffffffffffffffffffffffffffffffffffffff16612744611dd2565b73ffffffffffffffffffffffffffffffffffffffff161461279a576040517f08c379a000000000000000000000000000000000000000000000000000000000815260040161279190614d65565b60405180910390fd5b600073ffffffffffffffffffffffffffffffffffffffff168173ffffffffffffffffffffffffffffffffffffffff1603612809576040517f08c379a0000000000000000000000000000000000000000000000000000000008152600401612800906154f1565b60405180910390fd5b8073ffffffffffffffffffffffffffffffffffffffff1660008054906101000a900473ffffffffffffffffffffffffffffffffffffffff1673ffffffffffffffffffffffffffffffffffffffff167f8be0079c531659141344cd1fd0a4f28419497f9722a3daafe3b4186f6b6457e060405160405180910390a3806000806101000a81548173ffffffffffffffffffffffffffffffffffffffff021916908373ffffffffffffffffffffffffffffffffffffffff16021790555050565b600033905090565b600073ffffffffffffffffffffffffffffffffffffffff168373ffffffffffffffffffffffffffffffffffffffff160361293d576040517f08c379a000000000000000000000000000000000000000000000000000000000815260040161293490615583565b60405180910390fd5b600073ffffffffffffffffffffffffffffffffffffffff168273ffffffffffffffffffffffffffffffffffffffff16036129ac576040517f08c379a00000000000000000000000000000000000000000000000000000000081526004016129a390615615565b60405180910390fd5b80600560008573ffffffffffffffffffffffffffffffffffffffff1673ffffffffffffffffffffffffffffffffffffffff16815260200190815260200160002060008473ffffffffffffffffffffffffffffffffffffffff1673ffffffffffffffffffffffffffffffffffffffff168152602001908152602001600020819055508173ffffffffffffffffffffffffffffffffffffffff168373ffffffffffffffffffffffffffffffffffffffff167f8c5be1e5ebec7d5bd14f71427d1e84f3dd0314c0f7b2291e5b200ac8c7c3b92583604051612a8a9190614b2e565b60405180910390a3505050565b600073ffffffffffffffffffffffffffffffffffffffff168373ffffffffffffffffffffffffffffffffffffffff1603612b06576040517f08c379a0000000000000000000000000000000000000000000000000000000008152600401612afd906156a7565b60405180910390fd5b600073ffffffffffffffffffffffffffffffffffffffff168273ffffffffffffffffffffffffffffffffffffffff1603612b75576040517f08c379a0000000000000000000000000000000000000000000000000000000008152600401612b6c90615739565b60405180910390fd5b60008111612bb8576040517f08c379a0000000000000000000000000000000000000000000000000000000008152600401612baf906157cb565b60405180910390fd5b612bc0611dd2565b73ffffffffffffffffffffffffffffffffffffffff168373ffffffffffffffffffffffffffffffffffffffff1614158015612c2e5750612bfe611dd2565b73ffffffffffffffffffffffffffffffffffffffff168273ffffffffffffffffffffffffffffffffffffffff1614155b15612c7957601954811115612c78576040517f08c379a0000000000000000000000000000000000000000000000000000000008152600401612c6f9061585d565b60405180910390fd5b5b6000612c8430611b4b565b90506019548110612c955760195490505b6000601a548210159050808015612cb95750601860149054906101000a900460ff16155b8015612d135750601860009054906101000a900473ffffffffffffffffffffffffffffffffffffffff1673ffffffffffffffffffffffffffffffffffffffff168573ffffffffffffffffffffffffffffffffffffffff1614155b8015612d2b5750601860159054906101000a900460ff165b15612d3f57601a549150612d3e82612f2e565b5b600060019050600660008773ffffffffffffffffffffffffffffffffffffffff1673ffffffffffffffffffffffffffffffffffffffff16815260200190815260200160002060009054906101000a900460ff1680612de65750600660008673ffffffffffffffffffffffffffffffffffffffff1673ffffffffffffffffffffffffffffffffffffffff16815260200190815260200160002060009054906101000a900460ff165b15612df057600090505b612dfc86868684613004565b505050505050565b6000838311158290612e4c576040517f08c379a0000000000000000000000000000000000000000000000000000000008152600401612e4391906149fc565b60405180910390fd5b5082840390509392505050565b6000806000612e66613315565b91509150612e7d8183612e8490919063ffffffff16565b9250505090565b60008183612e9291906158ac565b905092915050565b60008183612ea891906158dd565b905092915050565b6000806000806000806000806000806000612eca8c6135c8565b93509350935093506000806000612eeb8f878787612ee6612e59565b613647565b925092509250828282898989899d509d509d509d509d509d509d5050505050505050919395979092949650565b60008183612f269190614f41565b905092915050565b6001601860146101000a81548160ff0219169083151502179055506000612f5f600283612e8490919063ffffffff16565b90506000612f768284612f1890919063ffffffff16565b90506000479050612f86836136fb565b6000612f9b8247612f1890919063ffffffff16565b9050612fa7838261393e565b7f17bbfb9a6069321b6ded73bd96327c9e6b7212a5cd51ff219cd61370acafb561848285604051612fda93929190615911565b60405180910390a1505050506000601860146101000a81548160ff02191690831515021790555050565b8061301257613011613a23565b5b600760008573ffffffffffffffffffffffffffffffffffffffff1673ffffffffffffffffffffffffffffffffffffffff16815260200190815260200160002060009054906101000a900460ff1680156130b55750600760008473ffffffffffffffffffffffffffffffffffffffff1673ffffffffffffffffffffffffffffffffffffffff16815260200190815260200160002060009054906101000a900460ff16155b156130ca576130c5848484613a58565b613301565b600760008573ffffffffffffffffffffffffffffffffffffffff1673ffffffffffffffffffffffffffffffffffffffff16815260200190815260200160002060009054906101000a900460ff1615801561316d5750600760008473ffffffffffffffffffffffffffffffffffffffff1673ffffffffffffffffffffffffffffffffffffffff16815260200190815260200160002060009054906101000a900460ff165b156131825761317d848484613cc6565b613300565b600760008573ffffffffffffffffffffffffffffffffffffffff1673ffffffffffffffffffffffffffffffffffffffff16815260200190815260200160002060009054906101000a900460ff161580156132265750600760008473ffffffffffffffffffffffffffffffffffffffff1673ffffffffffffffffffffffffffffffffffffffff16815260200190815260200160002060009054906101000a900460ff16155b1561323b57613236848484613f34565b6132ff565b600760008573ffffffffffffffffffffffffffffffffffffffff1673ffffffffffffffffffffffffffffffffffffffff16815260200190815260200160002060009054906101000a900460ff1680156132dd5750600760008473ffffffffffffffffffffffffffffffffffffffff1673ffffffffffffffffffffffffffffffffffffffff16815260200190815260200160002060009054906101000a900460ff165b156132f2576132ed84848461410d565b6132fe565b6132fd848484613f34565b5b5b5b5b8061330f5761330e614410565b5b50505050565b6000806000600b5490506000600a54905060005b60088054905081101561358b5782600360006008848154811061334f5761334e614ee3565b5b9060005260206000200160009054906101000a900473ffffffffffffffffffffffffffffffffffffffff1673ffffffffffffffffffffffffffffffffffffffff1673ffffffffffffffffffffffffffffffffffffffff16815260200190815260200160002054118061343d57508160046000600884815481106133d5576133d4614ee3565b5b9060005260206000200160009054906101000a900473ffffffffffffffffffffffffffffffffffffffff1673ffffffffffffffffffffffffffffffffffffffff1673ffffffffffffffffffffffffffffffffffffffff16815260200190815260200160002054115b1561345457600b54600a54945094505050506135c4565b6134e4600360006008848154811061346f5761346e614ee3565b5b9060005260206000200160009054906101000a900473ffffffffffffffffffffffffffffffffffffffff1673ffffffffffffffffffffffffffffffffffffffff1673ffffffffffffffffffffffffffffffffffffffff1681526020019081526020016000205484612f1890919063ffffffff16565b9250613576600460006008848154811061350157613500614ee3565b5b9060005260206000200160009054906101000a900473ffffffffffffffffffffffffffffffffffffffff1673ffffffffffffffffffffffffffffffffffffffff1673ffffffffffffffffffffffffffffffffffffffff1681526020019081526020016000205483612f1890919063ffffffff16565b9150808061358390614fa4565b915050613329565b506135a3600a54600b54612e8490919063ffffffff16565b8210156135bb57600b54600a549350935050506135c4565b81819350935050505b9091565b60008060008060006135d98661442d565b905060006135e68761445e565b905060006135f38861448f565b9050600061362e8261362085613612888e612f1890919063ffffffff16565b612f1890919063ffffffff16565b612f1890919063ffffffff16565b9050808484849750975097509750505050509193509193565b600080600080613660858a6144c090919063ffffffff16565b90506000613677868a6144c090919063ffffffff16565b9050600061368e878a6144c090919063ffffffff16565b905060006136a5888a6144c090919063ffffffff16565b905060006136e0826136d2856136c4888a612f1890919063ffffffff16565b612f1890919063ffffffff16565b612f1890919063ffffffff16565b90508481859750975097505050505050955095509592505050565b6000600267ffffffffffffffff81111561371857613717615948565b5b6040519080825280602002602001820160405280156137465781602001602082028036833780820191505090505b509050308160008151811061375e5761375d614ee3565b5b602002602001019073ffffffffffffffffffffffffffffffffffffffff16908173ffffffffffffffffffffffffffffffffffffffff1681525050601660009054906101000a900473ffffffffffffffffffffffffffffffffffffffff1673ffffffffffffffffffffffffffffffffffffffff1663ad5c46486040518163ffffffff1660e01b8152600401602060405180830381865afa158015613805573d6000803e3d6000fd5b505050506040513d601f19601f820116820180604052508101906138299190615093565b8160018151811061383d5761383c614ee3565b5b602002602001019073ffffffffffffffffffffffffffffffffffffffff16908173ffffffffffffffffffffffffffffffffffffffff16815250506138a430601660009054906101000a900473ffffffffffffffffffffffffffffffffffffffff16846128ce565b601660009054906101000a900473ffffffffffffffffffffffffffffffffffffffff1673ffffffffffffffffffffffffffffffffffffffff1663791ac9478360008430426040518663ffffffff1660e01b8152600401613908959493929190615a70565b600060405180830381600087803b15801561392257600080fd5b505af1158015613936573d6000803e3d6000fd5b505050505050565b61396b30601660009054906101000a900473ffffffffffffffffffffffffffffffffffffffff16846128ce565b601660009054906101000a900473ffffffffffffffffffffffffffffffffffffffff1673ffffffffffffffffffffffffffffffffffffffff1663f305d7198230856000806139b7611dd2565b426040518863ffffffff1660e01b81526004016139d996959493929190615aca565b60606040518083038185885af11580156139f7573d6000803e3d6000fd5b50505050506040513d601f19601f82011682018060405250810190613a1c9190615b40565b5050505050565b601054601181905550601254601381905550601454601581905550600060108190555060006012819055506000601481905550565b6000806000806000806000613a6c88612eb0565b9650965096509650965096509650613acc88600460008d73ffffffffffffffffffffffffffffffffffffffff1673ffffffffffffffffffffffffffffffffffffffff16815260200190815260200160002054612f1890919063ffffffff16565b600460008c73ffffffffffffffffffffffffffffffffffffffff1673ffffffffffffffffffffffffffffffffffffffff16815260200190815260200160002081905550613b6187600360008d73ffffffffffffffffffffffffffffffffffffffff1673ffffffffffffffffffffffffffffffffffffffff16815260200190815260200160002054612f1890919063ffffffff16565b600360008c73ffffffffffffffffffffffffffffffffffffffff1673ffffffffffffffffffffffffffffffffffffffff16815260200190815260200160002081905550613bf686600360008c73ffffffffffffffffffffffffffffffffffffffff1673ffffffffffffffffffffffffffffffffffffffff16815260200190815260200160002054612e9a90919063ffffffff16565b600360008b73ffffffffffffffffffffffffffffffffffffffff1673ffffffffffffffffffffffffffffffffffffffff16815260200190815260200160002081905550613c42826144d6565b613c4b8161467b565b613c5585846148ca565b8873ffffffffffffffffffffffffffffffffffffffff168a73ffffffffffffffffffffffffffffffffffffffff167fddf252ad1be2c89b69c2b068fc378daa952ba7f163c4a11628f55a4df523b3ef86604051613cb29190614b2e565b60405180910390a350505050505050505050565b6000806000806000806000613cda88612eb0565b9650965096509650965096509650613d3a87600360008d73ffffffffffffffffffffffffffffffffffffffff1673ffffffffffffffffffffffffffffffffffffffff16815260200190815260200160002054612f1890919063ffffffff16565b600360008c73ffffffffffffffffffffffffffffffffffffffff1673ffffffffffffffffffffffffffffffffffffffff16815260200190815260200160002081905550613dcf84600460008c73ffffffffffffffffffffffffffffffffffffffff1673ffffffffffffffffffffffffffffffffffffffff16815260200190815260200160002054612e9a90919063ffffffff16565b600460008b73ffffffffffffffffffffffffffffffffffffffff1673ffffffffffffffffffffffffffffffffffffffff16815260200190815260200160002081905550613e6486600360008c73ffffffffffffffffffffffffffffffffffffffff1673ffffffffffffffffffffffffffffffffffffffff16815260200190815260200160002054612e9a90919063ffffffff16565b600360008b73ffffffffffffffffffffffffffffffffffffffff1673ffffffffffffffffffffffffffffffffffffffff16815260200190815260200160002081905550613eb0826144d6565b613eb98161467b565b613ec385846148ca565b8873ffffffffffffffffffffffffffffffffffffffff168a73ffffffffffffffffffffffffffffffffffffffff167fddf252ad1be2c89b69c2b068fc378daa952ba7f163c4a11628f55a4df523b3ef86604051613f209190614b2e565b60405180910390a350505050505050505050565b6000806000806000806000613f4888612eb0565b9650965096509650965096509650613fa887600360008d73ffffffffffffffffffffffffffffffffffffffff1673ffffffffffffffffffffffffffffffffffffffff16815260200190815260200160002054612f1890919063ffffffff16565b600360008c73ffffffffffffffffffffffffffffffffffffffff1673ffffffffffffffffffffffffffffffffffffffff1681526020019081526020016000208190555061403d86600360008c73ffffffffffffffffffffffffffffffffffffffff1673ffffffffffffffffffffffffffffffffffffffff16815260200190815260200160002054612e9a90919063ffffffff16565b600360008b73ffffffffffffffffffffffffffffffffffffffff1673ffffffffffffffffffffffffffffffffffffffff16815260200190815260200160002081905550614089826144d6565b6140928161467b565b61409c85846148ca565b8873ffffffffffffffffffffffffffffffffffffffff168a73ffffffffffffffffffffffffffffffffffffffff167fddf252ad1be2c89b69c2b068fc378daa952ba7f163c4a11628f55a4df523b3ef866040516140f99190614b2e565b60405180910390a350505050505050505050565b600080600080600080600061412188612eb0565b965096509650965096509650965061418188600460008d73ffffffffffffffffffffffffffffffffffffffff1673ffffffffffffffffffffffffffffffffffffffff16815260200190815260200160002054612f1890919063ffffffff16565b600460008c73ffffffffffffffffffffffffffffffffffffffff1673ffffffffffffffffffffffffffffffffffffffff1681526020019081526020016000208190555061421687600360008d73ffffffffffffffffffffffffffffffffffffffff1673ffffffffffffffffffffffffffffffffffffffff16815260200190815260200160002054612f1890919063ffffffff16565b600360008c73ffffffffffffffffffffffffffffffffffffffff1673ffffffffffffffffffffffffffffffffffffffff168152602001908152602001600020819055506142ab84600460008c73ffffffffffffffffffffffffffffffffffffffff1673ffffffffffffffffffffffffffffffffffffffff16815260200190815260200160002054612e9a90919063ffffffff16565b600460008b73ffffffffffffffffffffffffffffffffffffffff1673ffffffffffffffffffffffffffffffffffffffff1681526020019081526020016000208190555061434086600360008c73ffffffffffffffffffffffffffffffffffffffff1673ffffffffffffffffffffffffffffffffffffffff16815260200190815260200160002054612e9a90919063ffffffff16565b600360008b73ffffffffffffffffffffffffffffffffffffffff1673ffffffffffffffffffffffffffffffffffffffff1681526020019081526020016000208190555061438c826144d6565b6143958161467b565b61439f85846148ca565b8873ffffffffffffffffffffffffffffffffffffffff168a73ffffffffffffffffffffffffffffffffffffffff167fddf252ad1be2c89b69c2b068fc378daa952ba7f163c4a11628f55a4df523b3ef866040516143fc9190614b2e565b60405180910390a350505050505050505050565b601154601081905550601354601281905550601554601481905550565b60006144576064614449601054856144c090919063ffffffff16565b612e8490919063ffffffff16565b9050919050565b6000614488606461447a601454856144c090919063ffffffff16565b612e8490919063ffffffff16565b9050919050565b60006144b960646144ab601254856144c090919063ffffffff16565b612e8490919063ffffffff16565b9050919050565b600081836144ce919061543d565b905092915050565b60006144e0612e59565b905060006144f782846144c090919063ffffffff16565b905061454b81600360003073ffffffffffffffffffffffffffffffffffffffff1673ffffffffffffffffffffffffffffffffffffffff16815260200190815260200160002054612e9a90919063ffffffff16565b600360003073ffffffffffffffffffffffffffffffffffffffff1673ffffffffffffffffffffffffffffffffffffffff16815260200190815260200160002081905550600760003073ffffffffffffffffffffffffffffffffffffffff1673ffffffffffffffffffffffffffffffffffffffff16815260200190815260200160002060009054906101000a900460ff16156146765761463283600460003073ffffffffffffffffffffffffffffffffffffffff1673ffffffffffffffffffffffffffffffffffffffff16815260200190815260200160002054612e9a90919063ffffffff16565b600460003073ffffffffffffffffffffffffffffffffffffffff1673ffffffffffffffffffffffffffffffffffffffff168152602001908152602001600020819055505b505050565b6000614685612e59565b9050600061469c82846144c090919063ffffffff16565b90506147128160036000600960009054906101000a900473ffffffffffffffffffffffffffffffffffffffff1673ffffffffffffffffffffffffffffffffffffffff1673ffffffffffffffffffffffffffffffffffffffff16815260200190815260200160002054612e9a90919063ffffffff16565b60036000600960009054906101000a900473ffffffffffffffffffffffffffffffffffffffff1673ffffffffffffffffffffffffffffffffffffffff1673ffffffffffffffffffffffffffffffffffffffff1681526020019081526020016000208190555060076000600960009054906101000a900473ffffffffffffffffffffffffffffffffffffffff1673ffffffffffffffffffffffffffffffffffffffff1673ffffffffffffffffffffffffffffffffffffffff16815260200190815260200160002060009054906101000a900460ff16156148c55761485f8360046000600960009054906101000a900473ffffffffffffffffffffffffffffffffffffffff1673ffffffffffffffffffffffffffffffffffffffff1673ffffffffffffffffffffffffffffffffffffffff16815260200190815260200160002054612e9a90919063ffffffff16565b60046000600960009054906101000a900473ffffffffffffffffffffffffffffffffffffffff1673ffffffffffffffffffffffffffffffffffffffff1673ffffffffffffffffffffffffffffffffffffffff168152602001908152602001600020819055505b505050565b6148df82600b54612f1890919063ffffffff16565b600b819055506148fa81600c54612e9a90919063ffffffff16565b600c819055505050565b600080fd5b6000819050919050565b61491c81614909565b811461492757600080fd5b50565b60008135905061493981614913565b92915050565b60006020828403121561495557614954614904565b5b60006149638482850161492a565b91505092915050565b600081519050919050565b600082825260208201905092915050565b60005b838110156149a657808201518184015260208101905061498b565b60008484015250505050565b6000601f19601f8301169050919050565b60006149ce8261496c565b6149d88185614977565b93506149e8818560208601614988565b6149f1816149b2565b840191505092915050565b60006020820190508181036000830152614a1681846149c3565b905092915050565b600073ffffffffffffffffffffffffffffffffffffffff82169050919050565b6000614a4982614a1e565b9050919050565b614a5981614a3e565b8114614a6457600080fd5b50565b600081359050614a7681614a50565b92915050565b60008060408385031215614a9357614a92614904565b5b6000614aa185828601614a67565b9250506020614ab28582860161492a565b9150509250929050565b60008115159050919050565b614ad181614abc565b82525050565b6000602082019050614aec6000830184614ac8565b92915050565b600060208284031215614b0857614b07614904565b5b6000614b1684828501614a67565b91505092915050565b614b2881614909565b82525050565b6000602082019050614b436000830184614b1f565b92915050565b6000819050919050565b6000614b6e614b69614b6484614a1e565b614b49565b614a1e565b9050919050565b6000614b8082614b53565b9050919050565b6000614b9282614b75565b9050919050565b614ba281614b87565b82525050565b6000602082019050614bbd6000830184614b99565b92915050565b600080600060608486031215614bdc57614bdb614904565b5b6000614bea86828701614a67565b9350506020614bfb86828701614a67565b9250506040614c0c8682870161492a565b9150509250925092565b614c1f81614a3e565b82525050565b6000602082019050614c3a6000830184614c16565b92915050565b614c4981614abc565b8114614c5457600080fd5b50565b600081359050614c6681614c40565b92915050565b60008060408385031215614c8357614c82614904565b5b6000614c918582860161492a565b9250506020614ca285828601614c57565b9150509250929050565b600060208284031215614cc257614cc1614904565b5b6000614cd084828501614c57565b91505092915050565b60008060408385031215614cf057614cef614904565b5b6000614cfe85828601614a67565b9250506020614d0f85828601614a67565b9150509250929050565b7f4f776e61626c653a2063616c6c6572206973206e6f7420746865206f776e6572600082015250565b6000614d4f602083614977565b9150614d5a82614d19565b602082019050919050565b60006020820190508181036000830152614d7e81614d42565b9050919050565b7f4e487b7100000000000000000000000000000000000000000000000000000000600052602260045260246000fd5b60006002820490506001821680614dcc57607f821691505b602082108103614ddf57614dde614d85565b5b50919050565b7f416d6f756e74206d757374206265206c657373207468616e20746f74616c207260008201527f65666c656374696f6e7300000000000000000000000000000000000000000000602082015250565b6000614e41602a83614977565b9150614e4c82614de5565b604082019050919050565b60006020820190508181036000830152614e7081614e34565b9050919050565b7f4163636f756e7420697320616c726561647920696e636c756465640000000000600082015250565b6000614ead601b83614977565b9150614eb882614e77565b602082019050919050565b60006020820190508181036000830152614edc81614ea0565b9050919050565b7f4e487b7100000000000000000000000000000000000000000000000000000000600052603260045260246000fd5b7f4e487b7100000000000000000000000000000000000000000000000000000000600052601160045260246000fd5b6000614f4c82614909565b9150614f5783614909565b9250828203905081811115614f6f57614f6e614f12565b5b92915050565b7f4e487b7100000000000000000000000000000000000000000000000000000000600052603160045260246000fd5b6000614faf82614909565b91507fffffffffffffffffffffffffffffffffffffffffffffffffffffffffffffffff8203614fe157614fe0614f12565b5b600182019050919050565b7f4578636c75646564206164647265737365732063616e6e6f742063616c6c207460008201527f6869732066756e6374696f6e0000000000000000000000000000000000000000602082015250565b6000615048602c83614977565b915061505382614fec565b604082019050919050565b600060208201905081810360008301526150778161503b565b9050919050565b60008151905061508d81614a50565b92915050565b6000602082840312156150a9576150a8614904565b5b60006150b78482850161507e565b91505092915050565b60006040820190506150d56000830185614c16565b6150e26020830184614c16565b9392505050565b7f416d6f756e74206d757374206265206c657373207468616e20737570706c7900600082015250565b600061511f601f83614977565b915061512a826150e9565b602082019050919050565b6000602082019050818103600083015261514e81615112565b9050919050565b7f4163636f756e7420697320616c7265616479206578636c756465640000000000600082015250565b600061518b601b83614977565b915061519682615155565b602082019050919050565b600060208201905081810360008301526151ba8161517e565b9050919050565b7f596f7520646f6e27742068617665207065726d697373696f6e20746f20756e6c60008201527f6f636b2e00000000000000000000000000000000000000000000000000000000602082015250565b600061521d602483614977565b9150615228826151c1565b604082019050919050565b6000602082019050818103600083015261524c81615210565b9050919050565b7f436f6e7472616374206973206c6f636b65642e00000000000000000000000000600082015250565b6000615289601383614977565b915061529482615253565b602082019050919050565b600060208201905081810360008301526152b88161527c565b9050919050565b60008160011c9050919050565b6000808291508390505b6001851115615316578086048111156152f2576152f1614f12565b5b60018516156153015780820291505b808102905061530f856152bf565b94506152d6565b94509492505050565b60008261532f57600190506153eb565b8161533d57600090506153eb565b8160018114615353576002811461535d5761538c565b60019150506153eb565b60ff84111561536f5761536e614f12565b5b8360020a91508482111561538657615385614f12565b5b506153eb565b5060208310610133831016604e8410600b84101617156153c15782820a9050838111156153bc576153bb614f12565b5b6153eb565b6153ce84848460016152cc565b925090508184048111156153e5576153e4614f12565b5b81810290505b9392505050565b60006153fd82614909565b915061540883614909565b92506154357fffffffffffffffffffffffffffffffffffffffffffffffffffffffffffffffff848461531f565b905092915050565b600061544882614909565b915061545383614909565b925082820261546181614909565b9150828204841483151761547857615477614f12565b5b5092915050565b7f4f776e61626c653a206e6577206f776e657220697320746865207a65726f206160008201527f6464726573730000000000000000000000000000000000000000000000000000602082015250565b60006154db602683614977565b91506154e68261547f565b604082019050919050565b6000602082019050818103600083015261550a816154ce565b9050919050565b7f45524332303a20617070726f76652066726f6d20746865207a65726f2061646460008201527f7265737300000000000000000000000000000000000000000000000000000000602082015250565b600061556d602483614977565b915061557882615511565b604082019050919050565b6000602082019050818103600083015261559c81615560565b9050919050565b7f45524332303a20617070726f766520746f20746865207a65726f20616464726560008201527f7373000000000000000000000000000000000000000000000000000000000000602082015250565b60006155ff602283614977565b915061560a826155a3565b604082019050919050565b6000602082019050818103600083015261562e816155f2565b9050919050565b7f45524332303a207472616e736665722066726f6d20746865207a65726f20616460008201527f6472657373000000000000000000000000000000000000000000000000000000602082015250565b6000615691602583614977565b915061569c82615635565b604082019050919050565b600060208201905081810360008301526156c081615684565b9050919050565b7f45524332303a207472616e7366657220746f20746865207a65726f206164647260008201527f6573730000000000000000000000000000000000000000000000000000000000602082015250565b6000615723602383614977565b915061572e826156c7565b604082019050919050565b6000602082019050818103600083015261575281615716565b9050919050565b7f5472616e7366657220616d6f756e74206d75737420626520677265617465722060008201527f7468616e207a65726f0000000000000000000000000000000000000000000000602082015250565b60006157b5602983614977565b91506157c082615759565b604082019050919050565b600060208201905081810360008301526157e4816157a8565b9050919050565b7f5472616e7366657220616d6f756e74206578636565647320746865206d61785460008201527f78416d6f756e742e000000000000000000000000000000000000000000000000602082015250565b6000615847602883614977565b9150615852826157eb565b604082019050919050565b600060208201905081810360008301526158768161583a565b9050919050565b7f4e487b7100000000000000000000000000000000000000000000000000000000600052601260045260246000fd5b60006158b782614909565b91506158c283614909565b9250826158d2576158d161587d565b5b828204905092915050565b60006158e882614909565b91506158f383614909565b925082820190508082111561590b5761590a614f12565b5b92915050565b60006060820190506159266000830186614b1f565b6159336020830185614b1f565b6159406040830184614b1f565b949350505050565b7f4e487b7100000000000000000000000000000000000000000000000000000000600052604160045260246000fd5b6000819050919050565b600061599c61599761599284615977565b614b49565b614909565b9050919050565b6159ac81615981565b82525050565b600081519050919050565b600082825260208201905092915050565b6000819050602082019050919050565b6159e781614a3e565b82525050565b60006159f983836159de565b60208301905092915050565b6000602082019050919050565b6000615a1d826159b2565b615a2781856159bd565b9350615a32836159ce565b8060005b83811015615a63578151615a4a88826159ed565b9750615a5583615a05565b925050600181019050615a36565b5085935050505092915050565b600060a082019050615a856000830188614b1f565b615a9260208301876159a3565b8181036040830152615aa48186615a12565b9050615ab36060830185614c16565b615ac06080830184614b1f565b9695505050505050565b600060c082019050615adf6000830189614c16565b615aec6020830188614b1f565b615af960408301876159a3565b615b0660608301866159a3565b615b136080830185614c16565b615b2060a0830184614b1f565b979650505050505050565b600081519050615b3a81614913565b92915050565b600080600060608486031215615b5957615b58614904565b5b6000615b6786828701615b2b565b9350506020615b7886828701615b2b565b9250506040615b8986828701615b2b565b915050925092509256fe45524332303a207472616e7366657220616d6f756e74206578636565647320616c6c6f77616e636545524332303a2064656372656173656420616c6c6f77616e63652062656c6f77207a65726fa2646970667358221220be7699eebdc1ad43e8328fb0f27f878c2b906502d8cac18fdab586a5c5d6d90264736f6c63430008110033",
  "devdoc": {
    "kind": "dev",
    "methods": {},
    "version": 1
  },
  "userdoc": {
    "kind": "user",
    "methods": {},
    "version": 1
  },
  "storageLayout": {
    "storage": [
      {
        "astId": 672,
        "contract": "contracts/FBonk.sol:FBonk",
        "label": "_owner",
        "offset": 0,
        "slot": "0",
        "type": "t_address"
      },
      {
        "astId": 674,
        "contract": "contracts/FBonk.sol:FBonk",
        "label": "_previousOwner",
        "offset": 0,
        "slot": "1",
        "type": "t_address"
      },
      {
        "astId": 676,
        "contract": "contracts/FBonk.sol:FBonk",
        "label": "_lockTime",
        "offset": 0,
        "slot": "2",
        "type": "t_uint256"
      },
      {
        "astId": 1537,
        "contract": "contracts/FBonk.sol:FBonk",
        "label": "_rOwned",
        "offset": 0,
        "slot": "3",
        "type": "t_mapping(t_address,t_uint256)"
      },
      {
        "astId": 1541,
        "contract": "contracts/FBonk.sol:FBonk",
        "label": "_tOwned",
        "offset": 0,
        "slot": "4",
        "type": "t_mapping(t_address,t_uint256)"
      },
      {
        "astId": 1547,
        "contract": "contracts/FBonk.sol:FBonk",
        "label": "_allowances",
        "offset": 0,
        "slot": "5",
        "type": "t_mapping(t_address,t_mapping(t_address,t_uint256))"
      },
      {
        "astId": 1551,
        "contract": "contracts/FBonk.sol:FBonk",
        "label": "_isExcludedFromFee",
        "offset": 0,
        "slot": "6",
        "type": "t_mapping(t_address,t_bool)"
      },
      {
        "astId": 1555,
        "contract": "contracts/FBonk.sol:FBonk",
        "label": "_isExcluded",
        "offset": 0,
        "slot": "7",
        "type": "t_mapping(t_address,t_bool)"
      },
      {
        "astId": 1558,
        "contract": "contracts/FBonk.sol:FBonk",
        "label": "_excluded",
        "offset": 0,
        "slot": "8",
        "type": "t_array(t_address)dyn_storage"
      },
      {
        "astId": 1560,
        "contract": "contracts/FBonk.sol:FBonk",
        "label": "_devWalletAddress",
        "offset": 0,
        "slot": "9",
        "type": "t_address"
      },
      {
        "astId": 1569,
        "contract": "contracts/FBonk.sol:FBonk",
        "label": "_tTotal",
        "offset": 0,
        "slot": "10",
        "type": "t_uint256"
      },
      {
        "astId": 1571,
        "contract": "contracts/FBonk.sol:FBonk",
        "label": "_rTotal",
        "offset": 0,
        "slot": "11",
        "type": "t_uint256"
      },
      {
        "astId": 1573,
        "contract": "contracts/FBonk.sol:FBonk",
        "label": "_tFeeTotal",
        "offset": 0,
        "slot": "12",
        "type": "t_uint256"
      },
      {
        "astId": 1576,
        "contract": "contracts/FBonk.sol:FBonk",
        "label": "_name",
        "offset": 0,
        "slot": "13",
        "type": "t_string_storage"
      },
      {
        "astId": 1579,
        "contract": "contracts/FBonk.sol:FBonk",
        "label": "_symbol",
        "offset": 0,
        "slot": "14",
        "type": "t_string_storage"
      },
      {
        "astId": 1582,
        "contract": "contracts/FBonk.sol:FBonk",
        "label": "_decimals",
        "offset": 0,
        "slot": "15",
        "type": "t_uint256"
      },
      {
        "astId": 1585,
        "contract": "contracts/FBonk.sol:FBonk",
        "label": "_taxFee",
        "offset": 0,
        "slot": "16",
        "type": "t_uint256"
      },
      {
        "astId": 1587,
        "contract": "contracts/FBonk.sol:FBonk",
        "label": "_previousTaxFee",
        "offset": 0,
        "slot": "17",
        "type": "t_uint256"
      },
      {
        "astId": 1590,
        "contract": "contracts/FBonk.sol:FBonk",
        "label": "_devFee",
        "offset": 0,
        "slot": "18",
        "type": "t_uint256"
      },
      {
        "astId": 1592,
        "contract": "contracts/FBonk.sol:FBonk",
        "label": "_previousDevFee",
        "offset": 0,
        "slot": "19",
        "type": "t_uint256"
      },
      {
        "astId": 1595,
        "contract": "contracts/FBonk.sol:FBonk",
        "label": "_liquidityFee",
        "offset": 0,
        "slot": "20",
        "type": "t_uint256"
      },
      {
        "astId": 1597,
        "contract": "contracts/FBonk.sol:FBonk",
        "label": "_previousLiquidityFee",
        "offset": 0,
        "slot": "21",
        "type": "t_uint256"
      },
      {
        "astId": 1600,
        "contract": "contracts/FBonk.sol:FBonk",
        "label": "uniswapV2Router",
        "offset": 0,
        "slot": "22",
        "type": "t_contract(IUniswapV2Router02)1521"
      },
      {
        "astId": 1603,
        "contract": "contracts/FBonk.sol:FBonk",
        "label": "routerAddress",
        "offset": 0,
        "slot": "23",
        "type": "t_address"
      },
      {
        "astId": 1605,
        "contract": "contracts/FBonk.sol:FBonk",
        "label": "uniswapV2Pair",
        "offset": 0,
        "slot": "24",
        "type": "t_address"
      },
      {
        "astId": 1607,
        "contract": "contracts/FBonk.sol:FBonk",
        "label": "inSwapAndLiquify",
        "offset": 20,
        "slot": "24",
        "type": "t_bool"
      },
      {
        "astId": 1610,
        "contract": "contracts/FBonk.sol:FBonk",
        "label": "swapAndLiquifyEnabled",
        "offset": 21,
        "slot": "24",
        "type": "t_bool"
      },
      {
        "astId": 1612,
        "contract": "contracts/FBonk.sol:FBonk",
        "label": "_maxTxAmount",
        "offset": 0,
        "slot": "25",
        "type": "t_uint256"
      },
      {
        "astId": 1614,
        "contract": "contracts/FBonk.sol:FBonk",
        "label": "numTokensSellToAddToLiquidity",
        "offset": 0,
        "slot": "26",
        "type": "t_uint256"
      }
    ],
    "types": {
      "t_address": {
        "encoding": "inplace",
        "label": "address",
        "numberOfBytes": "20"
      },
      "t_array(t_address)dyn_storage": {
        "base": "t_address",
        "encoding": "dynamic_array",
        "label": "address[]",
        "numberOfBytes": "32"
      },
      "t_bool": {
        "encoding": "inplace",
        "label": "bool",
        "numberOfBytes": "1"
      },
      "t_contract(IUniswapV2Router02)1521": {
        "encoding": "inplace",
        "label": "contract IUniswapV2Router02",
        "numberOfBytes": "20"
      },
      "t_mapping(t_address,t_bool)": {
        "encoding": "mapping",
        "key": "t_address",
        "label": "mapping(address => bool)",
        "numberOfBytes": "32",
        "value": "t_bool"
      },
      "t_mapping(t_address,t_mapping(t_address,t_uint256))": {
        "encoding": "mapping",
        "key": "t_address",
        "label": "mapping(address => mapping(address => uint256))",
        "numberOfBytes": "32",
        "value": "t_mapping(t_address,t_uint256)"
      },
      "t_mapping(t_address,t_uint256)": {
        "encoding": "mapping",
        "key": "t_address",
        "label": "mapping(address => uint256)",
        "numberOfBytes": "32",
        "value": "t_uint256"
      },
      "t_string_storage": {
        "encoding": "bytes",
        "label": "string",
        "numberOfBytes": "32"
      },
      "t_uint256": {
        "encoding": "inplace",
        "label": "uint256",
        "numberOfBytes": "32"
      }
    }
  }
}