{
  "address": "0x6316001a0cdf646ef1e2d5d708a8e29ed95941ef",
  "abi": [
    {
      "inputs": [
        {
          "internalType": "address",
          "name": "router",
          "type": "address"
        },
        {
          "internalType": "string",
          "name": "tokenName",
          "type": "string"
        },
        {
          "internalType": "string",
          "name": "tokenSymbol",
          "type": "string"
        }
      ],
      "stateMutability": "payable",
      "type": "constructor"
    },
    {
      "anonymous": false,
      "inputs": [
        {
          "indexed": true,
          "internalType": "address",
          "name": "owner",
          "type": "address"
        },
        {
          "indexed": true,
          "internalType": "address",
          "name": "spender",
          "type": "address"
        },
        {
          "indexed": false,
          "internalType": "uint256",
          "name": "value",
          "type": "uint256"
        }
      ],
      "name": "Approval",
      "type": "event"
    },
    {
      "anonymous": false,
      "inputs": [
        {
          "indexed": false,
          "internalType": "uint256",
          "name": "minTokensBeforeSwap",
          "type": "uint256"
        }
      ],
      "name": "MinTokensBeforeSwapUpdated",
      "type": "event"
    },
    {
      "anonymous": false,
      "inputs": [
        {
          "indexed": true,
          "internalType": "address",
          "name": "previousOwner",
          "type": "address"
        },
        {
          "indexed": true,
          "internalType": "address",
          "name": "newOwner",
          "type": "address"
        }
      ],
      "name": "OwnershipTransferred",
      "type": "event"
    },
    {
      "anonymous": false,
      "inputs": [
        {
          "indexed": false,
          "internalType": "uint256",
          "name": "tokensSwapped",
          "type": "uint256"
        },
        {
          "indexed": false,
          "internalType": "uint256",
          "name": "ethReceived",
          "type": "uint256"
        },
        {
          "indexed": false,
          "internalType": "uint256",
          "name": "tokensIntoLiqudity",
          "type": "uint256"
        }
      ],
      "name": "SwapAndLiquify",
      "type": "event"
    },
    {
      "anonymous": false,
      "inputs": [
        {
          "indexed": false,
          "internalType": "bool",
          "name": "enabled",
          "type": "bool"
        }
      ],
      "name": "SwapAndLiquifyEnabledUpdated",
      "type": "event"
    },
    {
      "anonymous": false,
      "inputs": [
        {
          "indexed": true,
          "internalType": "address",
          "name": "from",
          "type": "address"
        },
        {
          "indexed": true,
          "internalType": "address",
          "name": "to",
          "type": "address"
        },
        {
          "indexed": false,
          "internalType": "uint256",
          "name": "value",
          "type": "uint256"
        }
      ],
      "name": "Transfer",
      "type": "event"
    },
    {
      "inputs": [],
      "name": "_devFee",
      "outputs": [
        {
          "internalType": "uint256",
          "name": "",
          "type": "uint256"
        }
      ],
      "stateMutability": "view",
      "type": "function"
    },
    {
      "inputs": [],
      "name": "_devWalletAddress",
      "outputs": [
        {
          "internalType": "address",
          "name": "",
          "type": "address"
        }
      ],
      "stateMutability": "view",
      "type": "function"
    },
    {
      "inputs": [],
      "name": "_liquidityFee",
      "outputs": [
        {
          "internalType": "uint256",
          "name": "",
          "type": "uint256"
        }
      ],
      "stateMutability": "view",
      "type": "function"
    },
    {
      "inputs": [],
      "name": "_maxTxAmount",
      "outputs": [
        {
          "internalType": "uint256",
          "name": "",
          "type": "uint256"
        }
      ],
      "stateMutability": "view",
      "type": "function"
    },
    {
      "inputs": [],
      "name": "_taxFee",
      "outputs": [
        {
          "internalType": "uint256",
          "name": "",
          "type": "uint256"
        }
      ],
      "stateMutability": "view",
      "type": "function"
    },
    {
      "inputs": [
        {
          "internalType": "address",
          "name": "owner",
          "type": "address"
        },
        {
          "internalType": "address",
          "name": "spender",
          "type": "address"
        }
      ],
      "name": "allowance",
      "outputs": [
        {
          "internalType": "uint256",
          "name": "",
          "type": "uint256"
        }
      ],
      "stateMutability": "view",
      "type": "function"
    },
    {
      "inputs": [
        {
          "internalType": "address",
          "name": "spender",
          "type": "address"
        },
        {
          "internalType": "uint256",
          "name": "amount",
          "type": "uint256"
        }
      ],
      "name": "approve",
      "outputs": [
        {
          "internalType": "bool",
          "name": "",
          "type": "bool"
        }
      ],
      "stateMutability": "nonpayable",
      "type": "function"
    },
    {
      "inputs": [
        {
          "internalType": "address",
          "name": "account",
          "type": "address"
        }
      ],
      "name": "balanceOf",
      "outputs": [
        {
          "internalType": "uint256",
          "name": "",
          "type": "uint256"
        }
      ],
      "stateMutability": "view",
      "type": "function"
    },
    {
      "inputs": [],
      "name": "decimals",
      "outputs": [
        {
          "internalType": "uint256",
          "name": "",
          "type": "uint256"
        }
      ],
      "stateMutability": "view",
      "type": "function"
    },
    {
      "inputs": [
        {
          "internalType": "address",
          "name": "spender",
          "type": "address"
        },
        {
          "internalType": "uint256",
          "name": "subtractedValue",
          "type": "uint256"
        }
      ],
      "name": "decreaseAllowance",
      "outputs": [
        {
          "internalType": "bool",
          "name": "",
          "type": "bool"
        }
      ],
      "stateMutability": "nonpayable",
      "type": "function"
    },
    {
      "inputs": [
        {
          "internalType": "uint256",
          "name": "tAmount",
          "type": "uint256"
        }
      ],
      "name": "deliver",
      "outputs": [],
      "stateMutability": "nonpayable",
      "type": "function"
    },
    {
      "inputs": [
        {
          "internalType": "address",
          "name": "account",
          "type": "address"
        }
      ],
      "name": "excludeFromFee",
      "outputs": [],
      "stateMutability": "nonpayable",
      "type": "function"
    },
    {
      "inputs": [
        {
          "internalType": "address",
          "name": "account",
          "type": "address"
        }
      ],
      "name": "excludeFromReward",
      "outputs": [],
      "stateMutability": "nonpayable",
      "type": "function"
    },
    {
      "inputs": [
        {
          "internalType": "address",
          "name": "account",
          "type": "address"
        }
      ],
      "name": "includeInFee",
      "outputs": [],
      "stateMutability": "nonpayable",
      "type": "function"
    },
    {
      "inputs": [
        {
          "internalType": "address",
          "name": "account",
          "type": "address"
        }
      ],
      "name": "includeInReward",
      "outputs": [],
      "stateMutability": "nonpayable",
      "type": "function"
    },
    {
      "inputs": [
        {
          "internalType": "address",
          "name": "spender",
          "type": "address"
        },
        {
          "internalType": "uint256",
          "name": "addedValue",
          "type": "uint256"
        }
      ],
      "name": "increaseAllowance",
      "outputs": [
        {
          "internalType": "bool",
          "name": "",
          "type": "bool"
        }
      ],
      "stateMutability": "nonpayable",
      "type": "function"
    },
    {
      "inputs": [
        {
          "internalType": "address",
          "name": "account",
          "type": "address"
        }
      ],
      "name": "isExcludedFromFee",
      "outputs": [
        {
          "internalType": "bool",
          "name": "",
          "type": "bool"
        }
      ],
      "stateMutability": "view",
      "type": "function"
    },
    {
      "inputs": [
        {
          "internalType": "address",
          "name": "account",
          "type": "address"
        }
      ],
      "name": "isExcludedFromReward",
      "outputs": [
        {
          "internalType": "bool",
          "name": "",
          "type": "bool"
        }
      ],
      "stateMutability": "view",
      "type": "function"
    },
    {
      "inputs": [],
      "name": "name",
      "outputs": [
        {
          "internalType": "string",
          "name": "",
          "type": "string"
        }
      ],
      "stateMutability": "view",
      "type": "function"
    },
    {
      "inputs": [],
      "name": "numTokensSellToAddToLiquidity",
      "outputs": [
        {
          "internalType": "uint256",
          "name": "",
          "type": "uint256"
        }
      ],
      "stateMutability": "view",
      "type": "function"
    },
    {
      "inputs": [],
      "name": "owner",
      "outputs": [
        {
          "internalType": "address",
          "name": "",
          "type": "address"
        }
      ],
      "stateMutability": "view",
      "type": "function"
    },
    {
      "inputs": [
        {
          "internalType": "uint256",
          "name": "tAmount",
          "type": "uint256"
        },
        {
          "internalType": "bool",
          "name": "deductTransferFee",
          "type": "bool"
        }
      ],
      "name": "reflectionFromToken",
      "outputs": [
        {
          "internalType": "uint256",
          "name": "",
          "type": "uint256"
        }
      ],
      "stateMutability": "view",
      "type": "function"
    },
    {
      "inputs": [],
      "name": "renounceOwnership",
      "outputs": [],
      "stateMutability": "nonpayable",
      "type": "function"
    },
    {
      "inputs": [
        {
          "internalType": "uint256",
          "name": "devFee",
          "type": "uint256"
        }
      ],
      "name": "setDevFeePercent",
      "outputs": [],
      "stateMutability": "nonpayable",
      "type": "function"
    },
    {
      "inputs": [
        {
          "internalType": "address",
          "name": "_addr",
          "type": "address"
        }
      ],
      "name": "setDevWalletAddress",
      "outputs": [],
      "stateMutability": "nonpayable",
      "type": "function"
    },
    {
      "inputs": [
        {
          "internalType": "uint256",
          "name": "liquidityFee",
          "type": "uint256"
        }
      ],
      "name": "setLiquidityFeePercent",
      "outputs": [],
      "stateMutability": "nonpayable",
      "type": "function"
    },
    {
      "inputs": [
        {
          "internalType": "uint256",
          "name": "maxTxPercent",
          "type": "uint256"
        }
      ],
      "name": "setMaxTxPercent",
      "outputs": [],
      "stateMutability": "nonpayable",
      "type": "function"
    },
    {
      "inputs": [
        {
          "internalType": "uint256",
          "name": "amountToUpdate",
          "type": "uint256"
        }
      ],
      "name": "setNumTokensSellToAddToLiquidity",
      "outputs": [],
      "stateMutability": "nonpayable",
      "type": "function"
    },
    {
      "inputs": [
        {
          "internalType": "address",
          "name": "newRouter",
          "type": "address"
        }
      ],
      "name": "setRouterAddress",
      "outputs": [],
      "stateMutability": "nonpayable",
      "type": "function"
    },
    {
      "inputs": [
        {
          "internalType": "bool",
          "name": "_enabled",
          "type": "bool"
        }
      ],
      "name": "setSwapAndLiquifyEnabled",
      "outputs": [],
      "stateMutability": "nonpayable",
      "type": "function"
    },
    {
      "inputs": [
        {
          "internalType": "uint256",
          "name": "taxFee",
          "type": "uint256"
        }
      ],
      "name": "setTaxFeePercent",
      "outputs": [],
      "stateMutability": "nonpayable",
      "type": "function"
    },
    {
      "inputs": [],
      "name": "swapAndLiquifyEnabled",
      "outputs": [
        {
          "internalType": "bool",
          "name": "",
          "type": "bool"
        }
      ],
      "stateMutability": "view",
      "type": "function"
    },
    {
      "inputs": [],
      "name": "symbol",
      "outputs": [
        {
          "internalType": "string",
          "name": "",
          "type": "string"
        }
      ],
      "stateMutability": "view",
      "type": "function"
    },
    {
      "inputs": [
        {
          "internalType": "uint256",
          "name": "rAmount",
          "type": "uint256"
        }
      ],
      "name": "tokenFromReflection",
      "outputs": [
        {
          "internalType": "uint256",
          "name": "",
          "type": "uint256"
        }
      ],
      "stateMutability": "view",
      "type": "function"
    },
    {
      "inputs": [],
      "name": "totalFees",
      "outputs": [
        {
          "internalType": "uint256",
          "name": "",
          "type": "uint256"
        }
      ],
      "stateMutability": "view",
      "type": "function"
    },
    {
      "inputs": [],
      "name": "totalSupply",
      "outputs": [
        {
          "internalType": "uint256",
          "name": "",
          "type": "uint256"
        }
      ],
      "stateMutability": "view",
      "type": "function"
    },
    {
      "inputs": [
        {
          "internalType": "address",
          "name": "recipient",
          "type": "address"
        },
        {
          "internalType": "uint256",
          "name": "amount",
          "type": "uint256"
        }
      ],
      "name": "transfer",
      "outputs": [
        {
          "internalType": "bool",
          "name": "",
          "type": "bool"
        }
      ],
      "stateMutability": "nonpayable",
      "type": "function"
    },
    {
      "inputs": [
        {
          "internalType": "address",
          "name": "sender",
          "type": "address"
        },
        {
          "internalType": "address",
          "name": "recipient",
          "type": "address"
        },
        {
          "internalType": "uint256",
          "name": "amount",
          "type": "uint256"
        }
      ],
      "name": "transferFrom",
      "outputs": [
        {
          "internalType": "bool",
          "name": "",
          "type": "bool"
        }
      ],
      "stateMutability": "nonpayable",
      "type": "function"
    },
    {
      "inputs": [
        {
          "internalType": "address",
          "name": "newOwner",
          "type": "address"
        }
      ],
      "name": "transferOwnership",
      "outputs": [],
      "stateMutability": "nonpayable",
      "type": "function"
    },
    {
      "inputs": [],
      "name": "uniswapV2Pair",
      "outputs": [
        {
          "internalType": "address",
          "name": "",
          "type": "address"
        }
      ],
      "stateMutability": "view",
      "type": "function"
    },
    {
      "inputs": [],
      "name": "uniswapV2Router",
      "outputs": [
        {
          "internalType": "contract IUniswapV2Router02",
          "name": "",
          "type": "address"
        }
      ],
      "stateMutability": "view",
      "type": "function"
    },
    {
      "stateMutability": "payable",
      "type": "receive"
    }
  ],
  "transactionHash": "0x5fe85675c54bc6488c8e13c0a1a198efccbc68bbffd1be58cef193716c7faff5",
  "args": [
    "0xF491e7B69E4244ad4002BC14e878a34207E38c29",
    "FBonk",
    "FBONK"
  ],
  "numDeployments": 2,
  "solcInputHash": "3ee786da65b07118f1949985259ece0b",
  "bytecode": "0x608060405260016015806101000a81548160ff02191690831515021790555060405162005ce838038062005ce88339818101604052810190620000439190620007f1565b62000063620000576200050460201b60201c565b6200050c60201b60201c565b600062000075620005d060201b60201c565b905082600b908162000088919062000ad6565b5081600c90816200009a919062000ad6565b506009600d81905550670de0b6b3a7640000600881905550600854600019620000c4919062000bec565b600019620000d3919062000c53565b6009819055506003600e819055506003601281905550600e54600f81905550600060108190555060105460118190555060125460138190555066071afd498d000060168190555063ee6b280060178190555080600760006101000a81548173ffffffffffffffffffffffffffffffffffffffff021916908373ffffffffffffffffffffffffffffffffffffffff160217905550600954600160008373ffffffffffffffffffffffffffffffffffffffff1673ffffffffffffffffffffffffffffffffffffffff1681526020019081526020016000208190555060008490508073ffffffffffffffffffffffffffffffffffffffff1663c45a01556040518163ffffffff1660e01b8152600401602060405180830381865afa158015620001fd573d6000803e3d6000fd5b505050506040513d601f19601f8201168201806040525081019062000223919062000c8e565b73ffffffffffffffffffffffffffffffffffffffff1663c9c65396308373ffffffffffffffffffffffffffffffffffffffff1663ad5c46486040518163ffffffff1660e01b8152600401602060405180830381865afa1580156200028b573d6000803e3d6000fd5b505050506040513d601f19601f82011682018060405250810190620002b1919062000c8e565b6040518363ffffffff1660e01b8152600401620002d092919062000cd1565b6020604051808303816000875af1158015620002f0573d6000803e3d6000fd5b505050506040513d601f19601f8201168201806040525081019062000316919062000c8e565b601560006101000a81548173ffffffffffffffffffffffffffffffffffffffff021916908373ffffffffffffffffffffffffffffffffffffffff16021790555080601460006101000a81548173ffffffffffffffffffffffffffffffffffffffff021916908373ffffffffffffffffffffffffffffffffffffffff1602179055506001600460008473ffffffffffffffffffffffffffffffffffffffff1673ffffffffffffffffffffffffffffffffffffffff16815260200190815260200160002060006101000a81548160ff0219169083151502179055506001600460003073ffffffffffffffffffffffffffffffffffffffff1673ffffffffffffffffffffffffffffffffffffffff16815260200190815260200160002060006101000a81548160ff0219169083151502179055508173ffffffffffffffffffffffffffffffffffffffff166108fc349081150290604051600060405180830381858888f193505050501580156200048e573d6000803e3d6000fd5b508173ffffffffffffffffffffffffffffffffffffffff16600073ffffffffffffffffffffffffffffffffffffffff167fddf252ad1be2c89b69c2b068fc378daa952ba7f163c4a11628f55a4df523b3ef600854604051620004f1919062000d0f565b60405180910390a3505050505062000d2c565b600033905090565b60008060009054906101000a900473ffffffffffffffffffffffffffffffffffffffff169050816000806101000a81548173ffffffffffffffffffffffffffffffffffffffff021916908373ffffffffffffffffffffffffffffffffffffffff1602179055508173ffffffffffffffffffffffffffffffffffffffff168173ffffffffffffffffffffffffffffffffffffffff167f8be0079c531659141344cd1fd0a4f28419497f9722a3daafe3b4186f6b6457e060405160405180910390a35050565b60008060009054906101000a900473ffffffffffffffffffffffffffffffffffffffff16905090565b6000604051905090565b600080fd5b600080fd5b600073ffffffffffffffffffffffffffffffffffffffff82169050919050565b60006200063a826200060d565b9050919050565b6200064c816200062d565b81146200065857600080fd5b50565b6000815190506200066c8162000641565b92915050565b600080fd5b600080fd5b6000601f19601f8301169050919050565b7f4e487b7100000000000000000000000000000000000000000000000000000000600052604160045260246000fd5b620006c7826200067c565b810181811067ffffffffffffffff82111715620006e957620006e86200068d565b5b80604052505050565b6000620006fe620005f9565b90506200070c8282620006bc565b919050565b600067ffffffffffffffff8211156200072f576200072e6200068d565b5b6200073a826200067c565b9050602081019050919050565b60005b83811015620007675780820151818401526020810190506200074a565b60008484015250505050565b60006200078a620007848462000711565b620006f2565b905082815260208101848484011115620007a957620007a862000677565b5b620007b684828562000747565b509392505050565b600082601f830112620007d657620007d562000672565b5b8151620007e884826020860162000773565b91505092915050565b6000806000606084860312156200080d576200080c62000603565b5b60006200081d868287016200065b565b935050602084015167ffffffffffffffff81111562000841576200084062000608565b5b6200084f86828701620007be565b925050604084015167ffffffffffffffff81111562000873576200087262000608565b5b6200088186828701620007be565b9150509250925092565b600081519050919050565b7f4e487b7100000000000000000000000000000000000000000000000000000000600052602260045260246000fd5b60006002820490506001821680620008de57607f821691505b602082108103620008f457620008f362000896565b5b50919050565b60008190508160005260206000209050919050565b60006020601f8301049050919050565b600082821b905092915050565b6000600883026200095e7fffffffffffffffffffffffffffffffffffffffffffffffffffffffffffffffff826200091f565b6200096a86836200091f565b95508019841693508086168417925050509392505050565b6000819050919050565b6000819050919050565b6000620009b7620009b1620009ab8462000982565b6200098c565b62000982565b9050919050565b6000819050919050565b620009d38362000996565b620009eb620009e282620009be565b8484546200092c565b825550505050565b600090565b62000a02620009f3565b62000a0f818484620009c8565b505050565b5b8181101562000a375762000a2b600082620009f8565b60018101905062000a15565b5050565b601f82111562000a865762000a5081620008fa565b62000a5b846200090f565b8101602085101562000a6b578190505b62000a8362000a7a856200090f565b83018262000a14565b50505b505050565b600082821c905092915050565b600062000aab6000198460080262000a8b565b1980831691505092915050565b600062000ac6838362000a98565b9150826002028217905092915050565b62000ae1826200088b565b67ffffffffffffffff81111562000afd5762000afc6200068d565b5b62000b098254620008c5565b62000b1682828562000a3b565b600060209050601f83116001811462000b4e576000841562000b39578287015190505b62000b45858262000ab8565b86555062000bb5565b601f19841662000b5e86620008fa565b60005b8281101562000b885784890151825560018201915060208501945060208101905062000b61565b8683101562000ba8578489015162000ba4601f89168262000a98565b8355505b6001600288020188555050505b505050505050565b7f4e487b7100000000000000000000000000000000000000000000000000000000600052601260045260246000fd5b600062000bf98262000982565b915062000c068362000982565b92508262000c195762000c1862000bbd565b5b828206905092915050565b7f4e487b7100000000000000000000000000000000000000000000000000000000600052601160045260246000fd5b600062000c608262000982565b915062000c6d8362000982565b925082820390508181111562000c885762000c8762000c24565b5b92915050565b60006020828403121562000ca75762000ca662000603565b5b600062000cb7848285016200065b565b91505092915050565b62000ccb816200062d565b82525050565b600060408201905062000ce8600083018562000cc0565b62000cf7602083018462000cc0565b9392505050565b62000d098162000982565b82525050565b600060208201905062000d26600083018462000cfe565b92915050565b614fac8062000d3c6000396000f3fe60806040526004361061024a5760003560e01c806352390c0211610139578063a457c2d7116100b6578063d12a76881161007a578063d12a7688146108c3578063d543dbeb146108ee578063dd62ed3e14610917578063ea2f0b3714610954578063f0f165af1461097d578063f2fde38b146109a657610251565b8063a457c2d7146107ca578063a9059cbb14610807578063aa45026b14610844578063b425bac31461086f578063c49b9a801461089a57610251565b80637d1db4a5116100fd5780637d1db4a5146106e357806388f820201461070e5780638da5cb5b1461074b5780638ee88c531461077657806395d89b411461079f57610251565b806352390c02146105fe5780635342acb4146106275780636bc87c3a1461066457806370a082311461068f578063715018a6146106cc57610251565b80633685d419116101c757806341cb87fc1161018b57806341cb87fc14610519578063437823ec146105425780634549b0391461056b57806349bd5a5e146105a85780634a74bb02146105d357610251565b80633685d41914610436578063379e29191461045f57806339509351146104885780633b124fe7146104c55780633bd5d173146104f057610251565b80631694505e1161020e5780631694505e1461033b57806318160ddd1461036657806323b872dd146103915780632d838119146103ce578063313ce5671461040b57610251565b8063061c82d01461025657806306fdde031461027f578063095ea7b3146102aa578063120a0612146102e757806313114a9d1461031057610251565b3661025157005b600080fd5b34801561026257600080fd5b5061027d60048036038101906102789190613cfc565b6109cf565b005b34801561028b57600080fd5b506102946109e1565b6040516102a19190613db9565b60405180910390f35b3480156102b657600080fd5b506102d160048036038101906102cc9190613e39565b610a73565b6040516102de9190613e94565b60405180910390f35b3480156102f357600080fd5b5061030e60048036038101906103099190613eaf565b610a8a565b005b34801561031c57600080fd5b50610325610ad6565b6040516103329190613eeb565b60405180910390f35b34801561034757600080fd5b50610350610ae0565b60405161035d9190613f65565b60405180910390f35b34801561037257600080fd5b5061037b610b06565b6040516103889190613eeb565b60405180910390f35b34801561039d57600080fd5b506103b860048036038101906103b39190613f80565b610b10565b6040516103c59190613e94565b60405180910390f35b3480156103da57600080fd5b506103f560048036038101906103f09190613cfc565b610c79565b6040516104029190613eeb565b60405180910390f35b34801561041757600080fd5b50610420610ce0565b60405161042d9190613eeb565b60405180910390f35b34801561044257600080fd5b5061045d60048036038101906104589190613eaf565b610cea565b005b34801561046b57600080fd5b5061048660048036038101906104819190613cfc565b610fab565b005b34801561049457600080fd5b506104af60048036038101906104aa9190613e39565b610fbd565b6040516104bc9190613e94565b60405180910390f35b3480156104d157600080fd5b506104da61105b565b6040516104e79190613eeb565b60405180910390f35b3480156104fc57600080fd5b5061051760048036038101906105129190613cfc565b611061565b005b34801561052557600080fd5b50610540600480360381019061053b9190613eaf565b6111bb565b005b34801561054e57600080fd5b5061056960048036038101906105649190613eaf565b6113a7565b005b34801561057757600080fd5b50610592600480360381019061058d9190613fff565b61140a565b60405161059f9190613eeb565b60405180910390f35b3480156105b457600080fd5b506105bd611490565b6040516105ca919061404e565b60405180910390f35b3480156105df57600080fd5b506105e86114b6565b6040516105f59190613e94565b60405180910390f35b34801561060a57600080fd5b5061062560048036038101906106209190613eaf565b6114c7565b005b34801561063357600080fd5b5061064e60048036038101906106499190613eaf565b6116ee565b60405161065b9190613e94565b60405180910390f35b34801561067057600080fd5b50610679611744565b6040516106869190613eeb565b60405180910390f35b34801561069b57600080fd5b506106b660048036038101906106b19190613eaf565b61174a565b6040516106c39190613eeb565b60405180910390f35b3480156106d857600080fd5b506106e1611835565b005b3480156106ef57600080fd5b506106f8611849565b6040516107059190613eeb565b60405180910390f35b34801561071a57600080fd5b5061073560048036038101906107309190613eaf565b61184f565b6040516107429190613e94565b60405180910390f35b34801561075757600080fd5b506107606118a5565b60405161076d919061404e565b60405180910390f35b34801561078257600080fd5b5061079d60048036038101906107989190613cfc565b6118ce565b005b3480156107ab57600080fd5b506107b46118e0565b6040516107c19190613db9565b60405180910390f35b3480156107d657600080fd5b506107f160048036038101906107ec9190613e39565b611972565b6040516107fe9190613e94565b60405180910390f35b34801561081357600080fd5b5061082e60048036038101906108299190613e39565b611acf565b60405161083b9190613e94565b60405180910390f35b34801561085057600080fd5b50610859611ae6565b6040516108669190613eeb565b60405180910390f35b34801561087b57600080fd5b50610884611aec565b604051610891919061404e565b60405180910390f35b3480156108a657600080fd5b506108c160048036038101906108bc9190614069565b611b12565b005b3480156108cf57600080fd5b506108d8611b6d565b6040516108e59190613eeb565b60405180910390f35b3480156108fa57600080fd5b5061091560048036038101906109109190613cfc565b611b73565b005b34801561092357600080fd5b5061093e60048036038101906109399190614096565b611b9e565b60405161094b9190613eeb565b60405180910390f35b34801561096057600080fd5b5061097b60048036038101906109769190613eaf565b611c25565b005b34801561098957600080fd5b506109a4600480360381019061099f9190613cfc565b611c88565b005b3480156109b257600080fd5b506109cd60048036038101906109c89190613eaf565b611c9a565b005b6109d7611d1d565b80600e8190555050565b6060600b80546109f090614105565b80601f0160208091040260200160405190810160405280929190818152602001828054610a1c90614105565b8015610a695780601f10610a3e57610100808354040283529160200191610a69565b820191906000526020600020905b815481529060010190602001808311610a4c57829003601f168201915b5050505050905090565b6000610a80338484611d9b565b6001905092915050565b610a92611d1d565b80600760006101000a81548173ffffffffffffffffffffffffffffffffffffffff021916908373ffffffffffffffffffffffffffffffffffffffff16021790555050565b6000600a54905090565b601460009054906101000a900473ffffffffffffffffffffffffffffffffffffffff1681565b6000600854905090565b6000600360008573ffffffffffffffffffffffffffffffffffffffff1673ffffffffffffffffffffffffffffffffffffffff16815260200190815260200160002060003373ffffffffffffffffffffffffffffffffffffffff1673ffffffffffffffffffffffffffffffffffffffff16815260200190815260200160002054821115610bd1576040517f08c379a0000000000000000000000000000000000000000000000000000000008152600401610bc8906141a8565b60405180910390fd5b610bdc848484611f64565b610c6e843384600360008973ffffffffffffffffffffffffffffffffffffffff1673ffffffffffffffffffffffffffffffffffffffff16815260200190815260200160002060003373ffffffffffffffffffffffffffffffffffffffff1673ffffffffffffffffffffffffffffffffffffffff16815260200190815260200160002054610c6991906141f7565b611d9b565b600190509392505050565b6000600954821115610cc0576040517f08c379a0000000000000000000000000000000000000000000000000000000008152600401610cb79061429d565b60405180910390fd5b6000610cca6122cf565b90508083610cd891906142ec565b915050919050565b6000600d54905090565b610cf2611d1d565b600560008273ffffffffffffffffffffffffffffffffffffffff1673ffffffffffffffffffffffffffffffffffffffff16815260200190815260200160002060009054906101000a900460ff16610d7e576040517f08c379a0000000000000000000000000000000000000000000000000000000008152600401610d7590614369565b60405180910390fd5b60005b600680549050811015610fa7578173ffffffffffffffffffffffffffffffffffffffff1660068281548110610db957610db8614389565b5b9060005260206000200160009054906101000a900473ffffffffffffffffffffffffffffffffffffffff1673ffffffffffffffffffffffffffffffffffffffff1603610f945760066001600680549050610e1391906141f7565b81548110610e2457610e23614389565b5b9060005260206000200160009054906101000a900473ffffffffffffffffffffffffffffffffffffffff1660068281548110610e6357610e62614389565b5b9060005260206000200160006101000a81548173ffffffffffffffffffffffffffffffffffffffff021916908373ffffffffffffffffffffffffffffffffffffffff1602179055506000600260008473ffffffffffffffffffffffffffffffffffffffff1673ffffffffffffffffffffffffffffffffffffffff168152602001908152602001600020819055506000600560008473ffffffffffffffffffffffffffffffffffffffff1673ffffffffffffffffffffffffffffffffffffffff16815260200190815260200160002060006101000a81548160ff0219169083151502179055506006805480610f5a57610f596143b8565b5b6001900381819060005260206000200160006101000a81549073ffffffffffffffffffffffffffffffffffffffff02191690559055610fa7565b8080610f9f906143e7565b915050610d81565b5050565b610fb3611d1d565b8060108190555050565b6000611051338484600360003373ffffffffffffffffffffffffffffffffffffffff1673ffffffffffffffffffffffffffffffffffffffff16815260200190815260200160002060008873ffffffffffffffffffffffffffffffffffffffff1673ffffffffffffffffffffffffffffffffffffffff1681526020019081526020016000205461104c919061442f565b611d9b565b6001905092915050565b600e5481565b600560003373ffffffffffffffffffffffffffffffffffffffff1673ffffffffffffffffffffffffffffffffffffffff16815260200190815260200160002060009054906101000a900460ff16156110ee576040517f08c379a00000000000000000000000000000000000000000000000000000000081526004016110e5906144d5565b60405180910390fd5b60006110f9826122f3565b505050505050905080600160003373ffffffffffffffffffffffffffffffffffffffff1673ffffffffffffffffffffffffffffffffffffffff1681526020019081526020016000205461114c91906141f7565b600160003373ffffffffffffffffffffffffffffffffffffffff1673ffffffffffffffffffffffffffffffffffffffff168152602001908152602001600020819055508060095461119d91906141f7565b60098190555081600a546111b1919061442f565b600a819055505050565b6111c3611d1d565b60008190508073ffffffffffffffffffffffffffffffffffffffff1663c45a01556040518163ffffffff1660e01b8152600401602060405180830381865afa158015611213573d6000803e3d6000fd5b505050506040513d601f19601f82011682018060405250810190611237919061450a565b73ffffffffffffffffffffffffffffffffffffffff1663c9c65396308373ffffffffffffffffffffffffffffffffffffffff1663ad5c46486040518163ffffffff1660e01b8152600401602060405180830381865afa15801561129e573d6000803e3d6000fd5b505050506040513d601f19601f820116820180604052508101906112c2919061450a565b6040518363ffffffff1660e01b81526004016112df929190614537565b6020604051808303816000875af11580156112fe573d6000803e3d6000fd5b505050506040513d601f19601f82011682018060405250810190611322919061450a565b601560006101000a81548173ffffffffffffffffffffffffffffffffffffffff021916908373ffffffffffffffffffffffffffffffffffffffff16021790555080601460006101000a81548173ffffffffffffffffffffffffffffffffffffffff021916908373ffffffffffffffffffffffffffffffffffffffff1602179055505050565b6113af611d1d565b6001600460008373ffffffffffffffffffffffffffffffffffffffff1673ffffffffffffffffffffffffffffffffffffffff16815260200190815260200160002060006101000a81548160ff02191690831515021790555050565b6000600854831115611451576040517f08c379a0000000000000000000000000000000000000000000000000000000008152600401611448906145ac565b60405180910390fd5b81611472576000611461846122f3565b50505050505090508091505061148a565b600061147d846122f3565b5050505050915050809150505b92915050565b601560009054906101000a900473ffffffffffffffffffffffffffffffffffffffff1681565b60158054906101000a900460ff1681565b6114cf611d1d565b600560008273ffffffffffffffffffffffffffffffffffffffff1673ffffffffffffffffffffffffffffffffffffffff16815260200190815260200160002060009054906101000a900460ff161561155c576040517f08c379a000000000000000000000000000000000000000000000000000000000815260040161155390614618565b60405180910390fd5b6000600160008373ffffffffffffffffffffffffffffffffffffffff1673ffffffffffffffffffffffffffffffffffffffff168152602001908152602001600020541115611630576115ec600160008373ffffffffffffffffffffffffffffffffffffffff1673ffffffffffffffffffffffffffffffffffffffff16815260200190815260200160002054610c79565b600260008373ffffffffffffffffffffffffffffffffffffffff1673ffffffffffffffffffffffffffffffffffffffff168152602001908152602001600020819055505b6001600560008373ffffffffffffffffffffffffffffffffffffffff1673ffffffffffffffffffffffffffffffffffffffff16815260200190815260200160002060006101000a81548160ff0219169083151502179055506006819080600181540180825580915050600190039060005260206000200160009091909190916101000a81548173ffffffffffffffffffffffffffffffffffffffff021916908373ffffffffffffffffffffffffffffffffffffffff16021790555050565b6000600460008373ffffffffffffffffffffffffffffffffffffffff1673ffffffffffffffffffffffffffffffffffffffff16815260200190815260200160002060009054906101000a900460ff169050919050565b60125481565b6000600560008373ffffffffffffffffffffffffffffffffffffffff1673ffffffffffffffffffffffffffffffffffffffff16815260200190815260200160002060009054906101000a900460ff16156117e557600260008373ffffffffffffffffffffffffffffffffffffffff1673ffffffffffffffffffffffffffffffffffffffff168152602001908152602001600020549050611830565b61182d600160008473ffffffffffffffffffffffffffffffffffffffff1673ffffffffffffffffffffffffffffffffffffffff16815260200190815260200160002054610c79565b90505b919050565b61183d611d1d565b611847600061235b565b565b60165481565b6000600560008373ffffffffffffffffffffffffffffffffffffffff1673ffffffffffffffffffffffffffffffffffffffff16815260200190815260200160002060009054906101000a900460ff169050919050565b60008060009054906101000a900473ffffffffffffffffffffffffffffffffffffffff16905090565b6118d6611d1d565b8060128190555050565b6060600c80546118ef90614105565b80601f016020809104026020016040519081016040528092919081815260200182805461191b90614105565b80156119685780601f1061193d57610100808354040283529160200191611968565b820191906000526020600020905b81548152906001019060200180831161194b57829003601f168201915b5050505050905090565b6000600360003373ffffffffffffffffffffffffffffffffffffffff1673ffffffffffffffffffffffffffffffffffffffff16815260200190815260200160002060008473ffffffffffffffffffffffffffffffffffffffff1673ffffffffffffffffffffffffffffffffffffffff16815260200190815260200160002054821115611a33576040517f08c379a0000000000000000000000000000000000000000000000000000000008152600401611a2a906146aa565b60405180910390fd5b611ac5338484600360003373ffffffffffffffffffffffffffffffffffffffff1673ffffffffffffffffffffffffffffffffffffffff16815260200190815260200160002060008873ffffffffffffffffffffffffffffffffffffffff1673ffffffffffffffffffffffffffffffffffffffff16815260200190815260200160002054611ac091906141f7565b611d9b565b6001905092915050565b6000611adc338484611f64565b6001905092915050565b60105481565b600760009054906101000a900473ffffffffffffffffffffffffffffffffffffffff1681565b611b1a611d1d565b806015806101000a81548160ff0219169083151502179055507f53726dfcaf90650aa7eb35524f4d3220f07413c8d6cb404cc8c18bf5591bc15981604051611b629190613e94565b60405180910390a150565b60175481565b611b7b611d1d565b600d54600a611b8a91906147fd565b81611b959190614848565b60168190555050565b6000600360008473ffffffffffffffffffffffffffffffffffffffff1673ffffffffffffffffffffffffffffffffffffffff16815260200190815260200160002060008373ffffffffffffffffffffffffffffffffffffffff1673ffffffffffffffffffffffffffffffffffffffff16815260200190815260200160002054905092915050565b611c2d611d1d565b6000600460008373ffffffffffffffffffffffffffffffffffffffff1673ffffffffffffffffffffffffffffffffffffffff16815260200190815260200160002060006101000a81548160ff02191690831515021790555050565b611c90611d1d565b8060178190555050565b611ca2611d1d565b600073ffffffffffffffffffffffffffffffffffffffff168173ffffffffffffffffffffffffffffffffffffffff1603611d11576040517f08c379a0000000000000000000000000000000000000000000000000000000008152600401611d08906148fc565b60405180910390fd5b611d1a8161235b565b50565b611d2561241f565b73ffffffffffffffffffffffffffffffffffffffff16611d436118a5565b73ffffffffffffffffffffffffffffffffffffffff1614611d99576040517f08c379a0000000000000000000000000000000000000000000000000000000008152600401611d9090614968565b60405180910390fd5b565b600073ffffffffffffffffffffffffffffffffffffffff168373ffffffffffffffffffffffffffffffffffffffff1603611e0a576040517f08c379a0000000000000000000000000000000000000000000000000000000008152600401611e01906149fa565b60405180910390fd5b600073ffffffffffffffffffffffffffffffffffffffff168273ffffffffffffffffffffffffffffffffffffffff1603611e79576040517f08c379a0000000000000000000000000000000000000000000000000000000008152600401611e7090614a8c565b60405180910390fd5b80600360008573ffffffffffffffffffffffffffffffffffffffff1673ffffffffffffffffffffffffffffffffffffffff16815260200190815260200160002060008473ffffffffffffffffffffffffffffffffffffffff1673ffffffffffffffffffffffffffffffffffffffff168152602001908152602001600020819055508173ffffffffffffffffffffffffffffffffffffffff168373ffffffffffffffffffffffffffffffffffffffff167f8c5be1e5ebec7d5bd14f71427d1e84f3dd0314c0f7b2291e5b200ac8c7c3b92583604051611f579190613eeb565b60405180910390a3505050565b600073ffffffffffffffffffffffffffffffffffffffff168373ffffffffffffffffffffffffffffffffffffffff1603611fd3576040517f08c379a0000000000000000000000000000000000000000000000000000000008152600401611fca90614b1e565b60405180910390fd5b600073ffffffffffffffffffffffffffffffffffffffff168273ffffffffffffffffffffffffffffffffffffffff1603612042576040517f08c379a000000000000000000000000000000000000000000000000000000000815260040161203990614bb0565b60405180910390fd5b60008111612085576040517f08c379a000000000000000000000000000000000000000000000000000000000815260040161207c90614c42565b60405180910390fd5b61208d6118a5565b73ffffffffffffffffffffffffffffffffffffffff168373ffffffffffffffffffffffffffffffffffffffff16141580156120fb57506120cb6118a5565b73ffffffffffffffffffffffffffffffffffffffff168273ffffffffffffffffffffffffffffffffffffffff1614155b1561214657601654811115612145576040517f08c379a000000000000000000000000000000000000000000000000000000000815260040161213c90614cd4565b60405180910390fd5b5b60006121513061174a565b905060165481106121625760165490505b600060175482101590508080156121865750601560149054906101000a900460ff16155b80156121e05750601560009054906101000a900473ffffffffffffffffffffffffffffffffffffffff1673ffffffffffffffffffffffffffffffffffffffff168573ffffffffffffffffffffffffffffffffffffffff1614155b80156121f6575060158054906101000a900460ff165b1561220a57601754915061220982612427565b5b600060019050600460008773ffffffffffffffffffffffffffffffffffffffff1673ffffffffffffffffffffffffffffffffffffffff16815260200190815260200160002060009054906101000a900460ff16806122b15750600460008673ffffffffffffffffffffffffffffffffffffffff1673ffffffffffffffffffffffffffffffffffffffff16815260200190815260200160002060009054906101000a900460ff165b156122bb57600090505b6122c7868686846124e8565b505050505050565b60008060006122dc6127f9565b9150915080826122ec91906142ec565b9250505090565b600080600080600080600080600080600061230d8c612a97565b9350935093509350600080600061232e8f8787876123296122cf565b612b01565b925092509250828282898989899d509d509d509d509d509d509d5050505050505050919395979092949650565b60008060009054906101000a900473ffffffffffffffffffffffffffffffffffffffff169050816000806101000a81548173ffffffffffffffffffffffffffffffffffffffff021916908373ffffffffffffffffffffffffffffffffffffffff1602179055508173ffffffffffffffffffffffffffffffffffffffff168173ffffffffffffffffffffffffffffffffffffffff167f8be0079c531659141344cd1fd0a4f28419497f9722a3daafe3b4186f6b6457e060405160405180910390a35050565b600033905090565b6001601560146101000a81548160ff021916908315150217905550600060028261245191906142ec565b90506000818361246191906141f7565b9050600047905061247183612b84565b6000814761247f91906141f7565b905061248b8382612dc7565b7f17bbfb9a6069321b6ded73bd96327c9e6b7212a5cd51ff219cd61370acafb5618482856040516124be93929190614cf4565b60405180910390a1505050506000601560146101000a81548160ff02191690831515021790555050565b806124f6576124f5612eac565b5b600560008573ffffffffffffffffffffffffffffffffffffffff1673ffffffffffffffffffffffffffffffffffffffff16815260200190815260200160002060009054906101000a900460ff1680156125995750600560008473ffffffffffffffffffffffffffffffffffffffff1673ffffffffffffffffffffffffffffffffffffffff16815260200190815260200160002060009054906101000a900460ff16155b156125ae576125a9848484612ee1565b6127e5565b600560008573ffffffffffffffffffffffffffffffffffffffff1673ffffffffffffffffffffffffffffffffffffffff16815260200190815260200160002060009054906101000a900460ff161580156126515750600560008473ffffffffffffffffffffffffffffffffffffffff1673ffffffffffffffffffffffffffffffffffffffff16815260200190815260200160002060009054906101000a900460ff165b156126665761266184848461313a565b6127e4565b600560008573ffffffffffffffffffffffffffffffffffffffff1673ffffffffffffffffffffffffffffffffffffffff16815260200190815260200160002060009054906101000a900460ff1615801561270a5750600560008473ffffffffffffffffffffffffffffffffffffffff1673ffffffffffffffffffffffffffffffffffffffff16815260200190815260200160002060009054906101000a900460ff16155b1561271f5761271a848484613393565b6127e3565b600560008573ffffffffffffffffffffffffffffffffffffffff1673ffffffffffffffffffffffffffffffffffffffff16815260200190815260200160002060009054906101000a900460ff1680156127c15750600560008473ffffffffffffffffffffffffffffffffffffffff1673ffffffffffffffffffffffffffffffffffffffff16815260200190815260200160002060009054906101000a900460ff165b156127d6576127d184848461355e565b6127e2565b6127e1848484613393565b5b5b5b5b806127f3576127f2613845565b5b50505050565b600080600060095490506000600854905060005b600680549050811015612a615782600160006006848154811061283357612832614389565b5b9060005260206000200160009054906101000a900473ffffffffffffffffffffffffffffffffffffffff1673ffffffffffffffffffffffffffffffffffffffff1673ffffffffffffffffffffffffffffffffffffffff16815260200190815260200160002054118061292157508160026000600684815481106128b9576128b8614389565b5b9060005260206000200160009054906101000a900473ffffffffffffffffffffffffffffffffffffffff1673ffffffffffffffffffffffffffffffffffffffff1673ffffffffffffffffffffffffffffffffffffffff16815260200190815260200160002054115b156129385760095460085494509450505050612a93565b60016000600683815481106129505761294f614389565b5b9060005260206000200160009054906101000a900473ffffffffffffffffffffffffffffffffffffffff1673ffffffffffffffffffffffffffffffffffffffff1673ffffffffffffffffffffffffffffffffffffffff16815260200190815260200160002054836129c191906141f7565b925060026000600683815481106129db576129da614389565b5b9060005260206000200160009054906101000a900473ffffffffffffffffffffffffffffffffffffffff1673ffffffffffffffffffffffffffffffffffffffff1673ffffffffffffffffffffffffffffffffffffffff1681526020019081526020016000205482612a4c91906141f7565b91508080612a59906143e7565b91505061280d565b50600854600954612a7291906142ec565b821015612a8a57600954600854935093505050612a93565b81819350935050505b9091565b6000806000806000612aa886613862565b90506000612ab587613885565b90506000612ac2886138a8565b905060008183858b612ad491906141f7565b612ade91906141f7565b612ae891906141f7565b9050808484849750975097509750505050509193509193565b6000806000808489612b139190614848565b905060008589612b239190614848565b905060008689612b339190614848565b905060008789612b439190614848565b9050600081838587612b5591906141f7565b612b5f91906141f7565b612b6991906141f7565b90508481859750975097505050505050955095509592505050565b6000600267ffffffffffffffff811115612ba157612ba0614d2b565b5b604051908082528060200260200182016040528015612bcf5781602001602082028036833780820191505090505b5090503081600081518110612be757612be6614389565b5b602002602001019073ffffffffffffffffffffffffffffffffffffffff16908173ffffffffffffffffffffffffffffffffffffffff1681525050601460009054906101000a900473ffffffffffffffffffffffffffffffffffffffff1673ffffffffffffffffffffffffffffffffffffffff1663ad5c46486040518163ffffffff1660e01b8152600401602060405180830381865afa158015612c8e573d6000803e3d6000fd5b505050506040513d601f19601f82011682018060405250810190612cb2919061450a565b81600181518110612cc657612cc5614389565b5b602002602001019073ffffffffffffffffffffffffffffffffffffffff16908173ffffffffffffffffffffffffffffffffffffffff1681525050612d2d30601460009054906101000a900473ffffffffffffffffffffffffffffffffffffffff1684611d9b565b601460009054906101000a900473ffffffffffffffffffffffffffffffffffffffff1673ffffffffffffffffffffffffffffffffffffffff1663791ac9478360008430426040518663ffffffff1660e01b8152600401612d91959493929190614e53565b600060405180830381600087803b158015612dab57600080fd5b505af1158015612dbf573d6000803e3d6000fd5b505050505050565b612df430601460009054906101000a900473ffffffffffffffffffffffffffffffffffffffff1684611d9b565b601460009054906101000a900473ffffffffffffffffffffffffffffffffffffffff1673ffffffffffffffffffffffffffffffffffffffff1663f305d719823085600080612e406118a5565b426040518863ffffffff1660e01b8152600401612e6296959493929190614ead565b60606040518083038185885af1158015612e80573d6000803e3d6000fd5b50505050506040513d601f19601f82011682018060405250810190612ea59190614f23565b5050505050565b600e54600f819055506010546011819055506012546013819055506000600e8190555060006010819055506000601281905550565b6000806000806000806000612ef5886122f3565b965096509650965096509650965087600260008c73ffffffffffffffffffffffffffffffffffffffff1673ffffffffffffffffffffffffffffffffffffffff16815260200190815260200160002054612f4e91906141f7565b600260008c73ffffffffffffffffffffffffffffffffffffffff1673ffffffffffffffffffffffffffffffffffffffff1681526020019081526020016000208190555086600160008c73ffffffffffffffffffffffffffffffffffffffff1673ffffffffffffffffffffffffffffffffffffffff16815260200190815260200160002054612fdc91906141f7565b600160008c73ffffffffffffffffffffffffffffffffffffffff1673ffffffffffffffffffffffffffffffffffffffff1681526020019081526020016000208190555085600160008b73ffffffffffffffffffffffffffffffffffffffff1673ffffffffffffffffffffffffffffffffffffffff1681526020019081526020016000205461306a919061442f565b600160008b73ffffffffffffffffffffffffffffffffffffffff1673ffffffffffffffffffffffffffffffffffffffff168152602001908152602001600020819055506130b6826138cb565b6130bf81613a5b565b6130c98584613c95565b8873ffffffffffffffffffffffffffffffffffffffff168a73ffffffffffffffffffffffffffffffffffffffff167fddf252ad1be2c89b69c2b068fc378daa952ba7f163c4a11628f55a4df523b3ef866040516131269190613eeb565b60405180910390a350505050505050505050565b600080600080600080600061314e886122f3565b965096509650965096509650965086600160008c73ffffffffffffffffffffffffffffffffffffffff1673ffffffffffffffffffffffffffffffffffffffff168152602001908152602001600020546131a791906141f7565b600160008c73ffffffffffffffffffffffffffffffffffffffff1673ffffffffffffffffffffffffffffffffffffffff1681526020019081526020016000208190555083600260008b73ffffffffffffffffffffffffffffffffffffffff1673ffffffffffffffffffffffffffffffffffffffff16815260200190815260200160002054613235919061442f565b600260008b73ffffffffffffffffffffffffffffffffffffffff1673ffffffffffffffffffffffffffffffffffffffff1681526020019081526020016000208190555085600160008b73ffffffffffffffffffffffffffffffffffffffff1673ffffffffffffffffffffffffffffffffffffffff168152602001908152602001600020546132c3919061442f565b600160008b73ffffffffffffffffffffffffffffffffffffffff1673ffffffffffffffffffffffffffffffffffffffff1681526020019081526020016000208190555061330f826138cb565b61331881613a5b565b6133228584613c95565b8873ffffffffffffffffffffffffffffffffffffffff168a73ffffffffffffffffffffffffffffffffffffffff167fddf252ad1be2c89b69c2b068fc378daa952ba7f163c4a11628f55a4df523b3ef8660405161337f9190613eeb565b60405180910390a350505050505050505050565b60008060008060008060006133a7886122f3565b965096509650965096509650965086600160008c73ffffffffffffffffffffffffffffffffffffffff1673ffffffffffffffffffffffffffffffffffffffff1681526020019081526020016000205461340091906141f7565b600160008c73ffffffffffffffffffffffffffffffffffffffff1673ffffffffffffffffffffffffffffffffffffffff1681526020019081526020016000208190555085600160008b73ffffffffffffffffffffffffffffffffffffffff1673ffffffffffffffffffffffffffffffffffffffff1681526020019081526020016000205461348e919061442f565b600160008b73ffffffffffffffffffffffffffffffffffffffff1673ffffffffffffffffffffffffffffffffffffffff168152602001908152602001600020819055506134da826138cb565b6134e381613a5b565b6134ed8584613c95565b8873ffffffffffffffffffffffffffffffffffffffff168a73ffffffffffffffffffffffffffffffffffffffff167fddf252ad1be2c89b69c2b068fc378daa952ba7f163c4a11628f55a4df523b3ef8660405161354a9190613eeb565b60405180910390a350505050505050505050565b6000806000806000806000613572886122f3565b965096509650965096509650965087600260008c73ffffffffffffffffffffffffffffffffffffffff1673ffffffffffffffffffffffffffffffffffffffff168152602001908152602001600020546135cb91906141f7565b600260008c73ffffffffffffffffffffffffffffffffffffffff1673ffffffffffffffffffffffffffffffffffffffff1681526020019081526020016000208190555086600160008c73ffffffffffffffffffffffffffffffffffffffff1673ffffffffffffffffffffffffffffffffffffffff1681526020019081526020016000205461365991906141f7565b600160008c73ffffffffffffffffffffffffffffffffffffffff1673ffffffffffffffffffffffffffffffffffffffff1681526020019081526020016000208190555083600260008b73ffffffffffffffffffffffffffffffffffffffff1673ffffffffffffffffffffffffffffffffffffffff168152602001908152602001600020546136e7919061442f565b600260008b73ffffffffffffffffffffffffffffffffffffffff1673ffffffffffffffffffffffffffffffffffffffff1681526020019081526020016000208190555085600160008b73ffffffffffffffffffffffffffffffffffffffff1673ffffffffffffffffffffffffffffffffffffffff16815260200190815260200160002054613775919061442f565b600160008b73ffffffffffffffffffffffffffffffffffffffff1673ffffffffffffffffffffffffffffffffffffffff168152602001908152602001600020819055506137c1826138cb565b6137ca81613a5b565b6137d48584613c95565b8873ffffffffffffffffffffffffffffffffffffffff168a73ffffffffffffffffffffffffffffffffffffffff167fddf252ad1be2c89b69c2b068fc378daa952ba7f163c4a11628f55a4df523b3ef866040516138319190613eeb565b60405180910390a350505050505050505050565b600f54600e81905550601154601081905550601354601281905550565b60006064600e54836138749190614848565b61387e91906142ec565b9050919050565b60006064601254836138979190614848565b6138a191906142ec565b9050919050565b60006064601054836138ba9190614848565b6138c491906142ec565b9050919050565b60006138d56122cf565b9050600081836138e59190614848565b905080600160003073ffffffffffffffffffffffffffffffffffffffff1673ffffffffffffffffffffffffffffffffffffffff16815260200190815260200160002054613932919061442f565b600160003073ffffffffffffffffffffffffffffffffffffffff1673ffffffffffffffffffffffffffffffffffffffff16815260200190815260200160002081905550600560003073ffffffffffffffffffffffffffffffffffffffff1673ffffffffffffffffffffffffffffffffffffffff16815260200190815260200160002060009054906101000a900460ff1615613a565782600260003073ffffffffffffffffffffffffffffffffffffffff1673ffffffffffffffffffffffffffffffffffffffff16815260200190815260200160002054613a12919061442f565b600260003073ffffffffffffffffffffffffffffffffffffffff1673ffffffffffffffffffffffffffffffffffffffff168152602001908152602001600020819055505b505050565b6000613a656122cf565b905060008183613a759190614848565b90508060016000600760009054906101000a900473ffffffffffffffffffffffffffffffffffffffff1673ffffffffffffffffffffffffffffffffffffffff1673ffffffffffffffffffffffffffffffffffffffff16815260200190815260200160002054613ae4919061442f565b60016000600760009054906101000a900473ffffffffffffffffffffffffffffffffffffffff1673ffffffffffffffffffffffffffffffffffffffff1673ffffffffffffffffffffffffffffffffffffffff1681526020019081526020016000208190555060056000600760009054906101000a900473ffffffffffffffffffffffffffffffffffffffff1673ffffffffffffffffffffffffffffffffffffffff1673ffffffffffffffffffffffffffffffffffffffff16815260200190815260200160002060009054906101000a900460ff1615613c90578260026000600760009054906101000a900473ffffffffffffffffffffffffffffffffffffffff1673ffffffffffffffffffffffffffffffffffffffff1673ffffffffffffffffffffffffffffffffffffffff16815260200190815260200160002054613c2a919061442f565b60026000600760009054906101000a900473ffffffffffffffffffffffffffffffffffffffff1673ffffffffffffffffffffffffffffffffffffffff1673ffffffffffffffffffffffffffffffffffffffff168152602001908152602001600020819055505b505050565b81600954613ca391906141f7565b60098190555080600a54613cb7919061442f565b600a819055505050565b600080fd5b6000819050919050565b613cd981613cc6565b8114613ce457600080fd5b50565b600081359050613cf681613cd0565b92915050565b600060208284031215613d1257613d11613cc1565b5b6000613d2084828501613ce7565b91505092915050565b600081519050919050565b600082825260208201905092915050565b60005b83811015613d63578082015181840152602081019050613d48565b60008484015250505050565b6000601f19601f8301169050919050565b6000613d8b82613d29565b613d958185613d34565b9350613da5818560208601613d45565b613dae81613d6f565b840191505092915050565b60006020820190508181036000830152613dd38184613d80565b905092915050565b600073ffffffffffffffffffffffffffffffffffffffff82169050919050565b6000613e0682613ddb565b9050919050565b613e1681613dfb565b8114613e2157600080fd5b50565b600081359050613e3381613e0d565b92915050565b60008060408385031215613e5057613e4f613cc1565b5b6000613e5e85828601613e24565b9250506020613e6f85828601613ce7565b9150509250929050565b60008115159050919050565b613e8e81613e79565b82525050565b6000602082019050613ea96000830184613e85565b92915050565b600060208284031215613ec557613ec4613cc1565b5b6000613ed384828501613e24565b91505092915050565b613ee581613cc6565b82525050565b6000602082019050613f006000830184613edc565b92915050565b6000819050919050565b6000613f2b613f26613f2184613ddb565b613f06565b613ddb565b9050919050565b6000613f3d82613f10565b9050919050565b6000613f4f82613f32565b9050919050565b613f5f81613f44565b82525050565b6000602082019050613f7a6000830184613f56565b92915050565b600080600060608486031215613f9957613f98613cc1565b5b6000613fa786828701613e24565b9350506020613fb886828701613e24565b9250506040613fc986828701613ce7565b9150509250925092565b613fdc81613e79565b8114613fe757600080fd5b50565b600081359050613ff981613fd3565b92915050565b6000806040838503121561401657614015613cc1565b5b600061402485828601613ce7565b925050602061403585828601613fea565b9150509250929050565b61404881613dfb565b82525050565b6000602082019050614063600083018461403f565b92915050565b60006020828403121561407f5761407e613cc1565b5b600061408d84828501613fea565b91505092915050565b600080604083850312156140ad576140ac613cc1565b5b60006140bb85828601613e24565b92505060206140cc85828601613e24565b9150509250929050565b7f4e487b7100000000000000000000000000000000000000000000000000000000600052602260045260246000fd5b6000600282049050600182168061411d57607f821691505b6020821081036141305761412f6140d6565b5b50919050565b7f45524332303a207472616e7366657220616d6f756e742065786365656473206160008201527f6c6c6f77616e6365000000000000000000000000000000000000000000000000602082015250565b6000614192602883613d34565b915061419d82614136565b604082019050919050565b600060208201905081810360008301526141c181614185565b9050919050565b7f4e487b7100000000000000000000000000000000000000000000000000000000600052601160045260246000fd5b600061420282613cc6565b915061420d83613cc6565b9250828203905081811115614225576142246141c8565b5b92915050565b7f416d6f756e74206d757374206265206c657373207468616e20746f74616c207260008201527f65666c656374696f6e7300000000000000000000000000000000000000000000602082015250565b6000614287602a83613d34565b91506142928261422b565b604082019050919050565b600060208201905081810360008301526142b68161427a565b9050919050565b7f4e487b7100000000000000000000000000000000000000000000000000000000600052601260045260246000fd5b60006142f782613cc6565b915061430283613cc6565b925082614312576143116142bd565b5b828204905092915050565b7f4163636f756e7420697320616c726561647920696e636c756465640000000000600082015250565b6000614353601b83613d34565b915061435e8261431d565b602082019050919050565b6000602082019050818103600083015261438281614346565b9050919050565b7f4e487b7100000000000000000000000000000000000000000000000000000000600052603260045260246000fd5b7f4e487b7100000000000000000000000000000000000000000000000000000000600052603160045260246000fd5b60006143f282613cc6565b91507fffffffffffffffffffffffffffffffffffffffffffffffffffffffffffffffff8203614424576144236141c8565b5b600182019050919050565b600061443a82613cc6565b915061444583613cc6565b925082820190508082111561445d5761445c6141c8565b5b92915050565b7f4578636c75646564206164647265737365732063616e6e6f742063616c6c207460008201527f6869732066756e6374696f6e0000000000000000000000000000000000000000602082015250565b60006144bf602c83613d34565b91506144ca82614463565b604082019050919050565b600060208201905081810360008301526144ee816144b2565b9050919050565b60008151905061450481613e0d565b92915050565b6000602082840312156145205761451f613cc1565b5b600061452e848285016144f5565b91505092915050565b600060408201905061454c600083018561403f565b614559602083018461403f565b9392505050565b7f416d6f756e74206d757374206265206c657373207468616e20737570706c7900600082015250565b6000614596601f83613d34565b91506145a182614560565b602082019050919050565b600060208201905081810360008301526145c581614589565b9050919050565b7f4163636f756e7420697320616c7265616479206578636c756465640000000000600082015250565b6000614602601b83613d34565b915061460d826145cc565b602082019050919050565b60006020820190508181036000830152614631816145f5565b9050919050565b7f45524332303a2064656372656173656420616c6c6f77616e63652062656c6f7760008201527f207a65726f000000000000000000000000000000000000000000000000000000602082015250565b6000614694602583613d34565b915061469f82614638565b604082019050919050565b600060208201905081810360008301526146c381614687565b9050919050565b60008160011c9050919050565b6000808291508390505b6001851115614721578086048111156146fd576146fc6141c8565b5b600185161561470c5780820291505b808102905061471a856146ca565b94506146e1565b94509492505050565b60008261473a57600190506147f6565b8161474857600090506147f6565b816001811461475e576002811461476857614797565b60019150506147f6565b60ff84111561477a576147796141c8565b5b8360020a915084821115614791576147906141c8565b5b506147f6565b5060208310610133831016604e8410600b84101617156147cc5782820a9050838111156147c7576147c66141c8565b5b6147f6565b6147d984848460016146d7565b925090508184048111156147f0576147ef6141c8565b5b81810290505b9392505050565b600061480882613cc6565b915061481383613cc6565b92506148407fffffffffffffffffffffffffffffffffffffffffffffffffffffffffffffffff848461472a565b905092915050565b600061485382613cc6565b915061485e83613cc6565b925082820261486c81613cc6565b91508282048414831517614883576148826141c8565b5b5092915050565b7f4f776e61626c653a206e6577206f776e657220697320746865207a65726f206160008201527f6464726573730000000000000000000000000000000000000000000000000000602082015250565b60006148e6602683613d34565b91506148f18261488a565b604082019050919050565b60006020820190508181036000830152614915816148d9565b9050919050565b7f4f776e61626c653a2063616c6c6572206973206e6f7420746865206f776e6572600082015250565b6000614952602083613d34565b915061495d8261491c565b602082019050919050565b6000602082019050818103600083015261498181614945565b9050919050565b7f45524332303a20617070726f76652066726f6d20746865207a65726f2061646460008201527f7265737300000000000000000000000000000000000000000000000000000000602082015250565b60006149e4602483613d34565b91506149ef82614988565b604082019050919050565b60006020820190508181036000830152614a13816149d7565b9050919050565b7f45524332303a20617070726f766520746f20746865207a65726f20616464726560008201527f7373000000000000000000000000000000000000000000000000000000000000602082015250565b6000614a76602283613d34565b9150614a8182614a1a565b604082019050919050565b60006020820190508181036000830152614aa581614a69565b9050919050565b7f45524332303a207472616e736665722066726f6d20746865207a65726f20616460008201527f6472657373000000000000000000000000000000000000000000000000000000602082015250565b6000614b08602583613d34565b9150614b1382614aac565b604082019050919050565b60006020820190508181036000830152614b3781614afb565b9050919050565b7f45524332303a207472616e7366657220746f20746865207a65726f206164647260008201527f6573730000000000000000000000000000000000000000000000000000000000602082015250565b6000614b9a602383613d34565b9150614ba582614b3e565b604082019050919050565b60006020820190508181036000830152614bc981614b8d565b9050919050565b7f5472616e7366657220616d6f756e74206d75737420626520677265617465722060008201527f7468616e207a65726f0000000000000000000000000000000000000000000000602082015250565b6000614c2c602983613d34565b9150614c3782614bd0565b604082019050919050565b60006020820190508181036000830152614c5b81614c1f565b9050919050565b7f5472616e7366657220616d6f756e74206578636565647320746865206d61785460008201527f78416d6f756e742e000000000000000000000000000000000000000000000000602082015250565b6000614cbe602883613d34565b9150614cc982614c62565b604082019050919050565b60006020820190508181036000830152614ced81614cb1565b9050919050565b6000606082019050614d096000830186613edc565b614d166020830185613edc565b614d236040830184613edc565b949350505050565b7f4e487b7100000000000000000000000000000000000000000000000000000000600052604160045260246000fd5b6000819050919050565b6000614d7f614d7a614d7584614d5a565b613f06565b613cc6565b9050919050565b614d8f81614d64565b82525050565b600081519050919050565b600082825260208201905092915050565b6000819050602082019050919050565b614dca81613dfb565b82525050565b6000614ddc8383614dc1565b60208301905092915050565b6000602082019050919050565b6000614e0082614d95565b614e0a8185614da0565b9350614e1583614db1565b8060005b83811015614e46578151614e2d8882614dd0565b9750614e3883614de8565b925050600181019050614e19565b5085935050505092915050565b600060a082019050614e686000830188613edc565b614e756020830187614d86565b8181036040830152614e878186614df5565b9050614e96606083018561403f565b614ea36080830184613edc565b9695505050505050565b600060c082019050614ec2600083018961403f565b614ecf6020830188613edc565b614edc6040830187614d86565b614ee96060830186614d86565b614ef6608083018561403f565b614f0360a0830184613edc565b979650505050505050565b600081519050614f1d81613cd0565b92915050565b600080600060608486031215614f3c57614f3b613cc1565b5b6000614f4a86828701614f0e565b9350506020614f5b86828701614f0e565b9250506040614f6c86828701614f0e565b915050925092509256fea2646970667358221220a2020aaa6ab0a2fd413a2c36daa28ef3eb472c5eed57df80d63ccad05e35ef4964736f6c63430008110033",
  "devdoc": {
    "kind": "dev",
    "methods": {
      "allowance(address,address)": {
        "details": "Returns the remaining number of tokens that `spender` will be allowed to spend on behalf of `owner` through {transferFrom}. This is zero by default. This value changes when {approve} or {transferFrom} are called."
      },
      "approve(address,uint256)": {
        "details": "Sets `amount` as the allowance of `spender` over the caller's tokens. Returns a boolean value indicating whether the operation succeeded. IMPORTANT: Beware that changing an allowance with this method brings the risk that someone may use both the old and the new allowance by unfortunate transaction ordering. One possible solution to mitigate this race condition is to first reduce the spender's allowance to 0 and set the desired value afterwards: https://github.com/ethereum/EIPs/issues/20#issuecomment-263524729 Emits an {Approval} event."
      },
      "balanceOf(address)": {
        "details": "Returns the amount of tokens owned by `account`."
      },
      "owner()": {
        "details": "Returns the address of the current owner."
      },
      "renounceOwnership()": {
        "details": "Leaves the contract without owner. It will not be possible to call `onlyOwner` functions anymore. Can only be called by the current owner. NOTE: Renouncing ownership will leave the contract without an owner, thereby removing any functionality that is only available to the owner."
      },
      "totalSupply()": {
        "details": "Returns the amount of tokens in existence."
      },
      "transferOwnership(address)": {
        "details": "Transfers ownership of the contract to a new account (`newOwner`). Can only be called by the current owner."
      }
    },
    "version": 1
  },
  "userdoc": {
    "kind": "user",
    "methods": {},
    "version": 1
  },
  "storageLayout": {
    "storage": [
      {
        "astId": 7,
        "contract": "contracts/RFToken.sol:RFToken",
        "label": "_owner",
        "offset": 0,
        "slot": "0",
        "type": "t_address"
      },
      {
        "astId": 920,
        "contract": "contracts/RFToken.sol:RFToken",
        "label": "_rOwned",
        "offset": 0,
        "slot": "1",
        "type": "t_mapping(t_address,t_uint256)"
      },
      {
        "astId": 924,
        "contract": "contracts/RFToken.sol:RFToken",
        "label": "_tOwned",
        "offset": 0,
        "slot": "2",
        "type": "t_mapping(t_address,t_uint256)"
      },
      {
        "astId": 930,
        "contract": "contracts/RFToken.sol:RFToken",
        "label": "_allowances",
        "offset": 0,
        "slot": "3",
        "type": "t_mapping(t_address,t_mapping(t_address,t_uint256))"
      },
      {
        "astId": 934,
        "contract": "contracts/RFToken.sol:RFToken",
        "label": "_isExcludedFromFee",
        "offset": 0,
        "slot": "4",
        "type": "t_mapping(t_address,t_bool)"
      },
      {
        "astId": 938,
        "contract": "contracts/RFToken.sol:RFToken",
        "label": "_isExcluded",
        "offset": 0,
        "slot": "5",
        "type": "t_mapping(t_address,t_bool)"
      },
      {
        "astId": 941,
        "contract": "contracts/RFToken.sol:RFToken",
        "label": "_excluded",
        "offset": 0,
        "slot": "6",
        "type": "t_array(t_address)dyn_storage"
      },
      {
        "astId": 943,
        "contract": "contracts/RFToken.sol:RFToken",
        "label": "_devWalletAddress",
        "offset": 0,
        "slot": "7",
        "type": "t_address"
      },
      {
        "astId": 952,
        "contract": "contracts/RFToken.sol:RFToken",
        "label": "_tTotal",
        "offset": 0,
        "slot": "8",
        "type": "t_uint256"
      },
      {
        "astId": 954,
        "contract": "contracts/RFToken.sol:RFToken",
        "label": "_rTotal",
        "offset": 0,
        "slot": "9",
        "type": "t_uint256"
      },
      {
        "astId": 956,
        "contract": "contracts/RFToken.sol:RFToken",
        "label": "_tFeeTotal",
        "offset": 0,
        "slot": "10",
        "type": "t_uint256"
      },
      {
        "astId": 958,
        "contract": "contracts/RFToken.sol:RFToken",
        "label": "_name",
        "offset": 0,
        "slot": "11",
        "type": "t_string_storage"
      },
      {
        "astId": 960,
        "contract": "contracts/RFToken.sol:RFToken",
        "label": "_symbol",
        "offset": 0,
        "slot": "12",
        "type": "t_string_storage"
      },
      {
        "astId": 962,
        "contract": "contracts/RFToken.sol:RFToken",
        "label": "_decimals",
        "offset": 0,
        "slot": "13",
        "type": "t_uint256"
      },
      {
        "astId": 964,
        "contract": "contracts/RFToken.sol:RFToken",
        "label": "_taxFee",
        "offset": 0,
        "slot": "14",
        "type": "t_uint256"
      },
      {
        "astId": 966,
        "contract": "contracts/RFToken.sol:RFToken",
        "label": "_previousTaxFee",
        "offset": 0,
        "slot": "15",
        "type": "t_uint256"
      },
      {
        "astId": 968,
        "contract": "contracts/RFToken.sol:RFToken",
        "label": "_devFee",
        "offset": 0,
        "slot": "16",
        "type": "t_uint256"
      },
      {
        "astId": 970,
        "contract": "contracts/RFToken.sol:RFToken",
        "label": "_previousDevFee",
        "offset": 0,
        "slot": "17",
        "type": "t_uint256"
      },
      {
        "astId": 972,
        "contract": "contracts/RFToken.sol:RFToken",
        "label": "_liquidityFee",
        "offset": 0,
        "slot": "18",
        "type": "t_uint256"
      },
      {
        "astId": 974,
        "contract": "contracts/RFToken.sol:RFToken",
        "label": "_previousLiquidityFee",
        "offset": 0,
        "slot": "19",
        "type": "t_uint256"
      },
      {
        "astId": 977,
        "contract": "contracts/RFToken.sol:RFToken",
        "label": "uniswapV2Router",
        "offset": 0,
        "slot": "20",
        "type": "t_contract(IUniswapV2Router02)912"
      },
      {
        "astId": 979,
        "contract": "contracts/RFToken.sol:RFToken",
        "label": "uniswapV2Pair",
        "offset": 0,
        "slot": "21",
        "type": "t_address"
      },
      {
        "astId": 981,
        "contract": "contracts/RFToken.sol:RFToken",
        "label": "inSwapAndLiquify",
        "offset": 20,
        "slot": "21",
        "type": "t_bool"
      },
      {
        "astId": 984,
        "contract": "contracts/RFToken.sol:RFToken",
        "label": "swapAndLiquifyEnabled",
        "offset": 21,
        "slot": "21",
        "type": "t_bool"
      },
      {
        "astId": 986,
        "contract": "contracts/RFToken.sol:RFToken",
        "label": "_maxTxAmount",
        "offset": 0,
        "slot": "22",
        "type": "t_uint256"
      },
      {
        "astId": 988,
        "contract": "contracts/RFToken.sol:RFToken",
        "label": "numTokensSellToAddToLiquidity",
        "offset": 0,
        "slot": "23",
        "type": "t_uint256"
      }
    ],
    "types": {
      "t_address": {
        "encoding": "inplace",
        "label": "address",
        "numberOfBytes": "20"
      },
      "t_array(t_address)dyn_storage": {
        "base": "t_address",
        "encoding": "dynamic_array",
        "label": "address[]",
        "numberOfBytes": "32"
      },
      "t_bool": {
        "encoding": "inplace",
        "label": "bool",
        "numberOfBytes": "1"
      },
      "t_contract(IUniswapV2Router02)912": {
        "encoding": "inplace",
        "label": "contract IUniswapV2Router02",
        "numberOfBytes": "20"
      },
      "t_mapping(t_address,t_bool)": {
        "encoding": "mapping",
        "key": "t_address",
        "label": "mapping(address => bool)",
        "numberOfBytes": "32",
        "value": "t_bool"
      },
      "t_mapping(t_address,t_mapping(t_address,t_uint256))": {
        "encoding": "mapping",
        "key": "t_address",
        "label": "mapping(address => mapping(address => uint256))",
        "numberOfBytes": "32",
        "value": "t_mapping(t_address,t_uint256)"
      },
      "t_mapping(t_address,t_uint256)": {
        "encoding": "mapping",
        "key": "t_address",
        "label": "mapping(address => uint256)",
        "numberOfBytes": "32",
        "value": "t_uint256"
      },
      "t_string_storage": {
        "encoding": "bytes",
        "label": "string",
        "numberOfBytes": "32"
      },
      "t_uint256": {
        "encoding": "inplace",
        "label": "uint256",
        "numberOfBytes": "32"
      }
    }
  }
}