{
  "address": "0xAfbb95Cc24AD135c709D09176aDF814eF98a4E06",
  "abi": [
    {
      "inputs": [],
      "stateMutability": "payable",
      "type": "constructor"
    },
    {
      "anonymous": false,
      "inputs": [
        {
          "indexed": true,
          "internalType": "address",
          "name": "owner",
          "type": "address"
        },
        {
          "indexed": true,
          "internalType": "address",
          "name": "spender",
          "type": "address"
        },
        {
          "indexed": false,
          "internalType": "uint256",
          "name": "value",
          "type": "uint256"
        }
      ],
      "name": "Approval",
      "type": "event"
    },
    {
      "anonymous": false,
      "inputs": [
        {
          "indexed": false,
          "internalType": "uint256",
          "name": "minTokensBeforeSwap",
          "type": "uint256"
        }
      ],
      "name": "MinTokensBeforeSwapUpdated",
      "type": "event"
    },
    {
      "anonymous": false,
      "inputs": [
        {
          "indexed": true,
          "internalType": "address",
          "name": "previousOwner",
          "type": "address"
        },
        {
          "indexed": true,
          "internalType": "address",
          "name": "newOwner",
          "type": "address"
        }
      ],
      "name": "OwnershipTransferred",
      "type": "event"
    },
    {
      "anonymous": false,
      "inputs": [
        {
          "indexed": false,
          "internalType": "uint256",
          "name": "tokensSwapped",
          "type": "uint256"
        },
        {
          "indexed": false,
          "internalType": "uint256",
          "name": "ethReceived",
          "type": "uint256"
        },
        {
          "indexed": false,
          "internalType": "uint256",
          "name": "tokensIntoLiqudity",
          "type": "uint256"
        }
      ],
      "name": "SwapAndLiquify",
      "type": "event"
    },
    {
      "anonymous": false,
      "inputs": [
        {
          "indexed": false,
          "internalType": "bool",
          "name": "enabled",
          "type": "bool"
        }
      ],
      "name": "SwapAndLiquifyEnabledUpdated",
      "type": "event"
    },
    {
      "anonymous": false,
      "inputs": [
        {
          "indexed": true,
          "internalType": "address",
          "name": "from",
          "type": "address"
        },
        {
          "indexed": true,
          "internalType": "address",
          "name": "to",
          "type": "address"
        },
        {
          "indexed": false,
          "internalType": "uint256",
          "name": "value",
          "type": "uint256"
        }
      ],
      "name": "Transfer",
      "type": "event"
    },
    {
      "inputs": [],
      "name": "_devFee",
      "outputs": [
        {
          "internalType": "uint256",
          "name": "",
          "type": "uint256"
        }
      ],
      "stateMutability": "view",
      "type": "function"
    },
    {
      "inputs": [],
      "name": "_devWalletAddress",
      "outputs": [
        {
          "internalType": "address",
          "name": "",
          "type": "address"
        }
      ],
      "stateMutability": "view",
      "type": "function"
    },
    {
      "inputs": [],
      "name": "_liquidityFee",
      "outputs": [
        {
          "internalType": "uint256",
          "name": "",
          "type": "uint256"
        }
      ],
      "stateMutability": "view",
      "type": "function"
    },
    {
      "inputs": [],
      "name": "_lockTime",
      "outputs": [
        {
          "internalType": "uint256",
          "name": "",
          "type": "uint256"
        }
      ],
      "stateMutability": "view",
      "type": "function"
    },
    {
      "inputs": [],
      "name": "_maxTxAmount",
      "outputs": [
        {
          "internalType": "uint256",
          "name": "",
          "type": "uint256"
        }
      ],
      "stateMutability": "view",
      "type": "function"
    },
    {
      "inputs": [],
      "name": "_owner",
      "outputs": [
        {
          "internalType": "address",
          "name": "",
          "type": "address"
        }
      ],
      "stateMutability": "view",
      "type": "function"
    },
    {
      "inputs": [],
      "name": "_taxFee",
      "outputs": [
        {
          "internalType": "uint256",
          "name": "",
          "type": "uint256"
        }
      ],
      "stateMutability": "view",
      "type": "function"
    },
    {
      "inputs": [
        {
          "internalType": "address",
          "name": "owner",
          "type": "address"
        },
        {
          "internalType": "address",
          "name": "spender",
          "type": "address"
        }
      ],
      "name": "allowance",
      "outputs": [
        {
          "internalType": "uint256",
          "name": "",
          "type": "uint256"
        }
      ],
      "stateMutability": "view",
      "type": "function"
    },
    {
      "inputs": [
        {
          "internalType": "address",
          "name": "spender",
          "type": "address"
        },
        {
          "internalType": "uint256",
          "name": "amount",
          "type": "uint256"
        }
      ],
      "name": "approve",
      "outputs": [
        {
          "internalType": "bool",
          "name": "",
          "type": "bool"
        }
      ],
      "stateMutability": "nonpayable",
      "type": "function"
    },
    {
      "inputs": [
        {
          "internalType": "address",
          "name": "account",
          "type": "address"
        }
      ],
      "name": "balanceOf",
      "outputs": [
        {
          "internalType": "uint256",
          "name": "",
          "type": "uint256"
        }
      ],
      "stateMutability": "view",
      "type": "function"
    },
    {
      "inputs": [],
      "name": "decimals",
      "outputs": [
        {
          "internalType": "uint256",
          "name": "",
          "type": "uint256"
        }
      ],
      "stateMutability": "view",
      "type": "function"
    },
    {
      "inputs": [
        {
          "internalType": "address",
          "name": "spender",
          "type": "address"
        },
        {
          "internalType": "uint256",
          "name": "subtractedValue",
          "type": "uint256"
        }
      ],
      "name": "decreaseAllowance",
      "outputs": [
        {
          "internalType": "bool",
          "name": "",
          "type": "bool"
        }
      ],
      "stateMutability": "nonpayable",
      "type": "function"
    },
    {
      "inputs": [
        {
          "internalType": "uint256",
          "name": "tAmount",
          "type": "uint256"
        }
      ],
      "name": "deliver",
      "outputs": [],
      "stateMutability": "nonpayable",
      "type": "function"
    },
    {
      "inputs": [
        {
          "internalType": "address",
          "name": "account",
          "type": "address"
        }
      ],
      "name": "excludeFromFee",
      "outputs": [],
      "stateMutability": "nonpayable",
      "type": "function"
    },
    {
      "inputs": [
        {
          "internalType": "address",
          "name": "account",
          "type": "address"
        }
      ],
      "name": "excludeFromReward",
      "outputs": [],
      "stateMutability": "nonpayable",
      "type": "function"
    },
    {
      "inputs": [
        {
          "internalType": "address",
          "name": "account",
          "type": "address"
        }
      ],
      "name": "includeInFee",
      "outputs": [],
      "stateMutability": "nonpayable",
      "type": "function"
    },
    {
      "inputs": [
        {
          "internalType": "address",
          "name": "account",
          "type": "address"
        }
      ],
      "name": "includeInReward",
      "outputs": [],
      "stateMutability": "nonpayable",
      "type": "function"
    },
    {
      "inputs": [
        {
          "internalType": "address",
          "name": "spender",
          "type": "address"
        },
        {
          "internalType": "uint256",
          "name": "addedValue",
          "type": "uint256"
        }
      ],
      "name": "increaseAllowance",
      "outputs": [
        {
          "internalType": "bool",
          "name": "",
          "type": "bool"
        }
      ],
      "stateMutability": "nonpayable",
      "type": "function"
    },
    {
      "inputs": [
        {
          "internalType": "address",
          "name": "account",
          "type": "address"
        }
      ],
      "name": "isExcludedFromFee",
      "outputs": [
        {
          "internalType": "bool",
          "name": "",
          "type": "bool"
        }
      ],
      "stateMutability": "view",
      "type": "function"
    },
    {
      "inputs": [
        {
          "internalType": "address",
          "name": "account",
          "type": "address"
        }
      ],
      "name": "isExcludedFromReward",
      "outputs": [
        {
          "internalType": "bool",
          "name": "",
          "type": "bool"
        }
      ],
      "stateMutability": "view",
      "type": "function"
    },
    {
      "inputs": [
        {
          "internalType": "uint256",
          "name": "time",
          "type": "uint256"
        }
      ],
      "name": "lock",
      "outputs": [],
      "stateMutability": "nonpayable",
      "type": "function"
    },
    {
      "inputs": [],
      "name": "name",
      "outputs": [
        {
          "internalType": "string",
          "name": "",
          "type": "string"
        }
      ],
      "stateMutability": "view",
      "type": "function"
    },
    {
      "inputs": [],
      "name": "numTokensSellToAddToLiquidity",
      "outputs": [
        {
          "internalType": "uint256",
          "name": "",
          "type": "uint256"
        }
      ],
      "stateMutability": "view",
      "type": "function"
    },
    {
      "inputs": [],
      "name": "owner",
      "outputs": [
        {
          "internalType": "address",
          "name": "",
          "type": "address"
        }
      ],
      "stateMutability": "view",
      "type": "function"
    },
    {
      "inputs": [
        {
          "internalType": "uint256",
          "name": "tAmount",
          "type": "uint256"
        },
        {
          "internalType": "bool",
          "name": "deductTransferFee",
          "type": "bool"
        }
      ],
      "name": "reflectionFromToken",
      "outputs": [
        {
          "internalType": "uint256",
          "name": "",
          "type": "uint256"
        }
      ],
      "stateMutability": "view",
      "type": "function"
    },
    {
      "inputs": [],
      "name": "renounceOwnership",
      "outputs": [],
      "stateMutability": "nonpayable",
      "type": "function"
    },
    {
      "inputs": [
        {
          "internalType": "uint256",
          "name": "devFee",
          "type": "uint256"
        }
      ],
      "name": "setDevFeePercent",
      "outputs": [],
      "stateMutability": "nonpayable",
      "type": "function"
    },
    {
      "inputs": [
        {
          "internalType": "address",
          "name": "_addr",
          "type": "address"
        }
      ],
      "name": "setDevWalletAddress",
      "outputs": [],
      "stateMutability": "nonpayable",
      "type": "function"
    },
    {
      "inputs": [
        {
          "internalType": "uint256",
          "name": "liquidityFee",
          "type": "uint256"
        }
      ],
      "name": "setLiquidityFeePercent",
      "outputs": [],
      "stateMutability": "nonpayable",
      "type": "function"
    },
    {
      "inputs": [
        {
          "internalType": "uint256",
          "name": "maxTxPercent",
          "type": "uint256"
        }
      ],
      "name": "setMaxTxPercent",
      "outputs": [],
      "stateMutability": "nonpayable",
      "type": "function"
    },
    {
      "inputs": [
        {
          "internalType": "uint256",
          "name": "amountToUpdate",
          "type": "uint256"
        }
      ],
      "name": "setNumTokensSellToAddToLiquidity",
      "outputs": [],
      "stateMutability": "nonpayable",
      "type": "function"
    },
    {
      "inputs": [
        {
          "internalType": "address",
          "name": "newRouter",
          "type": "address"
        }
      ],
      "name": "setRouterAddress",
      "outputs": [],
      "stateMutability": "nonpayable",
      "type": "function"
    },
    {
      "inputs": [
        {
          "internalType": "bool",
          "name": "_enabled",
          "type": "bool"
        }
      ],
      "name": "setSwapAndLiquifyEnabled",
      "outputs": [],
      "stateMutability": "nonpayable",
      "type": "function"
    },
    {
      "inputs": [
        {
          "internalType": "uint256",
          "name": "taxFee",
          "type": "uint256"
        }
      ],
      "name": "setTaxFeePercent",
      "outputs": [],
      "stateMutability": "nonpayable",
      "type": "function"
    },
    {
      "inputs": [],
      "name": "swapAndLiquifyEnabled",
      "outputs": [
        {
          "internalType": "bool",
          "name": "",
          "type": "bool"
        }
      ],
      "stateMutability": "view",
      "type": "function"
    },
    {
      "inputs": [],
      "name": "symbol",
      "outputs": [
        {
          "internalType": "string",
          "name": "",
          "type": "string"
        }
      ],
      "stateMutability": "view",
      "type": "function"
    },
    {
      "inputs": [
        {
          "internalType": "uint256",
          "name": "rAmount",
          "type": "uint256"
        }
      ],
      "name": "tokenFromReflection",
      "outputs": [
        {
          "internalType": "uint256",
          "name": "",
          "type": "uint256"
        }
      ],
      "stateMutability": "view",
      "type": "function"
    },
    {
      "inputs": [],
      "name": "totalFees",
      "outputs": [
        {
          "internalType": "uint256",
          "name": "",
          "type": "uint256"
        }
      ],
      "stateMutability": "view",
      "type": "function"
    },
    {
      "inputs": [],
      "name": "totalSupply",
      "outputs": [
        {
          "internalType": "uint256",
          "name": "",
          "type": "uint256"
        }
      ],
      "stateMutability": "view",
      "type": "function"
    },
    {
      "inputs": [
        {
          "internalType": "address",
          "name": "recipient",
          "type": "address"
        },
        {
          "internalType": "uint256",
          "name": "amount",
          "type": "uint256"
        }
      ],
      "name": "transfer",
      "outputs": [
        {
          "internalType": "bool",
          "name": "",
          "type": "bool"
        }
      ],
      "stateMutability": "nonpayable",
      "type": "function"
    },
    {
      "inputs": [
        {
          "internalType": "address",
          "name": "sender",
          "type": "address"
        },
        {
          "internalType": "address",
          "name": "recipient",
          "type": "address"
        },
        {
          "internalType": "uint256",
          "name": "amount",
          "type": "uint256"
        }
      ],
      "name": "transferFrom",
      "outputs": [
        {
          "internalType": "bool",
          "name": "",
          "type": "bool"
        }
      ],
      "stateMutability": "nonpayable",
      "type": "function"
    },
    {
      "inputs": [
        {
          "internalType": "address",
          "name": "newOwner",
          "type": "address"
        }
      ],
      "name": "transferOwnership",
      "outputs": [],
      "stateMutability": "nonpayable",
      "type": "function"
    },
    {
      "inputs": [],
      "name": "uniswapV2Pair",
      "outputs": [
        {
          "internalType": "address",
          "name": "",
          "type": "address"
        }
      ],
      "stateMutability": "view",
      "type": "function"
    },
    {
      "inputs": [],
      "name": "uniswapV2Router",
      "outputs": [
        {
          "internalType": "contract IUniswapV2Router02",
          "name": "",
          "type": "address"
        }
      ],
      "stateMutability": "view",
      "type": "function"
    },
    {
      "inputs": [],
      "name": "unlock",
      "outputs": [],
      "stateMutability": "nonpayable",
      "type": "function"
    },
    {
      "stateMutability": "payable",
      "type": "receive"
    }
  ],
  "transactionHash": "0xf7a5853e72a1212bd737820583ca77a233a5572ae67db90dd8f2c13cafec3b67",
  "args": [],
  "numDeployments": 1,
  "solcInputHash": "cc69f96d46953ac3bad48104b4efeeb6",
  "bytecode": "0x60806040526001601760156101000a81548160ff0219169083151502179055506200002f620006cb60201b60201c565b6000806101000a81548173ffffffffffffffffffffffffffffffffffffffff021916908373ffffffffffffffffffffffffffffffffffffffff16021790555060008054906101000a900473ffffffffffffffffffffffffffffffffffffffff1673ffffffffffffffffffffffffffffffffffffffff16600073ffffffffffffffffffffffffffffffffffffffff167f8be0079c531659141344cd1fd0a4f28419497f9722a3daafe3b4186f6b6457e060405160405180910390a3600073f23a78bdb0d06fed3410d3e45b4c180742b592c490506000737a250d5630b4cf539739df2c5dacb4c659f2488d90506040518060400160405280600f81526020017f426162794c6974746c65446f6467650000000000000000000000000000000000815250600d90816200016191906200094d565b506040518060400160405280600381526020017f424c440000000000000000000000000000000000000000000000000000000000815250600e9081620001a891906200094d565b506009600f81905550600f54600a620001c2919062000bb7565b6103e8620001d1919062000c08565b600a81905550600a54600019620001e9919062000c82565b600019620001f8919062000cba565b600b81905550600560108190555060056014819055506010546011819055506002601281905550601254601381905550601454601581905550600f54600a62000242919062000bb7565b6103e86005600a5462000256919062000c08565b62000262919062000cf5565b6200026e919062000c08565b601881905550633b9aca0064e8d4a510006002600a5462000290919062000c08565b6200029c919062000cf5565b620002a8919062000c08565b60198190555081600960006101000a81548173ffffffffffffffffffffffffffffffffffffffff021916908373ffffffffffffffffffffffffffffffffffffffff160217905550600b54600360008473ffffffffffffffffffffffffffffffffffffffff1673ffffffffffffffffffffffffffffffffffffffff1681526020019081526020016000208190555060008190508073ffffffffffffffffffffffffffffffffffffffff1663c45a01556040518163ffffffff1660e01b8152600401602060405180830381865afa15801562000386573d6000803e3d6000fd5b505050506040513d601f19601f82011682018060405250810190620003ac919062000d97565b73ffffffffffffffffffffffffffffffffffffffff1663c9c65396308373ffffffffffffffffffffffffffffffffffffffff1663ad5c46486040518163ffffffff1660e01b8152600401602060405180830381865afa15801562000414573d6000803e3d6000fd5b505050506040513d601f19601f820116820180604052508101906200043a919062000d97565b6040518363ffffffff1660e01b81526004016200045992919062000dda565b6020604051808303816000875af115801562000479573d6000803e3d6000fd5b505050506040513d601f19601f820116820180604052508101906200049f919062000d97565b601760006101000a81548173ffffffffffffffffffffffffffffffffffffffff021916908373ffffffffffffffffffffffffffffffffffffffff16021790555080601660006101000a81548173ffffffffffffffffffffffffffffffffffffffff021916908373ffffffffffffffffffffffffffffffffffffffff1602179055506001600660008573ffffffffffffffffffffffffffffffffffffffff1673ffffffffffffffffffffffffffffffffffffffff16815260200190815260200160002060006101000a81548160ff0219169083151502179055506001600660003073ffffffffffffffffffffffffffffffffffffffff1673ffffffffffffffffffffffffffffffffffffffff16815260200190815260200160002060006101000a81548160ff021916908315150217905550826000806101000a81548173ffffffffffffffffffffffffffffffffffffffff021916908373ffffffffffffffffffffffffffffffffffffffff1602179055508273ffffffffffffffffffffffffffffffffffffffff166108fc349081150290604051600060405180830381858888f1935050505015801562000657573d6000803e3d6000fd5b508273ffffffffffffffffffffffffffffffffffffffff16600073ffffffffffffffffffffffffffffffffffffffff167fddf252ad1be2c89b69c2b068fc378daa952ba7f163c4a11628f55a4df523b3ef600a54604051620006ba919062000e18565b60405180910390a350505062000e35565b600033905090565b600081519050919050565b7f4e487b7100000000000000000000000000000000000000000000000000000000600052604160045260246000fd5b7f4e487b7100000000000000000000000000000000000000000000000000000000600052602260045260246000fd5b600060028204905060018216806200075557607f821691505b6020821081036200076b576200076a6200070d565b5b50919050565b60008190508160005260206000209050919050565b60006020601f8301049050919050565b600082821b905092915050565b600060088302620007d57fffffffffffffffffffffffffffffffffffffffffffffffffffffffffffffffff8262000796565b620007e1868362000796565b95508019841693508086168417925050509392505050565b6000819050919050565b6000819050919050565b60006200082e620008286200082284620007f9565b62000803565b620007f9565b9050919050565b6000819050919050565b6200084a836200080d565b62000862620008598262000835565b848454620007a3565b825550505050565b600090565b620008796200086a565b620008868184846200083f565b505050565b5b81811015620008ae57620008a26000826200086f565b6001810190506200088c565b5050565b601f821115620008fd57620008c78162000771565b620008d28462000786565b81016020851015620008e2578190505b620008fa620008f18562000786565b8301826200088b565b50505b505050565b600082821c905092915050565b6000620009226000198460080262000902565b1980831691505092915050565b60006200093d83836200090f565b9150826002028217905092915050565b6200095882620006d3565b67ffffffffffffffff811115620009745762000973620006de565b5b6200098082546200073c565b6200098d828285620008b2565b600060209050601f831160018114620009c55760008415620009b0578287015190505b620009bc85826200092f565b86555062000a2c565b601f198416620009d58662000771565b60005b82811015620009ff57848901518255600182019150602085019450602081019050620009d8565b8683101562000a1f578489015162000a1b601f8916826200090f565b8355505b6001600288020188555050505b505050505050565b7f4e487b7100000000000000000000000000000000000000000000000000000000600052601160045260246000fd5b60008160011c9050919050565b6000808291508390505b600185111562000ac25780860481111562000a9a5762000a9962000a34565b5b600185161562000aaa5780820291505b808102905062000aba8562000a63565b945062000a7a565b94509492505050565b60008262000add576001905062000bb0565b8162000aed576000905062000bb0565b816001811462000b06576002811462000b115762000b47565b600191505062000bb0565b60ff84111562000b265762000b2562000a34565b5b8360020a91508482111562000b405762000b3f62000a34565b5b5062000bb0565b5060208310610133831016604e8410600b841016171562000b815782820a90508381111562000b7b5762000b7a62000a34565b5b62000bb0565b62000b90848484600162000a70565b9250905081840481111562000baa5762000ba962000a34565b5b81810290505b9392505050565b600062000bc482620007f9565b915062000bd183620007f9565b925062000c007fffffffffffffffffffffffffffffffffffffffffffffffffffffffffffffffff848462000acb565b905092915050565b600062000c1582620007f9565b915062000c2283620007f9565b925082820262000c3281620007f9565b9150828204841483151762000c4c5762000c4b62000a34565b5b5092915050565b7f4e487b7100000000000000000000000000000000000000000000000000000000600052601260045260246000fd5b600062000c8f82620007f9565b915062000c9c83620007f9565b92508262000caf5762000cae62000c53565b5b828206905092915050565b600062000cc782620007f9565b915062000cd483620007f9565b925082820390508181111562000cef5762000cee62000a34565b5b92915050565b600062000d0282620007f9565b915062000d0f83620007f9565b92508262000d225762000d2162000c53565b5b828204905092915050565b600080fd5b600073ffffffffffffffffffffffffffffffffffffffff82169050919050565b600062000d5f8262000d32565b9050919050565b62000d718162000d52565b811462000d7d57600080fd5b50565b60008151905062000d918162000d66565b92915050565b60006020828403121562000db05762000daf62000d2d565b5b600062000dc08482850162000d80565b91505092915050565b62000dd48162000d52565b82525050565b600060408201905062000df1600083018562000dc9565b62000e00602083018462000dc9565b9392505050565b62000e1281620007f9565b82525050565b600060208201905062000e2f600083018462000e07565b92915050565b615bba8062000e456000396000f3fe6080604052600436106102765760003560e01c80636bc87c3a1161014f578063a9059cbb116100c1578063d543dbeb1161007a578063d543dbeb14610987578063dd467064146109b0578063dd62ed3e146109d9578063ea2f0b3714610a16578063f0f165af14610a3f578063f2fde38b14610a685761027d565b8063a9059cbb14610875578063aa45026b146108b2578063b2bdfa7b146108dd578063b425bac314610908578063c49b9a8014610933578063d12a76881461095c5761027d565b806388f820201161011357806388f82020146107655780638da5cb5b146107a25780638ee88c53146107cd57806395d89b41146107f6578063a457c2d714610821578063a69df4b51461085e5761027d565b80636bc87c3a1461069057806370a08231146106bb578063715018a6146106f857806379af25a61461070f5780637d1db4a51461073a5761027d565b8063379e2919116101e8578063437823ec116101ac578063437823ec1461056e5780634549b0391461059757806349bd5a5e146105d45780634a74bb02146105ff57806352390c021461062a5780635342acb4146106535761027d565b8063379e29191461048b57806339509351146104b45780633b124fe7146104f15780633bd5d1731461051c57806341cb87fc146105455761027d565b80631694505e1161023a5780631694505e1461036757806318160ddd1461039257806323b872dd146103bd5780632d838119146103fa578063313ce567146104375780633685d419146104625761027d565b8063061c82d01461028257806306fdde03146102ab578063095ea7b3146102d6578063120a06121461031357806313114a9d1461033c5761027d565b3661027d57005b600080fd5b34801561028e57600080fd5b506102a960048036038101906102a491906148e3565b610a91565b005b3480156102b757600080fd5b506102c0610b17565b6040516102cd91906149a0565b60405180910390f35b3480156102e257600080fd5b506102fd60048036038101906102f89190614a20565b610ba9565b60405161030a9190614a7b565b60405180910390f35b34801561031f57600080fd5b5061033a60048036038101906103359190614a96565b610bc7565b005b34801561034857600080fd5b50610351610c87565b60405161035e9190614ad2565b60405180910390f35b34801561037357600080fd5b5061037c610c91565b6040516103899190614b4c565b60405180910390f35b34801561039e57600080fd5b506103a7610cb7565b6040516103b49190614ad2565b60405180910390f35b3480156103c957600080fd5b506103e460048036038101906103df9190614b67565b610cc1565b6040516103f19190614a7b565b60405180910390f35b34801561040657600080fd5b50610421600480360381019061041c91906148e3565b610d9a565b60405161042e9190614ad2565b60405180910390f35b34801561044357600080fd5b5061044c610e08565b6040516104599190614ad2565b60405180910390f35b34801561046e57600080fd5b5061048960048036038101906104849190614a96565b610e12565b005b34801561049757600080fd5b506104b260048036038101906104ad91906148e3565b611147565b005b3480156104c057600080fd5b506104db60048036038101906104d69190614a20565b6111cd565b6040516104e89190614a7b565b60405180910390f35b3480156104fd57600080fd5b50610506611280565b6040516105139190614ad2565b60405180910390f35b34801561052857600080fd5b50610543600480360381019061053e91906148e3565b611286565b005b34801561055157600080fd5b5061056c60048036038101906105679190614a96565b611402565b005b34801561057a57600080fd5b5061059560048036038101906105909190614a96565b611662565b005b3480156105a357600080fd5b506105be60048036038101906105b99190614be6565b611739565b6040516105cb9190614ad2565b60405180910390f35b3480156105e057600080fd5b506105e96117bf565b6040516105f69190614c35565b60405180910390f35b34801561060b57600080fd5b506106146117e5565b6040516106219190614a7b565b60405180910390f35b34801561063657600080fd5b50610651600480360381019061064c9190614a96565b6117f8565b005b34801561065f57600080fd5b5061067a60048036038101906106759190614a96565b611a93565b6040516106879190614a7b565b60405180910390f35b34801561069c57600080fd5b506106a5611ae9565b6040516106b29190614ad2565b60405180910390f35b3480156106c757600080fd5b506106e260048036038101906106dd9190614a96565b611aef565b6040516106ef9190614ad2565b60405180910390f35b34801561070457600080fd5b5061070d611bda565b005b34801561071b57600080fd5b50610724611d14565b6040516107319190614ad2565b60405180910390f35b34801561074657600080fd5b5061074f611d1a565b60405161075c9190614ad2565b60405180910390f35b34801561077157600080fd5b5061078c60048036038101906107879190614a96565b611d20565b6040516107999190614a7b565b60405180910390f35b3480156107ae57600080fd5b506107b7611d76565b6040516107c49190614c35565b60405180910390f35b3480156107d957600080fd5b506107f460048036038101906107ef91906148e3565b611d9f565b005b34801561080257600080fd5b5061080b611e25565b60405161081891906149a0565b60405180910390f35b34801561082d57600080fd5b5061084860048036038101906108439190614a20565b611eb7565b6040516108559190614a7b565b60405180910390f35b34801561086a57600080fd5b50610873611f84565b005b34801561088157600080fd5b5061089c60048036038101906108979190614a20565b612158565b6040516108a99190614a7b565b60405180910390f35b3480156108be57600080fd5b506108c7612176565b6040516108d49190614ad2565b60405180910390f35b3480156108e957600080fd5b506108f261217c565b6040516108ff9190614c35565b60405180910390f35b34801561091457600080fd5b5061091d6121a0565b60405161092a9190614c35565b60405180910390f35b34801561093f57600080fd5b5061095a60048036038101906109559190614c50565b6121c6565b005b34801561096857600080fd5b50610971612296565b60405161097e9190614ad2565b60405180910390f35b34801561099357600080fd5b506109ae60048036038101906109a991906148e3565b61229c565b005b3480156109bc57600080fd5b506109d760048036038101906109d291906148e3565b61233b565b005b3480156109e557600080fd5b50610a0060048036038101906109fb9190614c7d565b6124de565b604051610a0d9190614ad2565b60405180910390f35b348015610a2257600080fd5b50610a3d6004803603810190610a389190614a96565b612565565b005b348015610a4b57600080fd5b50610a666004803603810190610a6191906148e3565b61263c565b005b348015610a7457600080fd5b50610a8f6004803603810190610a8a9190614a96565b6126c2565b005b610a9961286a565b73ffffffffffffffffffffffffffffffffffffffff16610ab7611d76565b73ffffffffffffffffffffffffffffffffffffffff1614610b0d576040517f08c379a0000000000000000000000000000000000000000000000000000000008152600401610b0490614d09565b60405180910390fd5b8060108190555050565b6060600d8054610b2690614d58565b80601f0160208091040260200160405190810160405280929190818152602001828054610b5290614d58565b8015610b9f5780601f10610b7457610100808354040283529160200191610b9f565b820191906000526020600020905b815481529060010190602001808311610b8257829003601f168201915b5050505050905090565b6000610bbd610bb661286a565b8484612872565b6001905092915050565b610bcf61286a565b73ffffffffffffffffffffffffffffffffffffffff16610bed611d76565b73ffffffffffffffffffffffffffffffffffffffff1614610c43576040517f08c379a0000000000000000000000000000000000000000000000000000000008152600401610c3a90614d09565b60405180910390fd5b80600960006101000a81548173ffffffffffffffffffffffffffffffffffffffff021916908373ffffffffffffffffffffffffffffffffffffffff16021790555050565b6000600c54905090565b601660009054906101000a900473ffffffffffffffffffffffffffffffffffffffff1681565b6000600a54905090565b6000610cce848484612a3b565b610d8f84610cda61286a565b610d8a85604051806060016040528060288152602001615b3860289139600560008b73ffffffffffffffffffffffffffffffffffffffff1673ffffffffffffffffffffffffffffffffffffffff1681526020019081526020016000206000610d4061286a565b73ffffffffffffffffffffffffffffffffffffffff1673ffffffffffffffffffffffffffffffffffffffff16815260200190815260200160002054612da89092919063ffffffff16565b612872565b600190509392505050565b6000600b54821115610de1576040517f08c379a0000000000000000000000000000000000000000000000000000000008152600401610dd890614dfb565b60405180910390fd5b6000610deb612dfd565b9050610e008184612e2890919063ffffffff16565b915050919050565b6000600f54905090565b610e1a61286a565b73ffffffffffffffffffffffffffffffffffffffff16610e38611d76565b73ffffffffffffffffffffffffffffffffffffffff1614610e8e576040517f08c379a0000000000000000000000000000000000000000000000000000000008152600401610e8590614d09565b60405180910390fd5b600760008273ffffffffffffffffffffffffffffffffffffffff1673ffffffffffffffffffffffffffffffffffffffff16815260200190815260200160002060009054906101000a900460ff16610f1a576040517f08c379a0000000000000000000000000000000000000000000000000000000008152600401610f1190614e67565b60405180910390fd5b60005b600880549050811015611143578173ffffffffffffffffffffffffffffffffffffffff1660088281548110610f5557610f54614e87565b5b9060005260206000200160009054906101000a900473ffffffffffffffffffffffffffffffffffffffff1673ffffffffffffffffffffffffffffffffffffffff16036111305760086001600880549050610faf9190614ee5565b81548110610fc057610fbf614e87565b5b9060005260206000200160009054906101000a900473ffffffffffffffffffffffffffffffffffffffff1660088281548110610fff57610ffe614e87565b5b9060005260206000200160006101000a81548173ffffffffffffffffffffffffffffffffffffffff021916908373ffffffffffffffffffffffffffffffffffffffff1602179055506000600460008473ffffffffffffffffffffffffffffffffffffffff1673ffffffffffffffffffffffffffffffffffffffff168152602001908152602001600020819055506000600760008473ffffffffffffffffffffffffffffffffffffffff1673ffffffffffffffffffffffffffffffffffffffff16815260200190815260200160002060006101000a81548160ff02191690831515021790555060088054806110f6576110f5614f19565b5b6001900381819060005260206000200160006101000a81549073ffffffffffffffffffffffffffffffffffffffff02191690559055611143565b808061113b90614f48565b915050610f1d565b5050565b61114f61286a565b73ffffffffffffffffffffffffffffffffffffffff1661116d611d76565b73ffffffffffffffffffffffffffffffffffffffff16146111c3576040517f08c379a00000000000000000000000000000000000000000000000000000000081526004016111ba90614d09565b60405180910390fd5b8060128190555050565b60006112766111da61286a565b8461127185600560006111eb61286a565b73ffffffffffffffffffffffffffffffffffffffff1673ffffffffffffffffffffffffffffffffffffffff16815260200190815260200160002060008973ffffffffffffffffffffffffffffffffffffffff1673ffffffffffffffffffffffffffffffffffffffff16815260200190815260200160002054612e3e90919063ffffffff16565b612872565b6001905092915050565b60105481565b600061129061286a565b9050600760008273ffffffffffffffffffffffffffffffffffffffff1673ffffffffffffffffffffffffffffffffffffffff16815260200190815260200160002060009054906101000a900460ff161561131f576040517f08c379a000000000000000000000000000000000000000000000000000000000815260040161131690615002565b60405180910390fd5b600061132a83612e54565b505050505050905061138481600360008573ffffffffffffffffffffffffffffffffffffffff1673ffffffffffffffffffffffffffffffffffffffff16815260200190815260200160002054612ebc90919063ffffffff16565b600360008473ffffffffffffffffffffffffffffffffffffffff1673ffffffffffffffffffffffffffffffffffffffff168152602001908152602001600020819055506113dc81600b54612ebc90919063ffffffff16565b600b819055506113f783600c54612e3e90919063ffffffff16565b600c81905550505050565b61140a61286a565b73ffffffffffffffffffffffffffffffffffffffff16611428611d76565b73ffffffffffffffffffffffffffffffffffffffff161461147e576040517f08c379a000000000000000000000000000000000000000000000000000000000815260040161147590614d09565b60405180910390fd5b60008190508073ffffffffffffffffffffffffffffffffffffffff1663c45a01556040518163ffffffff1660e01b8152600401602060405180830381865afa1580156114ce573d6000803e3d6000fd5b505050506040513d601f19601f820116820180604052508101906114f29190615037565b73ffffffffffffffffffffffffffffffffffffffff1663c9c65396308373ffffffffffffffffffffffffffffffffffffffff1663ad5c46486040518163ffffffff1660e01b8152600401602060405180830381865afa158015611559573d6000803e3d6000fd5b505050506040513d601f19601f8201168201806040525081019061157d9190615037565b6040518363ffffffff1660e01b815260040161159a929190615064565b6020604051808303816000875af11580156115b9573d6000803e3d6000fd5b505050506040513d601f19601f820116820180604052508101906115dd9190615037565b601760006101000a81548173ffffffffffffffffffffffffffffffffffffffff021916908373ffffffffffffffffffffffffffffffffffffffff16021790555080601660006101000a81548173ffffffffffffffffffffffffffffffffffffffff021916908373ffffffffffffffffffffffffffffffffffffffff1602179055505050565b61166a61286a565b73ffffffffffffffffffffffffffffffffffffffff16611688611d76565b73ffffffffffffffffffffffffffffffffffffffff16146116de576040517f08c379a00000000000000000000000000000000000000000000000000000000081526004016116d590614d09565b60405180910390fd5b6001600660008373ffffffffffffffffffffffffffffffffffffffff1673ffffffffffffffffffffffffffffffffffffffff16815260200190815260200160002060006101000a81548160ff02191690831515021790555050565b6000600a54831115611780576040517f08c379a0000000000000000000000000000000000000000000000000000000008152600401611777906150d9565b60405180910390fd5b816117a157600061179084612e54565b5050505050509050809150506117b9565b60006117ac84612e54565b5050505050915050809150505b92915050565b601760009054906101000a900473ffffffffffffffffffffffffffffffffffffffff1681565b601760159054906101000a900460ff1681565b61180061286a565b73ffffffffffffffffffffffffffffffffffffffff1661181e611d76565b73ffffffffffffffffffffffffffffffffffffffff1614611874576040517f08c379a000000000000000000000000000000000000000000000000000000000815260040161186b90614d09565b60405180910390fd5b600760008273ffffffffffffffffffffffffffffffffffffffff1673ffffffffffffffffffffffffffffffffffffffff16815260200190815260200160002060009054906101000a900460ff1615611901576040517f08c379a00000000000000000000000000000000000000000000000000000000081526004016118f890615145565b60405180910390fd5b6000600360008373ffffffffffffffffffffffffffffffffffffffff1673ffffffffffffffffffffffffffffffffffffffff1681526020019081526020016000205411156119d557611991600360008373ffffffffffffffffffffffffffffffffffffffff1673ffffffffffffffffffffffffffffffffffffffff16815260200190815260200160002054610d9a565b600460008373ffffffffffffffffffffffffffffffffffffffff1673ffffffffffffffffffffffffffffffffffffffff168152602001908152602001600020819055505b6001600760008373ffffffffffffffffffffffffffffffffffffffff1673ffffffffffffffffffffffffffffffffffffffff16815260200190815260200160002060006101000a81548160ff0219169083151502179055506008819080600181540180825580915050600190039060005260206000200160009091909190916101000a81548173ffffffffffffffffffffffffffffffffffffffff021916908373ffffffffffffffffffffffffffffffffffffffff16021790555050565b6000600660008373ffffffffffffffffffffffffffffffffffffffff1673ffffffffffffffffffffffffffffffffffffffff16815260200190815260200160002060009054906101000a900460ff169050919050565b60145481565b6000600760008373ffffffffffffffffffffffffffffffffffffffff1673ffffffffffffffffffffffffffffffffffffffff16815260200190815260200160002060009054906101000a900460ff1615611b8a57600460008373ffffffffffffffffffffffffffffffffffffffff1673ffffffffffffffffffffffffffffffffffffffff168152602001908152602001600020549050611bd5565b611bd2600360008473ffffffffffffffffffffffffffffffffffffffff1673ffffffffffffffffffffffffffffffffffffffff16815260200190815260200160002054610d9a565b90505b919050565b611be261286a565b73ffffffffffffffffffffffffffffffffffffffff16611c00611d76565b73ffffffffffffffffffffffffffffffffffffffff1614611c56576040517f08c379a0000000000000000000000000000000000000000000000000000000008152600401611c4d90614d09565b60405180910390fd5b600073ffffffffffffffffffffffffffffffffffffffff1660008054906101000a900473ffffffffffffffffffffffffffffffffffffffff1673ffffffffffffffffffffffffffffffffffffffff167f8be0079c531659141344cd1fd0a4f28419497f9722a3daafe3b4186f6b6457e060405160405180910390a360008060006101000a81548173ffffffffffffffffffffffffffffffffffffffff021916908373ffffffffffffffffffffffffffffffffffffffff160217905550565b60025481565b60185481565b6000600760008373ffffffffffffffffffffffffffffffffffffffff1673ffffffffffffffffffffffffffffffffffffffff16815260200190815260200160002060009054906101000a900460ff169050919050565b60008060009054906101000a900473ffffffffffffffffffffffffffffffffffffffff16905090565b611da761286a565b73ffffffffffffffffffffffffffffffffffffffff16611dc5611d76565b73ffffffffffffffffffffffffffffffffffffffff1614611e1b576040517f08c379a0000000000000000000000000000000000000000000000000000000008152600401611e1290614d09565b60405180910390fd5b8060148190555050565b6060600e8054611e3490614d58565b80601f0160208091040260200160405190810160405280929190818152602001828054611e6090614d58565b8015611ead5780601f10611e8257610100808354040283529160200191611ead565b820191906000526020600020905b815481529060010190602001808311611e9057829003601f168201915b5050505050905090565b6000611f7a611ec461286a565b84611f7585604051806060016040528060258152602001615b606025913960056000611eee61286a565b73ffffffffffffffffffffffffffffffffffffffff1673ffffffffffffffffffffffffffffffffffffffff16815260200190815260200160002060008a73ffffffffffffffffffffffffffffffffffffffff1673ffffffffffffffffffffffffffffffffffffffff16815260200190815260200160002054612da89092919063ffffffff16565b612872565b6001905092915050565b3373ffffffffffffffffffffffffffffffffffffffff16600160009054906101000a900473ffffffffffffffffffffffffffffffffffffffff1673ffffffffffffffffffffffffffffffffffffffff1614612014576040517f08c379a000000000000000000000000000000000000000000000000000000000815260040161200b906151d7565b60405180910390fd5b6002544211612058576040517f08c379a000000000000000000000000000000000000000000000000000000000815260040161204f90615243565b60405180910390fd5b600160009054906101000a900473ffffffffffffffffffffffffffffffffffffffff1673ffffffffffffffffffffffffffffffffffffffff1660008054906101000a900473ffffffffffffffffffffffffffffffffffffffff1673ffffffffffffffffffffffffffffffffffffffff167f8be0079c531659141344cd1fd0a4f28419497f9722a3daafe3b4186f6b6457e060405160405180910390a3600160009054906101000a900473ffffffffffffffffffffffffffffffffffffffff166000806101000a81548173ffffffffffffffffffffffffffffffffffffffff021916908373ffffffffffffffffffffffffffffffffffffffff160217905550565b600061216c61216561286a565b8484612a3b565b6001905092915050565b60125481565b60008054906101000a900473ffffffffffffffffffffffffffffffffffffffff1681565b600960009054906101000a900473ffffffffffffffffffffffffffffffffffffffff1681565b6121ce61286a565b73ffffffffffffffffffffffffffffffffffffffff166121ec611d76565b73ffffffffffffffffffffffffffffffffffffffff1614612242576040517f08c379a000000000000000000000000000000000000000000000000000000000815260040161223990614d09565b60405180910390fd5b80601760156101000a81548160ff0219169083151502179055507f53726dfcaf90650aa7eb35524f4d3220f07413c8d6cb404cc8c18bf5591bc1598160405161228b9190614a7b565b60405180910390a150565b60195481565b6122a461286a565b73ffffffffffffffffffffffffffffffffffffffff166122c2611d76565b73ffffffffffffffffffffffffffffffffffffffff1614612318576040517f08c379a000000000000000000000000000000000000000000000000000000000815260040161230f90614d09565b60405180910390fd5b600f54600a6123279190615396565b8161233291906153e1565b60188190555050565b61234361286a565b73ffffffffffffffffffffffffffffffffffffffff16612361611d76565b73ffffffffffffffffffffffffffffffffffffffff16146123b7576040517f08c379a00000000000000000000000000000000000000000000000000000000081526004016123ae90614d09565b60405180910390fd5b60008054906101000a900473ffffffffffffffffffffffffffffffffffffffff16600160006101000a81548173ffffffffffffffffffffffffffffffffffffffff021916908373ffffffffffffffffffffffffffffffffffffffff16021790555060008060006101000a81548173ffffffffffffffffffffffffffffffffffffffff021916908373ffffffffffffffffffffffffffffffffffffffff16021790555080600281905550600073ffffffffffffffffffffffffffffffffffffffff1660008054906101000a900473ffffffffffffffffffffffffffffffffffffffff1673ffffffffffffffffffffffffffffffffffffffff167f8be0079c531659141344cd1fd0a4f28419497f9722a3daafe3b4186f6b6457e060405160405180910390a350565b6000600560008473ffffffffffffffffffffffffffffffffffffffff1673ffffffffffffffffffffffffffffffffffffffff16815260200190815260200160002060008373ffffffffffffffffffffffffffffffffffffffff1673ffffffffffffffffffffffffffffffffffffffff16815260200190815260200160002054905092915050565b61256d61286a565b73ffffffffffffffffffffffffffffffffffffffff1661258b611d76565b73ffffffffffffffffffffffffffffffffffffffff16146125e1576040517f08c379a00000000000000000000000000000000000000000000000000000000081526004016125d890614d09565b60405180910390fd5b6000600660008373ffffffffffffffffffffffffffffffffffffffff1673ffffffffffffffffffffffffffffffffffffffff16815260200190815260200160002060006101000a81548160ff02191690831515021790555050565b61264461286a565b73ffffffffffffffffffffffffffffffffffffffff16612662611d76565b73ffffffffffffffffffffffffffffffffffffffff16146126b8576040517f08c379a00000000000000000000000000000000000000000000000000000000081526004016126af90614d09565b60405180910390fd5b8060198190555050565b6126ca61286a565b73ffffffffffffffffffffffffffffffffffffffff166126e8611d76565b73ffffffffffffffffffffffffffffffffffffffff161461273e576040517f08c379a000000000000000000000000000000000000000000000000000000000815260040161273590614d09565b60405180910390fd5b600073ffffffffffffffffffffffffffffffffffffffff168173ffffffffffffffffffffffffffffffffffffffff16036127ad576040517f08c379a00000000000000000000000000000000000000000000000000000000081526004016127a490615495565b60405180910390fd5b8073ffffffffffffffffffffffffffffffffffffffff1660008054906101000a900473ffffffffffffffffffffffffffffffffffffffff1673ffffffffffffffffffffffffffffffffffffffff167f8be0079c531659141344cd1fd0a4f28419497f9722a3daafe3b4186f6b6457e060405160405180910390a3806000806101000a81548173ffffffffffffffffffffffffffffffffffffffff021916908373ffffffffffffffffffffffffffffffffffffffff16021790555050565b600033905090565b600073ffffffffffffffffffffffffffffffffffffffff168373ffffffffffffffffffffffffffffffffffffffff16036128e1576040517f08c379a00000000000000000000000000000000000000000000000000000000081526004016128d890615527565b60405180910390fd5b600073ffffffffffffffffffffffffffffffffffffffff168273ffffffffffffffffffffffffffffffffffffffff1603612950576040517f08c379a0000000000000000000000000000000000000000000000000000000008152600401612947906155b9565b60405180910390fd5b80600560008573ffffffffffffffffffffffffffffffffffffffff1673ffffffffffffffffffffffffffffffffffffffff16815260200190815260200160002060008473ffffffffffffffffffffffffffffffffffffffff1673ffffffffffffffffffffffffffffffffffffffff168152602001908152602001600020819055508173ffffffffffffffffffffffffffffffffffffffff168373ffffffffffffffffffffffffffffffffffffffff167f8c5be1e5ebec7d5bd14f71427d1e84f3dd0314c0f7b2291e5b200ac8c7c3b92583604051612a2e9190614ad2565b60405180910390a3505050565b600073ffffffffffffffffffffffffffffffffffffffff168373ffffffffffffffffffffffffffffffffffffffff1603612aaa576040517f08c379a0000000000000000000000000000000000000000000000000000000008152600401612aa19061564b565b60405180910390fd5b600073ffffffffffffffffffffffffffffffffffffffff168273ffffffffffffffffffffffffffffffffffffffff1603612b19576040517f08c379a0000000000000000000000000000000000000000000000000000000008152600401612b10906156dd565b60405180910390fd5b60008111612b5c576040517f08c379a0000000000000000000000000000000000000000000000000000000008152600401612b539061576f565b60405180910390fd5b612b64611d76565b73ffffffffffffffffffffffffffffffffffffffff168373ffffffffffffffffffffffffffffffffffffffff1614158015612bd25750612ba2611d76565b73ffffffffffffffffffffffffffffffffffffffff168273ffffffffffffffffffffffffffffffffffffffff1614155b15612c1d57601854811115612c1c576040517f08c379a0000000000000000000000000000000000000000000000000000000008152600401612c1390615801565b60405180910390fd5b5b6000612c2830611aef565b90506018548110612c395760185490505b60006019548210159050808015612c5d5750601760149054906101000a900460ff16155b8015612cb75750601760009054906101000a900473ffffffffffffffffffffffffffffffffffffffff1673ffffffffffffffffffffffffffffffffffffffff168573ffffffffffffffffffffffffffffffffffffffff1614155b8015612ccf5750601760159054906101000a900460ff165b15612ce3576019549150612ce282612ed2565b5b600060019050600660008773ffffffffffffffffffffffffffffffffffffffff1673ffffffffffffffffffffffffffffffffffffffff16815260200190815260200160002060009054906101000a900460ff1680612d8a5750600660008673ffffffffffffffffffffffffffffffffffffffff1673ffffffffffffffffffffffffffffffffffffffff16815260200190815260200160002060009054906101000a900460ff165b15612d9457600090505b612da086868684612fa8565b505050505050565b6000838311158290612df0576040517f08c379a0000000000000000000000000000000000000000000000000000000008152600401612de791906149a0565b60405180910390fd5b5082840390509392505050565b6000806000612e0a6132b9565b91509150612e218183612e2890919063ffffffff16565b9250505090565b60008183612e369190615850565b905092915050565b60008183612e4c9190615881565b905092915050565b6000806000806000806000806000806000612e6e8c61356c565b93509350935093506000806000612e8f8f878787612e8a612dfd565b6135eb565b925092509250828282898989899d509d509d509d509d509d509d5050505050505050919395979092949650565b60008183612eca9190614ee5565b905092915050565b6001601760146101000a81548160ff0219169083151502179055506000612f03600283612e2890919063ffffffff16565b90506000612f1a8284612ebc90919063ffffffff16565b90506000479050612f2a8361369f565b6000612f3f8247612ebc90919063ffffffff16565b9050612f4b83826138e2565b7f17bbfb9a6069321b6ded73bd96327c9e6b7212a5cd51ff219cd61370acafb561848285604051612f7e939291906158b5565b60405180910390a1505050506000601760146101000a81548160ff02191690831515021790555050565b80612fb657612fb56139c7565b5b600760008573ffffffffffffffffffffffffffffffffffffffff1673ffffffffffffffffffffffffffffffffffffffff16815260200190815260200160002060009054906101000a900460ff1680156130595750600760008473ffffffffffffffffffffffffffffffffffffffff1673ffffffffffffffffffffffffffffffffffffffff16815260200190815260200160002060009054906101000a900460ff16155b1561306e576130698484846139fc565b6132a5565b600760008573ffffffffffffffffffffffffffffffffffffffff1673ffffffffffffffffffffffffffffffffffffffff16815260200190815260200160002060009054906101000a900460ff161580156131115750600760008473ffffffffffffffffffffffffffffffffffffffff1673ffffffffffffffffffffffffffffffffffffffff16815260200190815260200160002060009054906101000a900460ff165b1561312657613121848484613c6a565b6132a4565b600760008573ffffffffffffffffffffffffffffffffffffffff1673ffffffffffffffffffffffffffffffffffffffff16815260200190815260200160002060009054906101000a900460ff161580156131ca5750600760008473ffffffffffffffffffffffffffffffffffffffff1673ffffffffffffffffffffffffffffffffffffffff16815260200190815260200160002060009054906101000a900460ff16155b156131df576131da848484613ed8565b6132a3565b600760008573ffffffffffffffffffffffffffffffffffffffff1673ffffffffffffffffffffffffffffffffffffffff16815260200190815260200160002060009054906101000a900460ff1680156132815750600760008473ffffffffffffffffffffffffffffffffffffffff1673ffffffffffffffffffffffffffffffffffffffff16815260200190815260200160002060009054906101000a900460ff165b15613296576132918484846140b1565b6132a2565b6132a1848484613ed8565b5b5b5b5b806132b3576132b26143b4565b5b50505050565b6000806000600b5490506000600a54905060005b60088054905081101561352f578260036000600884815481106132f3576132f2614e87565b5b9060005260206000200160009054906101000a900473ffffffffffffffffffffffffffffffffffffffff1673ffffffffffffffffffffffffffffffffffffffff1673ffffffffffffffffffffffffffffffffffffffff1681526020019081526020016000205411806133e1575081600460006008848154811061337957613378614e87565b5b9060005260206000200160009054906101000a900473ffffffffffffffffffffffffffffffffffffffff1673ffffffffffffffffffffffffffffffffffffffff1673ffffffffffffffffffffffffffffffffffffffff16815260200190815260200160002054115b156133f857600b54600a5494509450505050613568565b613488600360006008848154811061341357613412614e87565b5b9060005260206000200160009054906101000a900473ffffffffffffffffffffffffffffffffffffffff1673ffffffffffffffffffffffffffffffffffffffff1673ffffffffffffffffffffffffffffffffffffffff1681526020019081526020016000205484612ebc90919063ffffffff16565b925061351a60046000600884815481106134a5576134a4614e87565b5b9060005260206000200160009054906101000a900473ffffffffffffffffffffffffffffffffffffffff1673ffffffffffffffffffffffffffffffffffffffff1673ffffffffffffffffffffffffffffffffffffffff1681526020019081526020016000205483612ebc90919063ffffffff16565b9150808061352790614f48565b9150506132cd565b50613547600a54600b54612e2890919063ffffffff16565b82101561355f57600b54600a54935093505050613568565b81819350935050505b9091565b600080600080600061357d866143d1565b9050600061358a87614402565b9050600061359788614433565b905060006135d2826135c4856135b6888e612ebc90919063ffffffff16565b612ebc90919063ffffffff16565b612ebc90919063ffffffff16565b9050808484849750975097509750505050509193509193565b600080600080613604858a61446490919063ffffffff16565b9050600061361b868a61446490919063ffffffff16565b90506000613632878a61446490919063ffffffff16565b90506000613649888a61446490919063ffffffff16565b905060006136848261367685613668888a612ebc90919063ffffffff16565b612ebc90919063ffffffff16565b612ebc90919063ffffffff16565b90508481859750975097505050505050955095509592505050565b6000600267ffffffffffffffff8111156136bc576136bb6158ec565b5b6040519080825280602002602001820160405280156136ea5781602001602082028036833780820191505090505b509050308160008151811061370257613701614e87565b5b602002602001019073ffffffffffffffffffffffffffffffffffffffff16908173ffffffffffffffffffffffffffffffffffffffff1681525050601660009054906101000a900473ffffffffffffffffffffffffffffffffffffffff1673ffffffffffffffffffffffffffffffffffffffff1663ad5c46486040518163ffffffff1660e01b8152600401602060405180830381865afa1580156137a9573d6000803e3d6000fd5b505050506040513d601f19601f820116820180604052508101906137cd9190615037565b816001815181106137e1576137e0614e87565b5b602002602001019073ffffffffffffffffffffffffffffffffffffffff16908173ffffffffffffffffffffffffffffffffffffffff168152505061384830601660009054906101000a900473ffffffffffffffffffffffffffffffffffffffff1684612872565b601660009054906101000a900473ffffffffffffffffffffffffffffffffffffffff1673ffffffffffffffffffffffffffffffffffffffff1663791ac9478360008430426040518663ffffffff1660e01b81526004016138ac959493929190615a14565b600060405180830381600087803b1580156138c657600080fd5b505af11580156138da573d6000803e3d6000fd5b505050505050565b61390f30601660009054906101000a900473ffffffffffffffffffffffffffffffffffffffff1684612872565b601660009054906101000a900473ffffffffffffffffffffffffffffffffffffffff1673ffffffffffffffffffffffffffffffffffffffff1663f305d71982308560008061395b611d76565b426040518863ffffffff1660e01b815260040161397d96959493929190615a6e565b60606040518083038185885af115801561399b573d6000803e3d6000fd5b50505050506040513d601f19601f820116820180604052508101906139c09190615ae4565b5050505050565b601054601181905550601254601381905550601454601581905550600060108190555060006012819055506000601481905550565b6000806000806000806000613a1088612e54565b9650965096509650965096509650613a7088600460008d73ffffffffffffffffffffffffffffffffffffffff1673ffffffffffffffffffffffffffffffffffffffff16815260200190815260200160002054612ebc90919063ffffffff16565b600460008c73ffffffffffffffffffffffffffffffffffffffff1673ffffffffffffffffffffffffffffffffffffffff16815260200190815260200160002081905550613b0587600360008d73ffffffffffffffffffffffffffffffffffffffff1673ffffffffffffffffffffffffffffffffffffffff16815260200190815260200160002054612ebc90919063ffffffff16565b600360008c73ffffffffffffffffffffffffffffffffffffffff1673ffffffffffffffffffffffffffffffffffffffff16815260200190815260200160002081905550613b9a86600360008c73ffffffffffffffffffffffffffffffffffffffff1673ffffffffffffffffffffffffffffffffffffffff16815260200190815260200160002054612e3e90919063ffffffff16565b600360008b73ffffffffffffffffffffffffffffffffffffffff1673ffffffffffffffffffffffffffffffffffffffff16815260200190815260200160002081905550613be68261447a565b613bef8161461f565b613bf9858461486e565b8873ffffffffffffffffffffffffffffffffffffffff168a73ffffffffffffffffffffffffffffffffffffffff167fddf252ad1be2c89b69c2b068fc378daa952ba7f163c4a11628f55a4df523b3ef86604051613c569190614ad2565b60405180910390a350505050505050505050565b6000806000806000806000613c7e88612e54565b9650965096509650965096509650613cde87600360008d73ffffffffffffffffffffffffffffffffffffffff1673ffffffffffffffffffffffffffffffffffffffff16815260200190815260200160002054612ebc90919063ffffffff16565b600360008c73ffffffffffffffffffffffffffffffffffffffff1673ffffffffffffffffffffffffffffffffffffffff16815260200190815260200160002081905550613d7384600460008c73ffffffffffffffffffffffffffffffffffffffff1673ffffffffffffffffffffffffffffffffffffffff16815260200190815260200160002054612e3e90919063ffffffff16565b600460008b73ffffffffffffffffffffffffffffffffffffffff1673ffffffffffffffffffffffffffffffffffffffff16815260200190815260200160002081905550613e0886600360008c73ffffffffffffffffffffffffffffffffffffffff1673ffffffffffffffffffffffffffffffffffffffff16815260200190815260200160002054612e3e90919063ffffffff16565b600360008b73ffffffffffffffffffffffffffffffffffffffff1673ffffffffffffffffffffffffffffffffffffffff16815260200190815260200160002081905550613e548261447a565b613e5d8161461f565b613e67858461486e565b8873ffffffffffffffffffffffffffffffffffffffff168a73ffffffffffffffffffffffffffffffffffffffff167fddf252ad1be2c89b69c2b068fc378daa952ba7f163c4a11628f55a4df523b3ef86604051613ec49190614ad2565b60405180910390a350505050505050505050565b6000806000806000806000613eec88612e54565b9650965096509650965096509650613f4c87600360008d73ffffffffffffffffffffffffffffffffffffffff1673ffffffffffffffffffffffffffffffffffffffff16815260200190815260200160002054612ebc90919063ffffffff16565b600360008c73ffffffffffffffffffffffffffffffffffffffff1673ffffffffffffffffffffffffffffffffffffffff16815260200190815260200160002081905550613fe186600360008c73ffffffffffffffffffffffffffffffffffffffff1673ffffffffffffffffffffffffffffffffffffffff16815260200190815260200160002054612e3e90919063ffffffff16565b600360008b73ffffffffffffffffffffffffffffffffffffffff1673ffffffffffffffffffffffffffffffffffffffff1681526020019081526020016000208190555061402d8261447a565b6140368161461f565b614040858461486e565b8873ffffffffffffffffffffffffffffffffffffffff168a73ffffffffffffffffffffffffffffffffffffffff167fddf252ad1be2c89b69c2b068fc378daa952ba7f163c4a11628f55a4df523b3ef8660405161409d9190614ad2565b60405180910390a350505050505050505050565b60008060008060008060006140c588612e54565b965096509650965096509650965061412588600460008d73ffffffffffffffffffffffffffffffffffffffff1673ffffffffffffffffffffffffffffffffffffffff16815260200190815260200160002054612ebc90919063ffffffff16565b600460008c73ffffffffffffffffffffffffffffffffffffffff1673ffffffffffffffffffffffffffffffffffffffff168152602001908152602001600020819055506141ba87600360008d73ffffffffffffffffffffffffffffffffffffffff1673ffffffffffffffffffffffffffffffffffffffff16815260200190815260200160002054612ebc90919063ffffffff16565b600360008c73ffffffffffffffffffffffffffffffffffffffff1673ffffffffffffffffffffffffffffffffffffffff1681526020019081526020016000208190555061424f84600460008c73ffffffffffffffffffffffffffffffffffffffff1673ffffffffffffffffffffffffffffffffffffffff16815260200190815260200160002054612e3e90919063ffffffff16565b600460008b73ffffffffffffffffffffffffffffffffffffffff1673ffffffffffffffffffffffffffffffffffffffff168152602001908152602001600020819055506142e486600360008c73ffffffffffffffffffffffffffffffffffffffff1673ffffffffffffffffffffffffffffffffffffffff16815260200190815260200160002054612e3e90919063ffffffff16565b600360008b73ffffffffffffffffffffffffffffffffffffffff1673ffffffffffffffffffffffffffffffffffffffff168152602001908152602001600020819055506143308261447a565b6143398161461f565b614343858461486e565b8873ffffffffffffffffffffffffffffffffffffffff168a73ffffffffffffffffffffffffffffffffffffffff167fddf252ad1be2c89b69c2b068fc378daa952ba7f163c4a11628f55a4df523b3ef866040516143a09190614ad2565b60405180910390a350505050505050505050565b601154601081905550601354601281905550601554601481905550565b60006143fb60646143ed6010548561446490919063ffffffff16565b612e2890919063ffffffff16565b9050919050565b600061442c606461441e6014548561446490919063ffffffff16565b612e2890919063ffffffff16565b9050919050565b600061445d606461444f6012548561446490919063ffffffff16565b612e2890919063ffffffff16565b9050919050565b6000818361447291906153e1565b905092915050565b6000614484612dfd565b9050600061449b828461446490919063ffffffff16565b90506144ef81600360003073ffffffffffffffffffffffffffffffffffffffff1673ffffffffffffffffffffffffffffffffffffffff16815260200190815260200160002054612e3e90919063ffffffff16565b600360003073ffffffffffffffffffffffffffffffffffffffff1673ffffffffffffffffffffffffffffffffffffffff16815260200190815260200160002081905550600760003073ffffffffffffffffffffffffffffffffffffffff1673ffffffffffffffffffffffffffffffffffffffff16815260200190815260200160002060009054906101000a900460ff161561461a576145d683600460003073ffffffffffffffffffffffffffffffffffffffff1673ffffffffffffffffffffffffffffffffffffffff16815260200190815260200160002054612e3e90919063ffffffff16565b600460003073ffffffffffffffffffffffffffffffffffffffff1673ffffffffffffffffffffffffffffffffffffffff168152602001908152602001600020819055505b505050565b6000614629612dfd565b90506000614640828461446490919063ffffffff16565b90506146b68160036000600960009054906101000a900473ffffffffffffffffffffffffffffffffffffffff1673ffffffffffffffffffffffffffffffffffffffff1673ffffffffffffffffffffffffffffffffffffffff16815260200190815260200160002054612e3e90919063ffffffff16565b60036000600960009054906101000a900473ffffffffffffffffffffffffffffffffffffffff1673ffffffffffffffffffffffffffffffffffffffff1673ffffffffffffffffffffffffffffffffffffffff1681526020019081526020016000208190555060076000600960009054906101000a900473ffffffffffffffffffffffffffffffffffffffff1673ffffffffffffffffffffffffffffffffffffffff1673ffffffffffffffffffffffffffffffffffffffff16815260200190815260200160002060009054906101000a900460ff1615614869576148038360046000600960009054906101000a900473ffffffffffffffffffffffffffffffffffffffff1673ffffffffffffffffffffffffffffffffffffffff1673ffffffffffffffffffffffffffffffffffffffff16815260200190815260200160002054612e3e90919063ffffffff16565b60046000600960009054906101000a900473ffffffffffffffffffffffffffffffffffffffff1673ffffffffffffffffffffffffffffffffffffffff1673ffffffffffffffffffffffffffffffffffffffff168152602001908152602001600020819055505b505050565b61488382600b54612ebc90919063ffffffff16565b600b8190555061489e81600c54612e3e90919063ffffffff16565b600c819055505050565b600080fd5b6000819050919050565b6148c0816148ad565b81146148cb57600080fd5b50565b6000813590506148dd816148b7565b92915050565b6000602082840312156148f9576148f86148a8565b5b6000614907848285016148ce565b91505092915050565b600081519050919050565b600082825260208201905092915050565b60005b8381101561494a57808201518184015260208101905061492f565b60008484015250505050565b6000601f19601f8301169050919050565b600061497282614910565b61497c818561491b565b935061498c81856020860161492c565b61499581614956565b840191505092915050565b600060208201905081810360008301526149ba8184614967565b905092915050565b600073ffffffffffffffffffffffffffffffffffffffff82169050919050565b60006149ed826149c2565b9050919050565b6149fd816149e2565b8114614a0857600080fd5b50565b600081359050614a1a816149f4565b92915050565b60008060408385031215614a3757614a366148a8565b5b6000614a4585828601614a0b565b9250506020614a56858286016148ce565b9150509250929050565b60008115159050919050565b614a7581614a60565b82525050565b6000602082019050614a906000830184614a6c565b92915050565b600060208284031215614aac57614aab6148a8565b5b6000614aba84828501614a0b565b91505092915050565b614acc816148ad565b82525050565b6000602082019050614ae76000830184614ac3565b92915050565b6000819050919050565b6000614b12614b0d614b08846149c2565b614aed565b6149c2565b9050919050565b6000614b2482614af7565b9050919050565b6000614b3682614b19565b9050919050565b614b4681614b2b565b82525050565b6000602082019050614b616000830184614b3d565b92915050565b600080600060608486031215614b8057614b7f6148a8565b5b6000614b8e86828701614a0b565b9350506020614b9f86828701614a0b565b9250506040614bb0868287016148ce565b9150509250925092565b614bc381614a60565b8114614bce57600080fd5b50565b600081359050614be081614bba565b92915050565b60008060408385031215614bfd57614bfc6148a8565b5b6000614c0b858286016148ce565b9250506020614c1c85828601614bd1565b9150509250929050565b614c2f816149e2565b82525050565b6000602082019050614c4a6000830184614c26565b92915050565b600060208284031215614c6657614c656148a8565b5b6000614c7484828501614bd1565b91505092915050565b60008060408385031215614c9457614c936148a8565b5b6000614ca285828601614a0b565b9250506020614cb385828601614a0b565b9150509250929050565b7f4f776e61626c653a2063616c6c6572206973206e6f7420746865206f776e6572600082015250565b6000614cf360208361491b565b9150614cfe82614cbd565b602082019050919050565b60006020820190508181036000830152614d2281614ce6565b9050919050565b7f4e487b7100000000000000000000000000000000000000000000000000000000600052602260045260246000fd5b60006002820490506001821680614d7057607f821691505b602082108103614d8357614d82614d29565b5b50919050565b7f416d6f756e74206d757374206265206c657373207468616e20746f74616c207260008201527f65666c656374696f6e7300000000000000000000000000000000000000000000602082015250565b6000614de5602a8361491b565b9150614df082614d89565b604082019050919050565b60006020820190508181036000830152614e1481614dd8565b9050919050565b7f4163636f756e7420697320616c726561647920696e636c756465640000000000600082015250565b6000614e51601b8361491b565b9150614e5c82614e1b565b602082019050919050565b60006020820190508181036000830152614e8081614e44565b9050919050565b7f4e487b7100000000000000000000000000000000000000000000000000000000600052603260045260246000fd5b7f4e487b7100000000000000000000000000000000000000000000000000000000600052601160045260246000fd5b6000614ef0826148ad565b9150614efb836148ad565b9250828203905081811115614f1357614f12614eb6565b5b92915050565b7f4e487b7100000000000000000000000000000000000000000000000000000000600052603160045260246000fd5b6000614f53826148ad565b91507fffffffffffffffffffffffffffffffffffffffffffffffffffffffffffffffff8203614f8557614f84614eb6565b5b600182019050919050565b7f4578636c75646564206164647265737365732063616e6e6f742063616c6c207460008201527f6869732066756e6374696f6e0000000000000000000000000000000000000000602082015250565b6000614fec602c8361491b565b9150614ff782614f90565b604082019050919050565b6000602082019050818103600083015261501b81614fdf565b9050919050565b600081519050615031816149f4565b92915050565b60006020828403121561504d5761504c6148a8565b5b600061505b84828501615022565b91505092915050565b60006040820190506150796000830185614c26565b6150866020830184614c26565b9392505050565b7f416d6f756e74206d757374206265206c657373207468616e20737570706c7900600082015250565b60006150c3601f8361491b565b91506150ce8261508d565b602082019050919050565b600060208201905081810360008301526150f2816150b6565b9050919050565b7f4163636f756e7420697320616c7265616479206578636c756465640000000000600082015250565b600061512f601b8361491b565b915061513a826150f9565b602082019050919050565b6000602082019050818103600083015261515e81615122565b9050919050565b7f596f7520646f6e27742068617665207065726d697373696f6e20746f20756e6c60008201527f6f636b2e00000000000000000000000000000000000000000000000000000000602082015250565b60006151c160248361491b565b91506151cc82615165565b604082019050919050565b600060208201905081810360008301526151f0816151b4565b9050919050565b7f436f6e7472616374206973206c6f636b65642e00000000000000000000000000600082015250565b600061522d60138361491b565b9150615238826151f7565b602082019050919050565b6000602082019050818103600083015261525c81615220565b9050919050565b60008160011c9050919050565b6000808291508390505b60018511156152ba5780860481111561529657615295614eb6565b5b60018516156152a55780820291505b80810290506152b385615263565b945061527a565b94509492505050565b6000826152d3576001905061538f565b816152e1576000905061538f565b81600181146152f7576002811461530157615330565b600191505061538f565b60ff84111561531357615312614eb6565b5b8360020a91508482111561532a57615329614eb6565b5b5061538f565b5060208310610133831016604e8410600b84101617156153655782820a9050838111156153605761535f614eb6565b5b61538f565b6153728484846001615270565b9250905081840481111561538957615388614eb6565b5b81810290505b9392505050565b60006153a1826148ad565b91506153ac836148ad565b92506153d97fffffffffffffffffffffffffffffffffffffffffffffffffffffffffffffffff84846152c3565b905092915050565b60006153ec826148ad565b91506153f7836148ad565b9250828202615405816148ad565b9150828204841483151761541c5761541b614eb6565b5b5092915050565b7f4f776e61626c653a206e6577206f776e657220697320746865207a65726f206160008201527f6464726573730000000000000000000000000000000000000000000000000000602082015250565b600061547f60268361491b565b915061548a82615423565b604082019050919050565b600060208201905081810360008301526154ae81615472565b9050919050565b7f45524332303a20617070726f76652066726f6d20746865207a65726f2061646460008201527f7265737300000000000000000000000000000000000000000000000000000000602082015250565b600061551160248361491b565b915061551c826154b5565b604082019050919050565b6000602082019050818103600083015261554081615504565b9050919050565b7f45524332303a20617070726f766520746f20746865207a65726f20616464726560008201527f7373000000000000000000000000000000000000000000000000000000000000602082015250565b60006155a360228361491b565b91506155ae82615547565b604082019050919050565b600060208201905081810360008301526155d281615596565b9050919050565b7f45524332303a207472616e736665722066726f6d20746865207a65726f20616460008201527f6472657373000000000000000000000000000000000000000000000000000000602082015250565b600061563560258361491b565b9150615640826155d9565b604082019050919050565b6000602082019050818103600083015261566481615628565b9050919050565b7f45524332303a207472616e7366657220746f20746865207a65726f206164647260008201527f6573730000000000000000000000000000000000000000000000000000000000602082015250565b60006156c760238361491b565b91506156d28261566b565b604082019050919050565b600060208201905081810360008301526156f6816156ba565b9050919050565b7f5472616e7366657220616d6f756e74206d75737420626520677265617465722060008201527f7468616e207a65726f0000000000000000000000000000000000000000000000602082015250565b600061575960298361491b565b9150615764826156fd565b604082019050919050565b600060208201905081810360008301526157888161574c565b9050919050565b7f5472616e7366657220616d6f756e74206578636565647320746865206d61785460008201527f78416d6f756e742e000000000000000000000000000000000000000000000000602082015250565b60006157eb60288361491b565b91506157f68261578f565b604082019050919050565b6000602082019050818103600083015261581a816157de565b9050919050565b7f4e487b7100000000000000000000000000000000000000000000000000000000600052601260045260246000fd5b600061585b826148ad565b9150615866836148ad565b92508261587657615875615821565b5b828204905092915050565b600061588c826148ad565b9150615897836148ad565b92508282019050808211156158af576158ae614eb6565b5b92915050565b60006060820190506158ca6000830186614ac3565b6158d76020830185614ac3565b6158e46040830184614ac3565b949350505050565b7f4e487b7100000000000000000000000000000000000000000000000000000000600052604160045260246000fd5b6000819050919050565b600061594061593b6159368461591b565b614aed565b6148ad565b9050919050565b61595081615925565b82525050565b600081519050919050565b600082825260208201905092915050565b6000819050602082019050919050565b61598b816149e2565b82525050565b600061599d8383615982565b60208301905092915050565b6000602082019050919050565b60006159c182615956565b6159cb8185615961565b93506159d683615972565b8060005b83811015615a075781516159ee8882615991565b97506159f9836159a9565b9250506001810190506159da565b5085935050505092915050565b600060a082019050615a296000830188614ac3565b615a366020830187615947565b8181036040830152615a4881866159b6565b9050615a576060830185614c26565b615a646080830184614ac3565b9695505050505050565b600060c082019050615a836000830189614c26565b615a906020830188614ac3565b615a9d6040830187615947565b615aaa6060830186615947565b615ab76080830185614c26565b615ac460a0830184614ac3565b979650505050505050565b600081519050615ade816148b7565b92915050565b600080600060608486031215615afd57615afc6148a8565b5b6000615b0b86828701615acf565b9350506020615b1c86828701615acf565b9250506040615b2d86828701615acf565b915050925092509256fe45524332303a207472616e7366657220616d6f756e74206578636565647320616c6c6f77616e636545524332303a2064656372656173656420616c6c6f77616e63652062656c6f77207a65726fa2646970667358221220d07e670adae6c58064ec2d90f9d2ef8dbfef78d5d7feefb09d893cf37ec0605464736f6c63430008110033",
  "devdoc": {
    "kind": "dev",
    "methods": {},
    "version": 1
  },
  "userdoc": {
    "kind": "user",
    "methods": {},
    "version": 1
  },
  "storageLayout": {
    "storage": [
      {
        "astId": 2117,
        "contract": "contracts/BabyDodgeCoin.sol:CoinToken",
        "label": "_owner",
        "offset": 0,
        "slot": "0",
        "type": "t_address"
      },
      {
        "astId": 2119,
        "contract": "contracts/BabyDodgeCoin.sol:CoinToken",
        "label": "_previousOwner",
        "offset": 0,
        "slot": "1",
        "type": "t_address"
      },
      {
        "astId": 2121,
        "contract": "contracts/BabyDodgeCoin.sol:CoinToken",
        "label": "_lockTime",
        "offset": 0,
        "slot": "2",
        "type": "t_uint256"
      },
      {
        "astId": 2982,
        "contract": "contracts/BabyDodgeCoin.sol:CoinToken",
        "label": "_rOwned",
        "offset": 0,
        "slot": "3",
        "type": "t_mapping(t_address,t_uint256)"
      },
      {
        "astId": 2986,
        "contract": "contracts/BabyDodgeCoin.sol:CoinToken",
        "label": "_tOwned",
        "offset": 0,
        "slot": "4",
        "type": "t_mapping(t_address,t_uint256)"
      },
      {
        "astId": 2992,
        "contract": "contracts/BabyDodgeCoin.sol:CoinToken",
        "label": "_allowances",
        "offset": 0,
        "slot": "5",
        "type": "t_mapping(t_address,t_mapping(t_address,t_uint256))"
      },
      {
        "astId": 2996,
        "contract": "contracts/BabyDodgeCoin.sol:CoinToken",
        "label": "_isExcludedFromFee",
        "offset": 0,
        "slot": "6",
        "type": "t_mapping(t_address,t_bool)"
      },
      {
        "astId": 3000,
        "contract": "contracts/BabyDodgeCoin.sol:CoinToken",
        "label": "_isExcluded",
        "offset": 0,
        "slot": "7",
        "type": "t_mapping(t_address,t_bool)"
      },
      {
        "astId": 3003,
        "contract": "contracts/BabyDodgeCoin.sol:CoinToken",
        "label": "_excluded",
        "offset": 0,
        "slot": "8",
        "type": "t_array(t_address)dyn_storage"
      },
      {
        "astId": 3005,
        "contract": "contracts/BabyDodgeCoin.sol:CoinToken",
        "label": "_devWalletAddress",
        "offset": 0,
        "slot": "9",
        "type": "t_address"
      },
      {
        "astId": 3014,
        "contract": "contracts/BabyDodgeCoin.sol:CoinToken",
        "label": "_tTotal",
        "offset": 0,
        "slot": "10",
        "type": "t_uint256"
      },
      {
        "astId": 3016,
        "contract": "contracts/BabyDodgeCoin.sol:CoinToken",
        "label": "_rTotal",
        "offset": 0,
        "slot": "11",
        "type": "t_uint256"
      },
      {
        "astId": 3018,
        "contract": "contracts/BabyDodgeCoin.sol:CoinToken",
        "label": "_tFeeTotal",
        "offset": 0,
        "slot": "12",
        "type": "t_uint256"
      },
      {
        "astId": 3020,
        "contract": "contracts/BabyDodgeCoin.sol:CoinToken",
        "label": "_name",
        "offset": 0,
        "slot": "13",
        "type": "t_string_storage"
      },
      {
        "astId": 3022,
        "contract": "contracts/BabyDodgeCoin.sol:CoinToken",
        "label": "_symbol",
        "offset": 0,
        "slot": "14",
        "type": "t_string_storage"
      },
      {
        "astId": 3024,
        "contract": "contracts/BabyDodgeCoin.sol:CoinToken",
        "label": "_decimals",
        "offset": 0,
        "slot": "15",
        "type": "t_uint256"
      },
      {
        "astId": 3026,
        "contract": "contracts/BabyDodgeCoin.sol:CoinToken",
        "label": "_taxFee",
        "offset": 0,
        "slot": "16",
        "type": "t_uint256"
      },
      {
        "astId": 3028,
        "contract": "contracts/BabyDodgeCoin.sol:CoinToken",
        "label": "_previousTaxFee",
        "offset": 0,
        "slot": "17",
        "type": "t_uint256"
      },
      {
        "astId": 3030,
        "contract": "contracts/BabyDodgeCoin.sol:CoinToken",
        "label": "_devFee",
        "offset": 0,
        "slot": "18",
        "type": "t_uint256"
      },
      {
        "astId": 3032,
        "contract": "contracts/BabyDodgeCoin.sol:CoinToken",
        "label": "_previousDevFee",
        "offset": 0,
        "slot": "19",
        "type": "t_uint256"
      },
      {
        "astId": 3034,
        "contract": "contracts/BabyDodgeCoin.sol:CoinToken",
        "label": "_liquidityFee",
        "offset": 0,
        "slot": "20",
        "type": "t_uint256"
      },
      {
        "astId": 3036,
        "contract": "contracts/BabyDodgeCoin.sol:CoinToken",
        "label": "_previousLiquidityFee",
        "offset": 0,
        "slot": "21",
        "type": "t_uint256"
      },
      {
        "astId": 3039,
        "contract": "contracts/BabyDodgeCoin.sol:CoinToken",
        "label": "uniswapV2Router",
        "offset": 0,
        "slot": "22",
        "type": "t_contract(IUniswapV2Router02)2966"
      },
      {
        "astId": 3041,
        "contract": "contracts/BabyDodgeCoin.sol:CoinToken",
        "label": "uniswapV2Pair",
        "offset": 0,
        "slot": "23",
        "type": "t_address"
      },
      {
        "astId": 3043,
        "contract": "contracts/BabyDodgeCoin.sol:CoinToken",
        "label": "inSwapAndLiquify",
        "offset": 20,
        "slot": "23",
        "type": "t_bool"
      },
      {
        "astId": 3046,
        "contract": "contracts/BabyDodgeCoin.sol:CoinToken",
        "label": "swapAndLiquifyEnabled",
        "offset": 21,
        "slot": "23",
        "type": "t_bool"
      },
      {
        "astId": 3048,
        "contract": "contracts/BabyDodgeCoin.sol:CoinToken",
        "label": "_maxTxAmount",
        "offset": 0,
        "slot": "24",
        "type": "t_uint256"
      },
      {
        "astId": 3050,
        "contract": "contracts/BabyDodgeCoin.sol:CoinToken",
        "label": "numTokensSellToAddToLiquidity",
        "offset": 0,
        "slot": "25",
        "type": "t_uint256"
      }
    ],
    "types": {
      "t_address": {
        "encoding": "inplace",
        "label": "address",
        "numberOfBytes": "20"
      },
      "t_array(t_address)dyn_storage": {
        "base": "t_address",
        "encoding": "dynamic_array",
        "label": "address[]",
        "numberOfBytes": "32"
      },
      "t_bool": {
        "encoding": "inplace",
        "label": "bool",
        "numberOfBytes": "1"
      },
      "t_contract(IUniswapV2Router02)2966": {
        "encoding": "inplace",
        "label": "contract IUniswapV2Router02",
        "numberOfBytes": "20"
      },
      "t_mapping(t_address,t_bool)": {
        "encoding": "mapping",
        "key": "t_address",
        "label": "mapping(address => bool)",
        "numberOfBytes": "32",
        "value": "t_bool"
      },
      "t_mapping(t_address,t_mapping(t_address,t_uint256))": {
        "encoding": "mapping",
        "key": "t_address",
        "label": "mapping(address => mapping(address => uint256))",
        "numberOfBytes": "32",
        "value": "t_mapping(t_address,t_uint256)"
      },
      "t_mapping(t_address,t_uint256)": {
        "encoding": "mapping",
        "key": "t_address",
        "label": "mapping(address => uint256)",
        "numberOfBytes": "32",
        "value": "t_uint256"
      },
      "t_string_storage": {
        "encoding": "bytes",
        "label": "string",
        "numberOfBytes": "32"
      },
      "t_uint256": {
        "encoding": "inplace",
        "label": "uint256",
        "numberOfBytes": "32"
      }
    }
  }
}