{
  "address": "0xA5A176b0F4abBf266e9432c8F72BA82869cdE101",
  "abi": [
    {
      "inputs": [],
      "stateMutability": "nonpayable",
      "type": "constructor"
    },
    {
      "anonymous": false,
      "inputs": [
        {
          "indexed": true,
          "internalType": "address",
          "name": "owner",
          "type": "address"
        },
        {
          "indexed": true,
          "internalType": "address",
          "name": "spender",
          "type": "address"
        },
        {
          "indexed": false,
          "internalType": "uint256",
          "name": "value",
          "type": "uint256"
        }
      ],
      "name": "Approval",
      "type": "event"
    },
    {
      "anonymous": false,
      "inputs": [
        {
          "indexed": true,
          "internalType": "address",
          "name": "previousOwner",
          "type": "address"
        },
        {
          "indexed": true,
          "internalType": "address",
          "name": "newOwner",
          "type": "address"
        }
      ],
      "name": "OwnershipTransferred",
      "type": "event"
    },
    {
      "anonymous": false,
      "inputs": [
        {
          "indexed": true,
          "internalType": "address",
          "name": "from",
          "type": "address"
        },
        {
          "indexed": true,
          "internalType": "address",
          "name": "to",
          "type": "address"
        },
        {
          "indexed": false,
          "internalType": "uint256",
          "name": "value",
          "type": "uint256"
        }
      ],
      "name": "Transfer",
      "type": "event"
    },
    {
      "inputs": [
        {
          "internalType": "address",
          "name": "owner",
          "type": "address"
        },
        {
          "internalType": "address",
          "name": "spender",
          "type": "address"
        }
      ],
      "name": "allowance",
      "outputs": [
        {
          "internalType": "uint256",
          "name": "",
          "type": "uint256"
        }
      ],
      "stateMutability": "view",
      "type": "function"
    },
    {
      "inputs": [
        {
          "internalType": "address",
          "name": "spender",
          "type": "address"
        },
        {
          "internalType": "uint256",
          "name": "amount",
          "type": "uint256"
        }
      ],
      "name": "approve",
      "outputs": [
        {
          "internalType": "bool",
          "name": "",
          "type": "bool"
        }
      ],
      "stateMutability": "nonpayable",
      "type": "function"
    },
    {
      "inputs": [
        {
          "internalType": "address",
          "name": "account",
          "type": "address"
        }
      ],
      "name": "balanceOf",
      "outputs": [
        {
          "internalType": "uint256",
          "name": "",
          "type": "uint256"
        }
      ],
      "stateMutability": "view",
      "type": "function"
    },
    {
      "inputs": [],
      "name": "decimals",
      "outputs": [
        {
          "internalType": "uint8",
          "name": "",
          "type": "uint8"
        }
      ],
      "stateMutability": "view",
      "type": "function"
    },
    {
      "inputs": [
        {
          "internalType": "address",
          "name": "spender",
          "type": "address"
        },
        {
          "internalType": "uint256",
          "name": "subtractedValue",
          "type": "uint256"
        }
      ],
      "name": "decreaseAllowance",
      "outputs": [
        {
          "internalType": "bool",
          "name": "",
          "type": "bool"
        }
      ],
      "stateMutability": "nonpayable",
      "type": "function"
    },
    {
      "inputs": [
        {
          "internalType": "address",
          "name": "account",
          "type": "address"
        }
      ],
      "name": "excludeAccount",
      "outputs": [],
      "stateMutability": "nonpayable",
      "type": "function"
    },
    {
      "inputs": [
        {
          "internalType": "address",
          "name": "account",
          "type": "address"
        }
      ],
      "name": "includeAccount",
      "outputs": [],
      "stateMutability": "nonpayable",
      "type": "function"
    },
    {
      "inputs": [
        {
          "internalType": "address",
          "name": "spender",
          "type": "address"
        },
        {
          "internalType": "uint256",
          "name": "addedValue",
          "type": "uint256"
        }
      ],
      "name": "increaseAllowance",
      "outputs": [
        {
          "internalType": "bool",
          "name": "",
          "type": "bool"
        }
      ],
      "stateMutability": "nonpayable",
      "type": "function"
    },
    {
      "inputs": [
        {
          "internalType": "address",
          "name": "account",
          "type": "address"
        }
      ],
      "name": "isExcluded",
      "outputs": [
        {
          "internalType": "bool",
          "name": "",
          "type": "bool"
        }
      ],
      "stateMutability": "view",
      "type": "function"
    },
    {
      "inputs": [],
      "name": "name",
      "outputs": [
        {
          "internalType": "string",
          "name": "",
          "type": "string"
        }
      ],
      "stateMutability": "view",
      "type": "function"
    },
    {
      "inputs": [],
      "name": "owner",
      "outputs": [
        {
          "internalType": "address",
          "name": "",
          "type": "address"
        }
      ],
      "stateMutability": "view",
      "type": "function"
    },
    {
      "inputs": [
        {
          "internalType": "uint256",
          "name": "tAmount",
          "type": "uint256"
        }
      ],
      "name": "reflect",
      "outputs": [],
      "stateMutability": "nonpayable",
      "type": "function"
    },
    {
      "inputs": [
        {
          "internalType": "uint256",
          "name": "tAmount",
          "type": "uint256"
        },
        {
          "internalType": "bool",
          "name": "deductTransferFee",
          "type": "bool"
        }
      ],
      "name": "reflectionFromToken",
      "outputs": [
        {
          "internalType": "uint256",
          "name": "",
          "type": "uint256"
        }
      ],
      "stateMutability": "view",
      "type": "function"
    },
    {
      "inputs": [],
      "name": "renounceOwnership",
      "outputs": [],
      "stateMutability": "nonpayable",
      "type": "function"
    },
    {
      "inputs": [],
      "name": "symbol",
      "outputs": [
        {
          "internalType": "string",
          "name": "",
          "type": "string"
        }
      ],
      "stateMutability": "view",
      "type": "function"
    },
    {
      "inputs": [
        {
          "internalType": "uint256",
          "name": "rAmount",
          "type": "uint256"
        }
      ],
      "name": "tokenFromReflection",
      "outputs": [
        {
          "internalType": "uint256",
          "name": "",
          "type": "uint256"
        }
      ],
      "stateMutability": "view",
      "type": "function"
    },
    {
      "inputs": [],
      "name": "totalFees",
      "outputs": [
        {
          "internalType": "uint256",
          "name": "",
          "type": "uint256"
        }
      ],
      "stateMutability": "view",
      "type": "function"
    },
    {
      "inputs": [],
      "name": "totalSupply",
      "outputs": [
        {
          "internalType": "uint256",
          "name": "",
          "type": "uint256"
        }
      ],
      "stateMutability": "view",
      "type": "function"
    },
    {
      "inputs": [
        {
          "internalType": "address",
          "name": "recipient",
          "type": "address"
        },
        {
          "internalType": "uint256",
          "name": "amount",
          "type": "uint256"
        }
      ],
      "name": "transfer",
      "outputs": [
        {
          "internalType": "bool",
          "name": "",
          "type": "bool"
        }
      ],
      "stateMutability": "nonpayable",
      "type": "function"
    },
    {
      "inputs": [
        {
          "internalType": "address",
          "name": "sender",
          "type": "address"
        },
        {
          "internalType": "address",
          "name": "recipient",
          "type": "address"
        },
        {
          "internalType": "uint256",
          "name": "amount",
          "type": "uint256"
        }
      ],
      "name": "transferFrom",
      "outputs": [
        {
          "internalType": "bool",
          "name": "",
          "type": "bool"
        }
      ],
      "stateMutability": "nonpayable",
      "type": "function"
    },
    {
      "inputs": [
        {
          "internalType": "address",
          "name": "newOwner",
          "type": "address"
        }
      ],
      "name": "transferOwnership",
      "outputs": [],
      "stateMutability": "nonpayable",
      "type": "function"
    }
  ],
  "transactionHash": "0x1eb283a77d6cbad7399faa7dd73e97c20db5c4fcfdbc02481cbb0b2995a45d23",
  "args": [],
  "numDeployments": 2,
  "solcInputHash": "2419a5f15e23073db0d3df9148d8ea9f",
  "bytecode": "0x6080604052662386f26fc100006000196200001b9190620002e3565b6000196200002a91906200034a565b6006556040518060400160405280600f81526020017f7265666c6563742e66696e616e6365000000000000000000000000000000000081525060089081620000739190620005f5565b506040518060400160405280600381526020017f524649000000000000000000000000000000000000000000000000000000000081525060099081620000ba9190620005f5565b506009600a60006101000a81548160ff021916908360ff160217905550348015620000e457600080fd5b5062000105620000f9620001de60201b60201c565b620001e660201b60201c565b600654600160006200011c620001de60201b60201c565b73ffffffffffffffffffffffffffffffffffffffff1673ffffffffffffffffffffffffffffffffffffffff168152602001908152602001600020819055506200016a620001de60201b60201c565b73ffffffffffffffffffffffffffffffffffffffff16600073ffffffffffffffffffffffffffffffffffffffff167fddf252ad1be2c89b69c2b068fc378daa952ba7f163c4a11628f55a4df523b3ef662386f26fc10000604051620001d09190620006ed565b60405180910390a36200070a565b600033905090565b60008060009054906101000a900473ffffffffffffffffffffffffffffffffffffffff169050816000806101000a81548173ffffffffffffffffffffffffffffffffffffffff021916908373ffffffffffffffffffffffffffffffffffffffff1602179055508173ffffffffffffffffffffffffffffffffffffffff168173ffffffffffffffffffffffffffffffffffffffff167f8be0079c531659141344cd1fd0a4f28419497f9722a3daafe3b4186f6b6457e060405160405180910390a35050565b6000819050919050565b7f4e487b7100000000000000000000000000000000000000000000000000000000600052601260045260246000fd5b6000620002f082620002aa565b9150620002fd83620002aa565b92508262000310576200030f620002b4565b5b828206905092915050565b7f4e487b7100000000000000000000000000000000000000000000000000000000600052601160045260246000fd5b60006200035782620002aa565b91506200036483620002aa565b92508282039050818111156200037f576200037e6200031b565b5b92915050565b600081519050919050565b7f4e487b7100000000000000000000000000000000000000000000000000000000600052604160045260246000fd5b7f4e487b7100000000000000000000000000000000000000000000000000000000600052602260045260246000fd5b600060028204905060018216806200040757607f821691505b6020821081036200041d576200041c620003bf565b5b50919050565b60008190508160005260206000209050919050565b60006020601f8301049050919050565b600082821b905092915050565b600060088302620004877fffffffffffffffffffffffffffffffffffffffffffffffffffffffffffffffff8262000448565b62000493868362000448565b95508019841693508086168417925050509392505050565b6000819050919050565b6000620004d6620004d0620004ca84620002aa565b620004ab565b620002aa565b9050919050565b6000819050919050565b620004f283620004b5565b6200050a6200050182620004dd565b84845462000455565b825550505050565b600090565b6200052162000512565b6200052e818484620004e7565b505050565b5b8181101562000556576200054a60008262000517565b60018101905062000534565b5050565b601f821115620005a5576200056f8162000423565b6200057a8462000438565b810160208510156200058a578190505b620005a2620005998562000438565b83018262000533565b50505b505050565b600082821c905092915050565b6000620005ca60001984600802620005aa565b1980831691505092915050565b6000620005e58383620005b7565b9150826002028217905092915050565b620006008262000385565b67ffffffffffffffff8111156200061c576200061b62000390565b5b620006288254620003ee565b620006358282856200055a565b600060209050601f8311600181146200066d576000841562000658578287015190505b620006648582620005d7565b865550620006d4565b601f1984166200067d8662000423565b60005b82811015620006a75784890151825560018201915060208501945060208101905062000680565b86831015620006c75784890151620006c3601f891682620005b7565b8355505b6001600288020188555050505b505050505050565b620006e781620002aa565b82525050565b6000602082019050620007046000830184620006dc565b92915050565b61338f806200071a6000396000f3fe608060405234801561001057600080fd5b50600436106101375760003560e01c806370a08231116100b8578063a9059cbb1161007c578063a9059cbb14610366578063cba0e99614610396578063dd62ed3e146103c6578063f2cc0c18146103f6578063f2fde38b14610412578063f84354f11461042e57610137565b806370a08231146102c0578063715018a6146102f05780638da5cb5b146102fa57806395d89b4114610318578063a457c2d71461033657610137565b806323b872dd116100ff57806323b872dd146101e25780632d83811914610212578063313ce5671461024257806339509351146102605780634549b0391461029057610137565b8063053ab1821461013c57806306fdde0314610158578063095ea7b31461017657806313114a9d146101a657806318160ddd146101c4575b600080fd5b6101566004803603810190610151919061278f565b61044a565b005b6101606105c4565b60405161016d919061284c565b60405180910390f35b610190600480360381019061018b91906128cc565b610656565b60405161019d9190612927565b60405180910390f35b6101ae610674565b6040516101bb9190612951565b60405180910390f35b6101cc61067e565b6040516101d99190612951565b60405180910390f35b6101fc60048036038101906101f7919061296c565b61068d565b6040516102099190612927565b60405180910390f35b61022c6004803603810190610227919061278f565b610766565b6040516102399190612951565b60405180910390f35b61024a6107d4565b60405161025791906129db565b60405180910390f35b61027a600480360381019061027591906128cc565b6107eb565b6040516102879190612927565b60405180910390f35b6102aa60048036038101906102a59190612a22565b61089e565b6040516102b79190612951565b60405180910390f35b6102da60048036038101906102d59190612a62565b610925565b6040516102e79190612951565b60405180910390f35b6102f8610a10565b005b610302610a24565b60405161030f9190612a9e565b60405180910390f35b610320610a4d565b60405161032d919061284c565b60405180910390f35b610350600480360381019061034b91906128cc565b610adf565b60405161035d9190612927565b60405180910390f35b610380600480360381019061037b91906128cc565b610bac565b60405161038d9190612927565b60405180910390f35b6103b060048036038101906103ab9190612a62565b610bca565b6040516103bd9190612927565b60405180910390f35b6103e060048036038101906103db9190612ab9565b610c20565b6040516103ed9190612951565b60405180910390f35b610410600480360381019061040b9190612a62565b610ca7565b005b61042c60048036038101906104279190612a62565b610ece565b005b61044860048036038101906104439190612a62565b610f51565b005b6000610454611212565b9050600460008273ffffffffffffffffffffffffffffffffffffffff1673ffffffffffffffffffffffffffffffffffffffff16815260200190815260200160002060009054906101000a900460ff16156104e3576040517f08c379a00000000000000000000000000000000000000000000000000000000081526004016104da90612b6b565b60405180910390fd5b60006104ee8361121a565b50505050905061054681600160008573ffffffffffffffffffffffffffffffffffffffff1673ffffffffffffffffffffffffffffffffffffffff1681526020019081526020016000205461127290919063ffffffff16565b600160008473ffffffffffffffffffffffffffffffffffffffff1673ffffffffffffffffffffffffffffffffffffffff1681526020019081526020016000208190555061059e8160065461127290919063ffffffff16565b6006819055506105b98360075461128890919063ffffffff16565b600781905550505050565b6060600880546105d390612bba565b80601f01602080910402602001604051908101604052809291908181526020018280546105ff90612bba565b801561064c5780601f106106215761010080835404028352916020019161064c565b820191906000526020600020905b81548152906001019060200180831161062f57829003601f168201915b5050505050905090565b600061066a610663611212565b848461129e565b6001905092915050565b6000600754905090565b6000662386f26fc10000905090565b600061069a848484611467565b61075b846106a6611212565b6107568560405180606001604052806028815260200161330d60289139600360008b73ffffffffffffffffffffffffffffffffffffffff1673ffffffffffffffffffffffffffffffffffffffff168152602001908152602001600020600061070c611212565b73ffffffffffffffffffffffffffffffffffffffff1673ffffffffffffffffffffffffffffffffffffffff1681526020019081526020016000205461187c9092919063ffffffff16565b61129e565b600190509392505050565b60006006548211156107ad576040517f08c379a00000000000000000000000000000000000000000000000000000000081526004016107a490612c5d565b60405180910390fd5b60006107b76118d1565b90506107cc81846118fc90919063ffffffff16565b915050919050565b6000600a60009054906101000a900460ff16905090565b60006108946107f8611212565b8461088f8560036000610809611212565b73ffffffffffffffffffffffffffffffffffffffff1673ffffffffffffffffffffffffffffffffffffffff16815260200190815260200160002060008973ffffffffffffffffffffffffffffffffffffffff1673ffffffffffffffffffffffffffffffffffffffff1681526020019081526020016000205461128890919063ffffffff16565b61129e565b6001905092915050565b6000662386f26fc100008311156108ea576040517f08c379a00000000000000000000000000000000000000000000000000000000081526004016108e190612cc9565b60405180910390fd5b816109095760006108fa8461121a565b5050505090508091505061091f565b60006109148461121a565b505050915050809150505b92915050565b6000600460008373ffffffffffffffffffffffffffffffffffffffff1673ffffffffffffffffffffffffffffffffffffffff16815260200190815260200160002060009054906101000a900460ff16156109c057600260008373ffffffffffffffffffffffffffffffffffffffff1673ffffffffffffffffffffffffffffffffffffffff168152602001908152602001600020549050610a0b565b610a08600160008473ffffffffffffffffffffffffffffffffffffffff1673ffffffffffffffffffffffffffffffffffffffff16815260200190815260200160002054610766565b90505b919050565b610a18611912565b610a226000611990565b565b60008060009054906101000a900473ffffffffffffffffffffffffffffffffffffffff16905090565b606060098054610a5c90612bba565b80601f0160208091040260200160405190810160405280929190818152602001828054610a8890612bba565b8015610ad55780601f10610aaa57610100808354040283529160200191610ad5565b820191906000526020600020905b815481529060010190602001808311610ab857829003601f168201915b5050505050905090565b6000610ba2610aec611212565b84610b9d856040518060600160405280602581526020016133356025913960036000610b16611212565b73ffffffffffffffffffffffffffffffffffffffff1673ffffffffffffffffffffffffffffffffffffffff16815260200190815260200160002060008a73ffffffffffffffffffffffffffffffffffffffff1673ffffffffffffffffffffffffffffffffffffffff1681526020019081526020016000205461187c9092919063ffffffff16565b61129e565b6001905092915050565b6000610bc0610bb9611212565b8484611467565b6001905092915050565b6000600460008373ffffffffffffffffffffffffffffffffffffffff1673ffffffffffffffffffffffffffffffffffffffff16815260200190815260200160002060009054906101000a900460ff169050919050565b6000600360008473ffffffffffffffffffffffffffffffffffffffff1673ffffffffffffffffffffffffffffffffffffffff16815260200190815260200160002060008373ffffffffffffffffffffffffffffffffffffffff1673ffffffffffffffffffffffffffffffffffffffff16815260200190815260200160002054905092915050565b610caf611912565b600460008273ffffffffffffffffffffffffffffffffffffffff1673ffffffffffffffffffffffffffffffffffffffff16815260200190815260200160002060009054906101000a900460ff1615610d3c576040517f08c379a0000000000000000000000000000000000000000000000000000000008152600401610d3390612d35565b60405180910390fd5b6000600160008373ffffffffffffffffffffffffffffffffffffffff1673ffffffffffffffffffffffffffffffffffffffff168152602001908152602001600020541115610e1057610dcc600160008373ffffffffffffffffffffffffffffffffffffffff1673ffffffffffffffffffffffffffffffffffffffff16815260200190815260200160002054610766565b600260008373ffffffffffffffffffffffffffffffffffffffff1673ffffffffffffffffffffffffffffffffffffffff168152602001908152602001600020819055505b6001600460008373ffffffffffffffffffffffffffffffffffffffff1673ffffffffffffffffffffffffffffffffffffffff16815260200190815260200160002060006101000a81548160ff0219169083151502179055506005819080600181540180825580915050600190039060005260206000200160009091909190916101000a81548173ffffffffffffffffffffffffffffffffffffffff021916908373ffffffffffffffffffffffffffffffffffffffff16021790555050565b610ed6611912565b600073ffffffffffffffffffffffffffffffffffffffff168173ffffffffffffffffffffffffffffffffffffffff1603610f45576040517f08c379a0000000000000000000000000000000000000000000000000000000008152600401610f3c90612dc7565b60405180910390fd5b610f4e81611990565b50565b610f59611912565b600460008273ffffffffffffffffffffffffffffffffffffffff1673ffffffffffffffffffffffffffffffffffffffff16815260200190815260200160002060009054906101000a900460ff16610fe5576040517f08c379a0000000000000000000000000000000000000000000000000000000008152600401610fdc90612d35565b60405180910390fd5b60005b60058054905081101561120e578173ffffffffffffffffffffffffffffffffffffffff16600582815481106110205761101f612de7565b5b9060005260206000200160009054906101000a900473ffffffffffffffffffffffffffffffffffffffff1673ffffffffffffffffffffffffffffffffffffffff16036111fb576005600160058054905061107a9190612e45565b8154811061108b5761108a612de7565b5b9060005260206000200160009054906101000a900473ffffffffffffffffffffffffffffffffffffffff16600582815481106110ca576110c9612de7565b5b9060005260206000200160006101000a81548173ffffffffffffffffffffffffffffffffffffffff021916908373ffffffffffffffffffffffffffffffffffffffff1602179055506000600260008473ffffffffffffffffffffffffffffffffffffffff1673ffffffffffffffffffffffffffffffffffffffff168152602001908152602001600020819055506000600460008473ffffffffffffffffffffffffffffffffffffffff1673ffffffffffffffffffffffffffffffffffffffff16815260200190815260200160002060006101000a81548160ff02191690831515021790555060058054806111c1576111c0612e79565b5b6001900381819060005260206000200160006101000a81549073ffffffffffffffffffffffffffffffffffffffff0219169055905561120e565b808061120690612ea8565b915050610fe8565b5050565b600033905090565b600080600080600080600061122e88611a54565b91509150600061123c6118d1565b9050600080600061124e8c8686611a93565b92509250925082828288889a509a509a509a509a5050505050505091939590929450565b600081836112809190612e45565b905092915050565b600081836112969190612ef0565b905092915050565b600073ffffffffffffffffffffffffffffffffffffffff168373ffffffffffffffffffffffffffffffffffffffff160361130d576040517f08c379a000000000000000000000000000000000000000000000000000000000815260040161130490612f96565b60405180910390fd5b600073ffffffffffffffffffffffffffffffffffffffff168273ffffffffffffffffffffffffffffffffffffffff160361137c576040517f08c379a000000000000000000000000000000000000000000000000000000000815260040161137390613028565b60405180910390fd5b80600360008573ffffffffffffffffffffffffffffffffffffffff1673ffffffffffffffffffffffffffffffffffffffff16815260200190815260200160002060008473ffffffffffffffffffffffffffffffffffffffff1673ffffffffffffffffffffffffffffffffffffffff168152602001908152602001600020819055508173ffffffffffffffffffffffffffffffffffffffff168373ffffffffffffffffffffffffffffffffffffffff167f8c5be1e5ebec7d5bd14f71427d1e84f3dd0314c0f7b2291e5b200ac8c7c3b9258360405161145a9190612951565b60405180910390a3505050565b600073ffffffffffffffffffffffffffffffffffffffff168373ffffffffffffffffffffffffffffffffffffffff16036114d6576040517f08c379a00000000000000000000000000000000000000000000000000000000081526004016114cd906130ba565b60405180910390fd5b600073ffffffffffffffffffffffffffffffffffffffff168273ffffffffffffffffffffffffffffffffffffffff1603611545576040517f08c379a000000000000000000000000000000000000000000000000000000000815260040161153c9061314c565b60405180910390fd5b60008111611588576040517f08c379a000000000000000000000000000000000000000000000000000000000815260040161157f906131de565b60405180910390fd5b600460008473ffffffffffffffffffffffffffffffffffffffff1673ffffffffffffffffffffffffffffffffffffffff16815260200190815260200160002060009054906101000a900460ff16801561162b5750600460008373ffffffffffffffffffffffffffffffffffffffff1673ffffffffffffffffffffffffffffffffffffffff16815260200190815260200160002060009054906101000a900460ff16155b156116405761163b838383611af1565b611877565b600460008473ffffffffffffffffffffffffffffffffffffffff1673ffffffffffffffffffffffffffffffffffffffff16815260200190815260200160002060009054906101000a900460ff161580156116e35750600460008373ffffffffffffffffffffffffffffffffffffffff1673ffffffffffffffffffffffffffffffffffffffff16815260200190815260200160002060009054906101000a900460ff165b156116f8576116f3838383611d44565b611876565b600460008473ffffffffffffffffffffffffffffffffffffffff1673ffffffffffffffffffffffffffffffffffffffff16815260200190815260200160002060009054906101000a900460ff1615801561179c5750600460008373ffffffffffffffffffffffffffffffffffffffff1673ffffffffffffffffffffffffffffffffffffffff16815260200190815260200160002060009054906101000a900460ff16155b156117b1576117ac838383611f97565b611875565b600460008473ffffffffffffffffffffffffffffffffffffffff1673ffffffffffffffffffffffffffffffffffffffff16815260200190815260200160002060009054906101000a900460ff1680156118535750600460008373ffffffffffffffffffffffffffffffffffffffff1673ffffffffffffffffffffffffffffffffffffffff16815260200190815260200160002060009054906101000a900460ff165b1561186857611863838383612155565b611874565b611873838383611f97565b5b5b5b5b505050565b60008383111582906118c4576040517f08c379a00000000000000000000000000000000000000000000000000000000081526004016118bb919061284c565b60405180910390fd5b5082840390509392505050565b60008060006118de61243d565b915091506118f581836118fc90919063ffffffff16565b9250505090565b6000818361190a919061322d565b905092915050565b61191a611212565b73ffffffffffffffffffffffffffffffffffffffff16611938610a24565b73ffffffffffffffffffffffffffffffffffffffff161461198e576040517f08c379a0000000000000000000000000000000000000000000000000000000008152600401611985906132aa565b60405180910390fd5b565b60008060009054906101000a900473ffffffffffffffffffffffffffffffffffffffff169050816000806101000a81548173ffffffffffffffffffffffffffffffffffffffff021916908373ffffffffffffffffffffffffffffffffffffffff1602179055508173ffffffffffffffffffffffffffffffffffffffff168173ffffffffffffffffffffffffffffffffffffffff167f8be0079c531659141344cd1fd0a4f28419497f9722a3daafe3b4186f6b6457e060405160405180910390a35050565b6000806000611a6d6064856118fc90919063ffffffff16565b90506000611a84828661127290919063ffffffff16565b90508082935093505050915091565b600080600080611aac858861270490919063ffffffff16565b90506000611ac3868861270490919063ffffffff16565b90506000611ada828461127290919063ffffffff16565b905082818395509550955050505093509350939050565b6000806000806000611b028661121a565b94509450945094509450611b5e86600260008b73ffffffffffffffffffffffffffffffffffffffff1673ffffffffffffffffffffffffffffffffffffffff1681526020019081526020016000205461127290919063ffffffff16565b600260008a73ffffffffffffffffffffffffffffffffffffffff1673ffffffffffffffffffffffffffffffffffffffff16815260200190815260200160002081905550611bf385600160008b73ffffffffffffffffffffffffffffffffffffffff1673ffffffffffffffffffffffffffffffffffffffff1681526020019081526020016000205461127290919063ffffffff16565b600160008a73ffffffffffffffffffffffffffffffffffffffff1673ffffffffffffffffffffffffffffffffffffffff16815260200190815260200160002081905550611c8884600160008a73ffffffffffffffffffffffffffffffffffffffff1673ffffffffffffffffffffffffffffffffffffffff1681526020019081526020016000205461128890919063ffffffff16565b600160008973ffffffffffffffffffffffffffffffffffffffff1673ffffffffffffffffffffffffffffffffffffffff16815260200190815260200160002081905550611cd5838261271a565b8673ffffffffffffffffffffffffffffffffffffffff168873ffffffffffffffffffffffffffffffffffffffff167fddf252ad1be2c89b69c2b068fc378daa952ba7f163c4a11628f55a4df523b3ef84604051611d329190612951565b60405180910390a35050505050505050565b6000806000806000611d558661121a565b94509450945094509450611db185600160008b73ffffffffffffffffffffffffffffffffffffffff1673ffffffffffffffffffffffffffffffffffffffff1681526020019081526020016000205461127290919063ffffffff16565b600160008a73ffffffffffffffffffffffffffffffffffffffff1673ffffffffffffffffffffffffffffffffffffffff16815260200190815260200160002081905550611e4682600260008a73ffffffffffffffffffffffffffffffffffffffff1673ffffffffffffffffffffffffffffffffffffffff1681526020019081526020016000205461128890919063ffffffff16565b600260008973ffffffffffffffffffffffffffffffffffffffff1673ffffffffffffffffffffffffffffffffffffffff16815260200190815260200160002081905550611edb84600160008a73ffffffffffffffffffffffffffffffffffffffff1673ffffffffffffffffffffffffffffffffffffffff1681526020019081526020016000205461128890919063ffffffff16565b600160008973ffffffffffffffffffffffffffffffffffffffff1673ffffffffffffffffffffffffffffffffffffffff16815260200190815260200160002081905550611f28838261271a565b8673ffffffffffffffffffffffffffffffffffffffff168873ffffffffffffffffffffffffffffffffffffffff167fddf252ad1be2c89b69c2b068fc378daa952ba7f163c4a11628f55a4df523b3ef84604051611f859190612951565b60405180910390a35050505050505050565b6000806000806000611fa88661121a565b9450945094509450945061200485600160008b73ffffffffffffffffffffffffffffffffffffffff1673ffffffffffffffffffffffffffffffffffffffff1681526020019081526020016000205461127290919063ffffffff16565b600160008a73ffffffffffffffffffffffffffffffffffffffff1673ffffffffffffffffffffffffffffffffffffffff1681526020019081526020016000208190555061209984600160008a73ffffffffffffffffffffffffffffffffffffffff1673ffffffffffffffffffffffffffffffffffffffff1681526020019081526020016000205461128890919063ffffffff16565b600160008973ffffffffffffffffffffffffffffffffffffffff1673ffffffffffffffffffffffffffffffffffffffff168152602001908152602001600020819055506120e6838261271a565b8673ffffffffffffffffffffffffffffffffffffffff168873ffffffffffffffffffffffffffffffffffffffff167fddf252ad1be2c89b69c2b068fc378daa952ba7f163c4a11628f55a4df523b3ef846040516121439190612951565b60405180910390a35050505050505050565b60008060008060006121668661121a565b945094509450945094506121c286600260008b73ffffffffffffffffffffffffffffffffffffffff1673ffffffffffffffffffffffffffffffffffffffff1681526020019081526020016000205461127290919063ffffffff16565b600260008a73ffffffffffffffffffffffffffffffffffffffff1673ffffffffffffffffffffffffffffffffffffffff1681526020019081526020016000208190555061225785600160008b73ffffffffffffffffffffffffffffffffffffffff1673ffffffffffffffffffffffffffffffffffffffff1681526020019081526020016000205461127290919063ffffffff16565b600160008a73ffffffffffffffffffffffffffffffffffffffff1673ffffffffffffffffffffffffffffffffffffffff168152602001908152602001600020819055506122ec82600260008a73ffffffffffffffffffffffffffffffffffffffff1673ffffffffffffffffffffffffffffffffffffffff1681526020019081526020016000205461128890919063ffffffff16565b600260008973ffffffffffffffffffffffffffffffffffffffff1673ffffffffffffffffffffffffffffffffffffffff1681526020019081526020016000208190555061238184600160008a73ffffffffffffffffffffffffffffffffffffffff1673ffffffffffffffffffffffffffffffffffffffff1681526020019081526020016000205461128890919063ffffffff16565b600160008973ffffffffffffffffffffffffffffffffffffffff1673ffffffffffffffffffffffffffffffffffffffff168152602001908152602001600020819055506123ce838261271a565b8673ffffffffffffffffffffffffffffffffffffffff168873ffffffffffffffffffffffffffffffffffffffff167fddf252ad1be2c89b69c2b068fc378daa952ba7f163c4a11628f55a4df523b3ef8460405161242b9190612951565b60405180910390a35050505050505050565b600080600060065490506000662386f26fc10000905060005b6005805490508110156126bd5782600160006005848154811061247c5761247b612de7565b5b9060005260206000200160009054906101000a900473ffffffffffffffffffffffffffffffffffffffff1673ffffffffffffffffffffffffffffffffffffffff1673ffffffffffffffffffffffffffffffffffffffff16815260200190815260200160002054118061256a575081600260006005848154811061250257612501612de7565b5b9060005260206000200160009054906101000a900473ffffffffffffffffffffffffffffffffffffffff1673ffffffffffffffffffffffffffffffffffffffff1673ffffffffffffffffffffffffffffffffffffffff16815260200190815260200160002054115b1561258657600654662386f26fc1000094509450505050612700565b61261660016000600584815481106125a1576125a0612de7565b5b9060005260206000200160009054906101000a900473ffffffffffffffffffffffffffffffffffffffff1673ffffffffffffffffffffffffffffffffffffffff1673ffffffffffffffffffffffffffffffffffffffff168152602001908152602001600020548461127290919063ffffffff16565b92506126a8600260006005848154811061263357612632612de7565b5b9060005260206000200160009054906101000a900473ffffffffffffffffffffffffffffffffffffffff1673ffffffffffffffffffffffffffffffffffffffff1673ffffffffffffffffffffffffffffffffffffffff168152602001908152602001600020548361127290919063ffffffff16565b915080806126b590612ea8565b915050612456565b506126da662386f26fc100006006546118fc90919063ffffffff16565b8210156126f757600654662386f26fc10000935093505050612700565b81819350935050505b9091565b6000818361271291906132ca565b905092915050565b61272f8260065461127290919063ffffffff16565b60068190555061274a8160075461128890919063ffffffff16565b6007819055505050565b600080fd5b6000819050919050565b61276c81612759565b811461277757600080fd5b50565b60008135905061278981612763565b92915050565b6000602082840312156127a5576127a4612754565b5b60006127b38482850161277a565b91505092915050565b600081519050919050565b600082825260208201905092915050565b60005b838110156127f65780820151818401526020810190506127db565b60008484015250505050565b6000601f19601f8301169050919050565b600061281e826127bc565b61282881856127c7565b93506128388185602086016127d8565b61284181612802565b840191505092915050565b600060208201905081810360008301526128668184612813565b905092915050565b600073ffffffffffffffffffffffffffffffffffffffff82169050919050565b60006128998261286e565b9050919050565b6128a98161288e565b81146128b457600080fd5b50565b6000813590506128c6816128a0565b92915050565b600080604083850312156128e3576128e2612754565b5b60006128f1858286016128b7565b92505060206129028582860161277a565b9150509250929050565b60008115159050919050565b6129218161290c565b82525050565b600060208201905061293c6000830184612918565b92915050565b61294b81612759565b82525050565b60006020820190506129666000830184612942565b92915050565b60008060006060848603121561298557612984612754565b5b6000612993868287016128b7565b93505060206129a4868287016128b7565b92505060406129b58682870161277a565b9150509250925092565b600060ff82169050919050565b6129d5816129bf565b82525050565b60006020820190506129f060008301846129cc565b92915050565b6129ff8161290c565b8114612a0a57600080fd5b50565b600081359050612a1c816129f6565b92915050565b60008060408385031215612a3957612a38612754565b5b6000612a478582860161277a565b9250506020612a5885828601612a0d565b9150509250929050565b600060208284031215612a7857612a77612754565b5b6000612a86848285016128b7565b91505092915050565b612a988161288e565b82525050565b6000602082019050612ab36000830184612a8f565b92915050565b60008060408385031215612ad057612acf612754565b5b6000612ade858286016128b7565b9250506020612aef858286016128b7565b9150509250929050565b7f4578636c75646564206164647265737365732063616e6e6f742063616c6c207460008201527f6869732066756e6374696f6e0000000000000000000000000000000000000000602082015250565b6000612b55602c836127c7565b9150612b6082612af9565b604082019050919050565b60006020820190508181036000830152612b8481612b48565b9050919050565b7f4e487b7100000000000000000000000000000000000000000000000000000000600052602260045260246000fd5b60006002820490506001821680612bd257607f821691505b602082108103612be557612be4612b8b565b5b50919050565b7f416d6f756e74206d757374206265206c657373207468616e20746f74616c207260008201527f65666c656374696f6e7300000000000000000000000000000000000000000000602082015250565b6000612c47602a836127c7565b9150612c5282612beb565b604082019050919050565b60006020820190508181036000830152612c7681612c3a565b9050919050565b7f416d6f756e74206d757374206265206c657373207468616e20737570706c7900600082015250565b6000612cb3601f836127c7565b9150612cbe82612c7d565b602082019050919050565b60006020820190508181036000830152612ce281612ca6565b9050919050565b7f4163636f756e7420697320616c7265616479206578636c756465640000000000600082015250565b6000612d1f601b836127c7565b9150612d2a82612ce9565b602082019050919050565b60006020820190508181036000830152612d4e81612d12565b9050919050565b7f4f776e61626c653a206e6577206f776e657220697320746865207a65726f206160008201527f6464726573730000000000000000000000000000000000000000000000000000602082015250565b6000612db16026836127c7565b9150612dbc82612d55565b604082019050919050565b60006020820190508181036000830152612de081612da4565b9050919050565b7f4e487b7100000000000000000000000000000000000000000000000000000000600052603260045260246000fd5b7f4e487b7100000000000000000000000000000000000000000000000000000000600052601160045260246000fd5b6000612e5082612759565b9150612e5b83612759565b9250828203905081811115612e7357612e72612e16565b5b92915050565b7f4e487b7100000000000000000000000000000000000000000000000000000000600052603160045260246000fd5b6000612eb382612759565b91507fffffffffffffffffffffffffffffffffffffffffffffffffffffffffffffffff8203612ee557612ee4612e16565b5b600182019050919050565b6000612efb82612759565b9150612f0683612759565b9250828201905080821115612f1e57612f1d612e16565b5b92915050565b7f45524332303a20617070726f76652066726f6d20746865207a65726f2061646460008201527f7265737300000000000000000000000000000000000000000000000000000000602082015250565b6000612f806024836127c7565b9150612f8b82612f24565b604082019050919050565b60006020820190508181036000830152612faf81612f73565b9050919050565b7f45524332303a20617070726f766520746f20746865207a65726f20616464726560008201527f7373000000000000000000000000000000000000000000000000000000000000602082015250565b60006130126022836127c7565b915061301d82612fb6565b604082019050919050565b6000602082019050818103600083015261304181613005565b9050919050565b7f45524332303a207472616e736665722066726f6d20746865207a65726f20616460008201527f6472657373000000000000000000000000000000000000000000000000000000602082015250565b60006130a46025836127c7565b91506130af82613048565b604082019050919050565b600060208201905081810360008301526130d381613097565b9050919050565b7f45524332303a207472616e7366657220746f20746865207a65726f206164647260008201527f6573730000000000000000000000000000000000000000000000000000000000602082015250565b60006131366023836127c7565b9150613141826130da565b604082019050919050565b6000602082019050818103600083015261316581613129565b9050919050565b7f5472616e7366657220616d6f756e74206d75737420626520677265617465722060008201527f7468616e207a65726f0000000000000000000000000000000000000000000000602082015250565b60006131c86029836127c7565b91506131d38261316c565b604082019050919050565b600060208201905081810360008301526131f7816131bb565b9050919050565b7f4e487b7100000000000000000000000000000000000000000000000000000000600052601260045260246000fd5b600061323882612759565b915061324383612759565b925082613253576132526131fe565b5b828204905092915050565b7f4f776e61626c653a2063616c6c6572206973206e6f7420746865206f776e6572600082015250565b60006132946020836127c7565b915061329f8261325e565b602082019050919050565b600060208201905081810360008301526132c381613287565b9050919050565b60006132d582612759565b91506132e083612759565b92508282026132ee81612759565b9150828204841483151761330557613304612e16565b5b509291505056fe45524332303a207472616e7366657220616d6f756e74206578636565647320616c6c6f77616e636545524332303a2064656372656173656420616c6c6f77616e63652062656c6f77207a65726fa2646970667358221220477aa895fd86f251bc52399a7cda9f1c265660625e1515a699e24084b8988bf664736f6c63430008110033",
  "devdoc": {
    "kind": "dev",
    "methods": {
      "allowance(address,address)": {
        "details": "Returns the remaining number of tokens that `spender` will be allowed to spend on behalf of `owner` through {transferFrom}. This is zero by default. This value changes when {approve} or {transferFrom} are called."
      },
      "approve(address,uint256)": {
        "details": "Sets `amount` as the allowance of `spender` over the caller's tokens. Returns a boolean value indicating whether the operation succeeded. IMPORTANT: Beware that changing an allowance with this method brings the risk that someone may use both the old and the new allowance by unfortunate transaction ordering. One possible solution to mitigate this race condition is to first reduce the spender's allowance to 0 and set the desired value afterwards: https://github.com/ethereum/EIPs/issues/20#issuecomment-263524729 Emits an {Approval} event."
      },
      "balanceOf(address)": {
        "details": "Returns the amount of tokens owned by `account`."
      },
      "owner()": {
        "details": "Returns the address of the current owner."
      },
      "renounceOwnership()": {
        "details": "Leaves the contract without owner. It will not be possible to call `onlyOwner` functions anymore. Can only be called by the current owner. NOTE: Renouncing ownership will leave the contract without an owner, thereby removing any functionality that is only available to the owner."
      },
      "totalSupply()": {
        "details": "Returns the amount of tokens in existence."
      },
      "transferOwnership(address)": {
        "details": "Transfers ownership of the contract to a new account (`newOwner`). Can only be called by the current owner."
      }
    },
    "version": 1
  },
  "userdoc": {
    "kind": "user",
    "methods": {},
    "version": 1
  },
  "storageLayout": {
    "storage": [
      {
        "astId": 7,
        "contract": "contracts/REFLECT.sol:REFLECT",
        "label": "_owner",
        "offset": 0,
        "slot": "0",
        "type": "t_address"
      },
      {
        "astId": 877,
        "contract": "contracts/REFLECT.sol:REFLECT",
        "label": "_rOwned",
        "offset": 0,
        "slot": "1",
        "type": "t_mapping(t_address,t_uint256)"
      },
      {
        "astId": 881,
        "contract": "contracts/REFLECT.sol:REFLECT",
        "label": "_tOwned",
        "offset": 0,
        "slot": "2",
        "type": "t_mapping(t_address,t_uint256)"
      },
      {
        "astId": 887,
        "contract": "contracts/REFLECT.sol:REFLECT",
        "label": "_allowances",
        "offset": 0,
        "slot": "3",
        "type": "t_mapping(t_address,t_mapping(t_address,t_uint256))"
      },
      {
        "astId": 891,
        "contract": "contracts/REFLECT.sol:REFLECT",
        "label": "_isExcluded",
        "offset": 0,
        "slot": "4",
        "type": "t_mapping(t_address,t_bool)"
      },
      {
        "astId": 894,
        "contract": "contracts/REFLECT.sol:REFLECT",
        "label": "_excluded",
        "offset": 0,
        "slot": "5",
        "type": "t_array(t_address)dyn_storage"
      },
      {
        "astId": 921,
        "contract": "contracts/REFLECT.sol:REFLECT",
        "label": "_rTotal",
        "offset": 0,
        "slot": "6",
        "type": "t_uint256"
      },
      {
        "astId": 923,
        "contract": "contracts/REFLECT.sol:REFLECT",
        "label": "_tFeeTotal",
        "offset": 0,
        "slot": "7",
        "type": "t_uint256"
      },
      {
        "astId": 926,
        "contract": "contracts/REFLECT.sol:REFLECT",
        "label": "_name",
        "offset": 0,
        "slot": "8",
        "type": "t_string_storage"
      },
      {
        "astId": 929,
        "contract": "contracts/REFLECT.sol:REFLECT",
        "label": "_symbol",
        "offset": 0,
        "slot": "9",
        "type": "t_string_storage"
      },
      {
        "astId": 932,
        "contract": "contracts/REFLECT.sol:REFLECT",
        "label": "_decimals",
        "offset": 0,
        "slot": "10",
        "type": "t_uint8"
      }
    ],
    "types": {
      "t_address": {
        "encoding": "inplace",
        "label": "address",
        "numberOfBytes": "20"
      },
      "t_array(t_address)dyn_storage": {
        "base": "t_address",
        "encoding": "dynamic_array",
        "label": "address[]",
        "numberOfBytes": "32"
      },
      "t_bool": {
        "encoding": "inplace",
        "label": "bool",
        "numberOfBytes": "1"
      },
      "t_mapping(t_address,t_bool)": {
        "encoding": "mapping",
        "key": "t_address",
        "label": "mapping(address => bool)",
        "numberOfBytes": "32",
        "value": "t_bool"
      },
      "t_mapping(t_address,t_mapping(t_address,t_uint256))": {
        "encoding": "mapping",
        "key": "t_address",
        "label": "mapping(address => mapping(address => uint256))",
        "numberOfBytes": "32",
        "value": "t_mapping(t_address,t_uint256)"
      },
      "t_mapping(t_address,t_uint256)": {
        "encoding": "mapping",
        "key": "t_address",
        "label": "mapping(address => uint256)",
        "numberOfBytes": "32",
        "value": "t_uint256"
      },
      "t_string_storage": {
        "encoding": "bytes",
        "label": "string",
        "numberOfBytes": "32"
      },
      "t_uint256": {
        "encoding": "inplace",
        "label": "uint256",
        "numberOfBytes": "32"
      },
      "t_uint8": {
        "encoding": "inplace",
        "label": "uint8",
        "numberOfBytes": "1"
      }
    }
  }
}